{
  "abi": [
    {
      "inputs": [
        {
          "internalType": "address",
          "name": "timelock_",
          "type": "address"
        },
        {
          "internalType": "address",
          "name": "ndx_",
          "type": "address"
        }
      ],
      "stateMutability": "nonpayable",
      "type": "constructor"
    },
    {
      "anonymous": false,
      "inputs": [
        {
          "indexed": false,
          "internalType": "uint256",
          "name": "id",
          "type": "uint256"
        }
      ],
      "name": "ProposalCanceled",
      "type": "event"
    },
    {
      "anonymous": false,
      "inputs": [
        {
          "indexed": false,
          "internalType": "uint256",
          "name": "id",
          "type": "uint256"
        },
        {
          "indexed": false,
          "internalType": "address",
          "name": "proposer",
          "type": "address"
        },
        {
          "indexed": false,
          "internalType": "address[]",
          "name": "targets",
          "type": "address[]"
        },
        {
          "indexed": false,
          "internalType": "uint256[]",
          "name": "values",
          "type": "uint256[]"
        },
        {
          "indexed": false,
          "internalType": "string[]",
          "name": "signatures",
          "type": "string[]"
        },
        {
          "indexed": false,
          "internalType": "bytes[]",
          "name": "calldatas",
          "type": "bytes[]"
        },
        {
          "indexed": false,
          "internalType": "uint256",
          "name": "startBlock",
          "type": "uint256"
        },
        {
          "indexed": false,
          "internalType": "uint256",
          "name": "endBlock",
          "type": "uint256"
        },
        {
          "indexed": false,
          "internalType": "string",
          "name": "description",
          "type": "string"
        }
      ],
      "name": "ProposalCreated",
      "type": "event"
    },
    {
      "anonymous": false,
      "inputs": [
        {
          "indexed": false,
          "internalType": "uint256",
          "name": "id",
          "type": "uint256"
        }
      ],
      "name": "ProposalExecuted",
      "type": "event"
    },
    {
      "anonymous": false,
      "inputs": [
        {
          "indexed": false,
          "internalType": "uint256",
          "name": "id",
          "type": "uint256"
        },
        {
          "indexed": false,
          "internalType": "uint256",
          "name": "eta",
          "type": "uint256"
        }
      ],
      "name": "ProposalQueued",
      "type": "event"
    },
    {
      "anonymous": false,
      "inputs": [
        {
          "indexed": false,
          "internalType": "address",
          "name": "voter",
          "type": "address"
        },
        {
          "indexed": false,
          "internalType": "uint256",
          "name": "proposalId",
          "type": "uint256"
        },
        {
          "indexed": false,
          "internalType": "bool",
          "name": "support",
          "type": "bool"
        },
        {
          "indexed": false,
          "internalType": "uint256",
          "name": "votes",
          "type": "uint256"
        }
      ],
      "name": "VoteCast",
      "type": "event"
    },
    {
      "inputs": [],
      "name": "BALLOT_TYPEHASH",
      "outputs": [
        {
          "internalType": "bytes32",
          "name": "",
          "type": "bytes32"
        }
      ],
      "stateMutability": "view",
      "type": "function"
    },
    {
      "inputs": [],
      "name": "DOMAIN_TYPEHASH",
      "outputs": [
        {
          "internalType": "bytes32",
          "name": "",
          "type": "bytes32"
        }
      ],
      "stateMutability": "view",
      "type": "function"
    },
    {
      "inputs": [
        {
          "internalType": "uint256",
          "name": "proposalId",
          "type": "uint256"
        }
      ],
      "name": "cancel",
      "outputs": [],
      "stateMutability": "nonpayable",
      "type": "function"
    },
    {
      "inputs": [
        {
          "internalType": "uint256",
          "name": "proposalId",
          "type": "uint256"
        },
        {
          "internalType": "bool",
          "name": "support",
          "type": "bool"
        }
      ],
      "name": "castVote",
      "outputs": [],
      "stateMutability": "nonpayable",
      "type": "function"
    },
    {
      "inputs": [
        {
          "internalType": "uint256",
          "name": "proposalId",
          "type": "uint256"
        },
        {
          "internalType": "bool",
          "name": "support",
          "type": "bool"
        },
        {
          "internalType": "uint8",
          "name": "v",
          "type": "uint8"
        },
        {
          "internalType": "bytes32",
          "name": "r",
          "type": "bytes32"
        },
        {
          "internalType": "bytes32",
          "name": "s",
          "type": "bytes32"
        }
      ],
      "name": "castVoteBySig",
      "outputs": [],
      "stateMutability": "nonpayable",
      "type": "function"
    },
    {
      "inputs": [
        {
          "internalType": "uint256",
          "name": "proposalId",
          "type": "uint256"
        }
      ],
      "name": "execute",
      "outputs": [],
      "stateMutability": "payable",
      "type": "function"
    },
    {
      "inputs": [
        {
          "internalType": "uint256",
          "name": "proposalId",
          "type": "uint256"
        }
      ],
      "name": "getActions",
      "outputs": [
        {
          "internalType": "address[]",
          "name": "targets",
          "type": "address[]"
        },
        {
          "internalType": "uint256[]",
          "name": "values",
          "type": "uint256[]"
        },
        {
          "internalType": "string[]",
          "name": "signatures",
          "type": "string[]"
        },
        {
          "internalType": "bytes[]",
          "name": "calldatas",
          "type": "bytes[]"
        }
      ],
      "stateMutability": "view",
      "type": "function"
    },
    {
      "inputs": [
        {
          "internalType": "uint256",
          "name": "proposalId",
          "type": "uint256"
        },
        {
          "internalType": "address",
          "name": "voter",
          "type": "address"
        }
      ],
      "name": "getReceipt",
      "outputs": [
        {
          "components": [
            {
              "internalType": "bool",
              "name": "hasVoted",
              "type": "bool"
            },
            {
              "internalType": "bool",
              "name": "support",
              "type": "bool"
            },
            {
              "internalType": "uint96",
              "name": "votes",
              "type": "uint96"
            }
          ],
          "internalType": "struct GovernorAlpha.Receipt",
          "name": "",
          "type": "tuple"
        }
      ],
      "stateMutability": "view",
      "type": "function"
    },
    {
      "inputs": [
        {
          "internalType": "address",
          "name": "",
          "type": "address"
        }
      ],
      "name": "latestProposalIds",
      "outputs": [
        {
          "internalType": "uint256",
          "name": "",
          "type": "uint256"
        }
      ],
      "stateMutability": "view",
      "type": "function"
    },
    {
      "inputs": [],
      "name": "name",
      "outputs": [
        {
          "internalType": "string",
          "name": "",
          "type": "string"
        }
      ],
      "stateMutability": "view",
      "type": "function"
    },
    {
      "inputs": [],
      "name": "ndx",
      "outputs": [
        {
          "internalType": "contract NdxInterface",
          "name": "",
          "type": "address"
        }
      ],
      "stateMutability": "view",
      "type": "function"
    },
    {
      "inputs": [],
      "name": "proposalCount",
      "outputs": [
        {
          "internalType": "uint256",
          "name": "",
          "type": "uint256"
        }
      ],
      "stateMutability": "view",
      "type": "function"
    },
    {
      "inputs": [],
      "name": "proposalMaxOperations",
      "outputs": [
        {
          "internalType": "uint256",
          "name": "",
          "type": "uint256"
        }
      ],
      "stateMutability": "pure",
      "type": "function"
    },
    {
      "inputs": [],
      "name": "proposalThreshold",
      "outputs": [
        {
          "internalType": "uint256",
          "name": "",
          "type": "uint256"
        }
      ],
      "stateMutability": "pure",
      "type": "function"
    },
    {
      "inputs": [
        {
          "internalType": "uint256",
          "name": "",
          "type": "uint256"
        }
      ],
      "name": "proposals",
      "outputs": [
        {
          "internalType": "uint256",
          "name": "id",
          "type": "uint256"
        },
        {
          "internalType": "address",
          "name": "proposer",
          "type": "address"
        },
        {
          "internalType": "uint256",
          "name": "eta",
          "type": "uint256"
        },
        {
          "internalType": "uint256",
          "name": "startBlock",
          "type": "uint256"
        },
        {
          "internalType": "uint256",
          "name": "endBlock",
          "type": "uint256"
        },
        {
          "internalType": "uint256",
          "name": "forVotes",
          "type": "uint256"
        },
        {
          "internalType": "uint256",
          "name": "againstVotes",
          "type": "uint256"
        },
        {
          "internalType": "bool",
          "name": "canceled",
          "type": "bool"
        },
        {
          "internalType": "bool",
          "name": "executed",
          "type": "bool"
        }
      ],
      "stateMutability": "view",
      "type": "function"
    },
    {
      "inputs": [
        {
          "internalType": "address[]",
          "name": "targets",
          "type": "address[]"
        },
        {
          "internalType": "uint256[]",
          "name": "values",
          "type": "uint256[]"
        },
        {
          "internalType": "string[]",
          "name": "signatures",
          "type": "string[]"
        },
        {
          "internalType": "bytes[]",
          "name": "calldatas",
          "type": "bytes[]"
        },
        {
          "internalType": "string",
          "name": "description",
          "type": "string"
        }
      ],
      "name": "propose",
      "outputs": [
        {
          "internalType": "uint256",
          "name": "",
          "type": "uint256"
        }
      ],
      "stateMutability": "nonpayable",
      "type": "function"
    },
    {
      "inputs": [
        {
          "internalType": "uint256",
          "name": "proposalId",
          "type": "uint256"
        }
      ],
      "name": "queue",
      "outputs": [],
      "stateMutability": "nonpayable",
      "type": "function"
    },
    {
      "inputs": [],
      "name": "quorumVotes",
      "outputs": [
        {
          "internalType": "uint256",
          "name": "",
          "type": "uint256"
        }
      ],
      "stateMutability": "pure",
      "type": "function"
    },
    {
      "inputs": [
        {
          "internalType": "uint256",
          "name": "proposalId",
          "type": "uint256"
        }
      ],
      "name": "state",
      "outputs": [
        {
          "internalType": "enum GovernorAlpha.ProposalState",
          "name": "",
          "type": "uint8"
        }
      ],
      "stateMutability": "view",
      "type": "function"
    },
    {
      "inputs": [],
      "name": "timelock",
      "outputs": [
        {
          "internalType": "contract TimelockInterface",
          "name": "",
          "type": "address"
        }
      ],
      "stateMutability": "view",
      "type": "function"
    },
    {
      "inputs": [],
      "name": "votingDelay",
      "outputs": [
        {
          "internalType": "uint256",
          "name": "",
          "type": "uint256"
        }
      ],
      "stateMutability": "pure",
      "type": "function"
    },
    {
      "inputs": [],
      "name": "votingPeriod",
      "outputs": [
        {
          "internalType": "uint256",
          "name": "",
          "type": "uint256"
        }
      ],
      "stateMutability": "pure",
      "type": "function"
    }
  ],
  "address": "0x5220b03Cc2F5f8f38dC647636d71582a38365E72",
  "args": [
    "0x3eA91E8aAd470753165112fd54fDe16C7287d214",
    "0xe366577A6712591c2E6F76fdcb96A99Ac30a74c3"
  ],
  "solcInputHash": "0x6d722668d1c0e463c4bbd81e0866584ea341f263c9115c7ae6bf2b704b9fe38c",
  "bytecode": "0x60806040523480156200001157600080fd5b5060405162002d6d38038062002d6d833981016040819052620000349162000066565b600080546001600160a01b039384166001600160a01b03199182161790915560018054929093169116179055620000bd565b6000806040838503121562000079578182fd5b82516200008681620000a4565b60208401519092506200009981620000a4565b809150509250929050565b6001600160a01b0381168114620000ba57600080fd5b50565b612ca080620000cd6000396000f3fe6080604052600436106101355760003560e01c80634634c61f116100ab578063da35c6641161006f578063da35c6641461033b578063da95691a14610350578063ddf0b00914610370578063deaaa7cc14610390578063e23a9a52146103a5578063fe0d94c1146103d257610135565b80634634c61f146102ba57806379521b2c146102da5780637bdbe4d0146102fc578063b58131b014610311578063d33219b41461032657610135565b806320606b70116100fd57806320606b70146101fe57806324bc1a6414610213578063328dd982146102285780633932abb1146102585780633e4f49e61461026d57806340e58ee51461029a57610135565b8063013cf08b1461013a57806302a251a31461017857806306fdde031461019a57806315373e3d146101bc57806317977c61146101de575b600080fd5b34801561014657600080fd5b5061015a610155366004611ff2565b6103e5565b60405161016f99989796959493929190612b5b565b60405180910390f35b34801561018457600080fd5b5061018d61043e565b60405161016f919061242b565b3480156101a657600080fd5b506101af610445565b60405161016f91906124b6565b3480156101c857600080fd5b506101dc6101d7366004612036565b610477565b005b3480156101ea57600080fd5b5061018d6101f9366004611e61565b610486565b34801561020a57600080fd5b5061018d610498565b34801561021f57600080fd5b5061018d6104af565b34801561023457600080fd5b50610248610243366004611ff2565b6104be565b60405161016f94939291906123d4565b34801561026457600080fd5b5061018d61074d565b34801561027957600080fd5b5061028d610288366004611ff2565b610752565b60405161016f91906124a2565b3480156102a657600080fd5b506101dc6102b5366004611ff2565b6108dd565b3480156102c657600080fd5b506101dc6102d5366004612065565b610b31565b3480156102e657600080fd5b506102ef610cc7565b60405161016f919061248e565b34801561030857600080fd5b5061018d610cd6565b34801561031d57600080fd5b5061018d610cdb565b34801561033257600080fd5b506102ef610cea565b34801561034757600080fd5b5061018d610cf9565b34801561035c57600080fd5b5061018d61036b366004611e7c565b610cff565b34801561037c57600080fd5b506101dc61038b366004611ff2565b61111f565b34801561039c57600080fd5b5061018d61138d565b3480156103b157600080fd5b506103c56103c036600461200a565b611399565b60405161016f9190612a97565b6101dc6103e0366004611ff2565b611408565b6003602052600090815260409020805460018201546002830154600784015460088501546009860154600a870154600b9097015495966001600160a01b0390951695939492939192909160ff8082169161010090041689565b619d805b90565b60405180604001604052806016815260200175496e646578656420476f7665726e6f7220416c70686160501b81525081565b6104823383836115cd565b5050565b60046020526000908152604090205481565b6040516104a490612271565b604051809103902081565b6a211654585005212800000090565b6060806060806000600360008781526020019081526020016000209050806003018160040182600501836006018380548060200260200160405190810160405280929190818152602001828054801561054057602002820191906000526020600020905b81546001600160a01b03168152600190910190602001808311610522575b505050505093508280548060200260200160405190810160405280929190818152602001828054801561059257602002820191906000526020600020905b81548152602001906001019080831161057e575b5050505050925081805480602002602001604051908101604052809291908181526020016000905b828210156106655760008481526020908190208301805460408051601f60026000196101006001871615020190941693909304928301859004850281018501909152818152928301828280156106515780601f1061062657610100808354040283529160200191610651565b820191906000526020600020905b81548152906001019060200180831161063457829003601f168201915b5050505050815260200190600101906105ba565b50505050915080805480602002602001604051908101604052809291908181526020016000905b828210156107375760008481526020908190208301805460408051601f60026000196101006001871615020190941693909304928301859004850281018501909152818152928301828280156107235780601f106106f857610100808354040283529160200191610723565b820191906000526020600020905b81548152906001019060200180831161070657829003601f168201915b50505050508152602001906001019061068c565b5050505090509450945094509450509193509193565b600190565b600081600254101580156107665750600082115b61078b5760405162461bcd60e51b81526004016107829061259e565b60405180910390fd5b6000828152600360205260409020600b81015460ff16156107b05760029150506108d8565b806007015443116107c55760009150506108d8565b806008015443116107da5760019150506108d8565b80600a015481600901541115806107fb57506107f46104af565b8160090154105b1561080a5760039150506108d8565b600281015461081d5760049150506108d8565b600b810154610100900460ff16156108395760079150506108d8565b6002810154600054604080516360d143f160e11b815290516108c293926001600160a01b03169163c1a287e2916004808301926020929190829003018186803b15801561088557600080fd5b505afa158015610899573d6000803e3d6000fd5b505050506040513d601f19601f820116820180604052508101906108bd9190611f64565b611796565b42106108d25760069150506108d8565b60059150505b919050565b60006108e882610752565b905060078160078111156108f857fe5b14156109165760405162461bcd60e51b8152600401610782906129c8565b600082815260036020526040902061092c610cdb565b60018054838201546001600160a01b039182169263782d6fe192909116906109559043906117c2565b6040518363ffffffff1660e01b8152600401610972929190612305565b60206040518083038186803b15801561098a57600080fd5b505afa15801561099e573d6000803e3d6000fd5b505050506040513d601f19601f820116820180604052508101906109c291906120bb565b6001600160601b0316106109e85760405162461bcd60e51b815260040161078290612794565b600b8101805460ff1916600117905560005b6003820154811015610af4576000546003830180546001600160a01b039092169163591fcdfe919084908110610a2c57fe5b6000918252602090912001546004850180546001600160a01b039092169185908110610a5457fe5b9060005260206000200154856005018581548110610a6e57fe5b90600052602060002001866006018681548110610a8757fe5b9060005260206000200187600201546040518663ffffffff1660e01b8152600401610ab695949392919061239b565b600060405180830381600087803b158015610ad057600080fd5b505af1158015610ae4573d6000803e3d6000fd5b5050600190920191506109fa9050565b507f789cf55be980739dad1d0699b93b58e806b51c9d96619bfa8fe0a28abaa7b30c83604051610b24919061242b565b60405180910390a1505050565b6000604051610b3f90612271565b604080519182900382208282019091526016825275496e646578656420476f7665726e6f7220416c70686160501b6020909201919091527f6cf9d4f2471637c0704fc5b04ce7399829c7c32d2f83b57f6e789fd18cdea45e610b9f6117ea565b30604051602001610bb39493929190612434565b6040516020818303038152906040528051906020012090506000604051610bd9906122cc565b604051908190038120610bf29189908990602001612458565b60405160208183030381529060405280519060200120905060008282604051602001610c1f929190612256565b604051602081830303815290604052805190602001209050600060018288888860405160008152602001604052604051610c5c9493929190612470565b6020604051602081039080840390855afa158015610c7e573d6000803e3d6000fd5b5050604051601f1901519150506001600160a01b038116610cb15760405162461bcd60e51b8152600401610782906128f6565b610cbc818a8a6115cd565b505050505050505050565b6001546001600160a01b031681565b600a90565b6a084595161401484a00000090565b6000546001600160a01b031681565b60025481565b6000610d09610cdb565b600180546001600160a01b03169063782d6fe1903390610d2a9043906117c2565b6040518363ffffffff1660e01b8152600401610d47929190612305565b60206040518083038186803b158015610d5f57600080fd5b505afa158015610d73573d6000803e3d6000fd5b505050506040513d601f19601f82011682018060405250810190610d9791906120bb565b6001600160601b031611610dbd5760405162461bcd60e51b815260040161078290612899565b84518651148015610dcf575083518651145b8015610ddc575082518651145b610df85760405162461bcd60e51b81526004016107829061272a565b8551610e165760405162461bcd60e51b81526004016107829061284d565b610e1e610cd6565b86511115610e3e5760405162461bcd60e51b8152600401610782906126b7565b336000908152600460205260409020548015610ebb576000610e5f82610752565b90506001816007811115610e6f57fe5b1415610e8d5760405162461bcd60e51b815260040161078290612945565b6000816007811115610e9b57fe5b1415610eb95760405162461bcd60e51b815260040161078290612634565b505b6000610ec9436108bd61074d565b90506000610ed9826108bd61043e565b6002805460010190559050610eec61194d565b604051806101a001604052806002548152602001336001600160a01b03168152602001600081526020018b81526020018a815260200189815260200188815260200184815260200183815260200160008152602001600081526020016000151581526020016000151581525090508060036000836000015181526020019081526020016000206000820151816000015560208201518160010160006101000a8154816001600160a01b0302191690836001600160a01b03160217905550604082015181600201556060820151816003019080519060200190610fcf9291906119c2565b5060808201518051610feb916004840191602090910190611a27565b5060a08201518051611007916005840191602090910190611a6e565b5060c08201518051611023916006840191602090910190611ac7565b5060e082015181600701556101008201518160080155610120820151816009015561014082015181600a015561016082015181600b0160006101000a81548160ff02191690831515021790555061018082015181600b0160016101000a81548160ff02191690831515021790555090505080600001516004600083602001516001600160a01b03166001600160a01b03168152602001908152602001600020819055507f7d84a6263ae0d98d3329bd7b46bb4e8d6f98cd35a7adb45c274c8b7fd5ebd5e08160000151338c8c8c8c89898e60405161110999989796959493929190612ac5565b60405180910390a1519998505050505050505050565b600461112a82610752565b600781111561113557fe5b146111525760405162461bcd60e51b8152600401610782906124c9565b600081815260036020908152604080832083548251630d48571f60e31b815292519194936111ab9342936001600160a01b0390931692636a42b8f892600480840193919291829003018186803b15801561088557600080fd5b905060005b60038301548110156113535761134b8360030182815481106111ce57fe5b6000918252602090912001546004850180546001600160a01b0390921691849081106111f657fe5b906000526020600020015485600501848154811061121057fe5b600091825260209182902001805460408051601f600260001961010060018716150201909416939093049283018590048502810185019091528181529283018282801561129e5780601f106112735761010080835404028352916020019161129e565b820191906000526020600020905b81548152906001019060200180831161128157829003601f168201915b50505050508660060185815481106112b257fe5b600091825260209182902001805460408051601f60026000196101006001871615020190941693909304928301859004850281018501909152818152928301828280156113405780601f1061131557610100808354040283529160200191611340565b820191906000526020600020905b81548152906001019060200180831161132357829003601f168201915b5050505050866117ee565b6001016111b0565b50600282018190556040517f9a2e42fd6722813d69113e7d0079d3d940171428df7373df9c7f7617cfda289290610b249085908490612ba7565b6040516104a4906122cc565b6113a1611b20565b5060008281526003602090815260408083206001600160a01b0385168452600c018252918290208251606081018452905460ff80821615158352610100820416151592820192909252620100009091046001600160601b0316918101919091525b92915050565b600561141382610752565b600781111561141e57fe5b1461143b5760405162461bcd60e51b815260040161078290612533565b6000818152600360205260408120600b8101805461ff001916610100179055905b6003820154811015611591576000546004830180546001600160a01b0390921691630825f38f91908490811061148e57fe5b90600052602060002001548460030184815481106114a857fe5b6000918252602090912001546004860180546001600160a01b0390921691869081106114d057fe5b90600052602060002001548660050186815481106114ea57fe5b9060005260206000200187600601878154811061150357fe5b9060005260206000200188600201546040518763ffffffff1660e01b815260040161153295949392919061239b565b6000604051808303818588803b15801561154b57600080fd5b505af115801561155f573d6000803e3d6000fd5b50505050506040513d6000823e601f3d908101601f191682016040526115889190810190611f7c565b5060010161145c565b507f712ae1383f79ac853f8d882153778e0260ef8f03b504e2866e0593e04d2b291f826040516115c1919061242b565b60405180910390a15050565b60016115d883610752565b60078111156115e357fe5b146116005760405162461bcd60e51b815260040161078290612a1e565b60008281526003602090815260408083206001600160a01b0387168452600c8101909252909120805460ff16156116495760405162461bcd60e51b8152600401610782906125e7565b600154600783015460405163782d6fe160e01b81526000926001600160a01b03169163782d6fe19161167f918a91600401612305565b60206040518083038186803b15801561169757600080fd5b505afa1580156116ab573d6000803e3d6000fd5b505050506040513d601f19601f820116820180604052508101906116cf91906120bb565b905083156116f8576116ee8360090154826001600160601b0316611796565b6009840155611715565b61170f83600a0154826001600160601b0316611796565b600a8401555b8154600160ff199091161761ff00191661010085151502176dffffffffffffffffffffffff00001916620100006001600160601b038316021782556040517f877856338e13f63d0c36822ff0ef736b80934cd90574a3a5bc9262c39d217c469061178690889088908890869061231e565b60405180910390a1505050505050565b6000828201838110156117bb5760405162461bcd60e51b8152600401610782906126ff565b9392505050565b6000828211156117e45760405162461bcd60e51b815260040161078290612a68565b50900390565b4690565b6000546040516001600160a01b039091169063f2b065379061181c908890889088908890889060200161234f565b604051602081830303815290604052805190602001206040518263ffffffff1660e01b815260040161184e919061242b565b60206040518083038186803b15801561186657600080fd5b505afa15801561187a573d6000803e3d6000fd5b505050506040513d601f19601f8201168201806040525081019061189e9190611f48565b156118bb5760405162461bcd60e51b8152600401610782906127e3565b600054604051633a66f90160e01b81526001600160a01b0390911690633a66f901906118f3908890889088908890889060040161234f565b602060405180830381600087803b15801561190d57600080fd5b505af1158015611921573d6000803e3d6000fd5b505050506040513d601f19601f820116820180604052508101906119459190611f64565b505050505050565b604051806101a001604052806000815260200160006001600160a01b031681526020016000815260200160608152602001606081526020016060815260200160608152602001600081526020016000815260200160008152602001600081526020016000151581526020016000151581525090565b828054828255906000526020600020908101928215611a17579160200282015b82811115611a1757825182546001600160a01b0319166001600160a01b039091161782556020909201916001909101906119e2565b50611a23929150611b40565b5090565b828054828255906000526020600020908101928215611a62579160200282015b82811115611a62578251825591602001919060010190611a47565b50611a23929150611b64565b828054828255906000526020600020908101928215611abb579160200282015b82811115611abb5782518051611aab918491602090910190611b7e565b5091602001919060010190611a8e565b50611a23929150611beb565b828054828255906000526020600020908101928215611b14579160200282015b82811115611b145782518051611b04918491602090910190611b7e565b5091602001919060010190611ae7565b50611a23929150611c0e565b604080516060810182526000808252602082018190529181019190915290565b61044291905b80821115611a235780546001600160a01b0319168155600101611b46565b61044291905b80821115611a235760008155600101611b6a565b828054600181600116156101000203166002900490600052602060002090601f016020900481019282601f10611bbf57805160ff1916838001178555611a62565b82800160010185558215611a625791820182811115611a62578251825591602001919060010190611a47565b61044291905b80821115611a23576000611c058282611c31565b50600101611bf1565b61044291905b80821115611a23576000611c288282611c31565b50600101611c14565b50805460018160011615610100020316600290046000825580601f10611c575750611c75565b601f016020900490600052602060002090810190611c759190611b64565b50565b80356001600160a01b038116811461140257600080fd5b600082601f830112611c9f578081fd5b8135611cb2611cad82612bdc565b612bb5565b818152915060208083019084810181840286018201871015611cd357600080fd5b60005b84811015611cfa57611ce88883611c78565b84529282019290820190600101611cd6565b505050505092915050565b600082601f830112611d15578081fd5b8135611d23611cad82612bdc565b818152915060208083019084810160005b84811015611cfa57611d4b888484358a0101611e13565b84529282019290820190600101611d34565b600082601f830112611d6d578081fd5b8135611d7b611cad82612bdc565b818152915060208083019084810160005b84811015611cfa57611da3888484358a0101611e13565b84529282019290820190600101611d8c565b600082601f830112611dc5578081fd5b8135611dd3611cad82612bdc565b818152915060208083019084810181840286018201871015611df457600080fd5b60005b84811015611cfa57813584529282019290820190600101611df7565b600082601f830112611e23578081fd5b8135611e31611cad82612bfc565b9150808252836020828501011115611e4857600080fd5b8060208401602084013760009082016020015292915050565b600060208284031215611e72578081fd5b6117bb8383611c78565b600080600080600060a08688031215611e93578081fd5b853567ffffffffffffffff80821115611eaa578283fd5b611eb689838a01611c8f565b96506020880135915080821115611ecb578283fd5b611ed789838a01611db5565b95506040880135915080821115611eec578283fd5b611ef889838a01611d5d565b94506060880135915080821115611f0d578283fd5b611f1989838a01611d05565b93506080880135915080821115611f2e578283fd5b50611f3b88828901611e13565b9150509295509295909350565b600060208284031215611f59578081fd5b81516117bb81612c5c565b600060208284031215611f75578081fd5b5051919050565b600060208284031215611f8d578081fd5b815167ffffffffffffffff811115611fa3578182fd5b80830184601f820112611fb4578283fd5b80519150611fc4611cad83612bfc565b828152856020848401011115611fd8578384fd5b611fe9836020830160208501612c2c565b95945050505050565b600060208284031215612003578081fd5b5035919050565b6000806040838503121561201c578182fd5b8235915061202d8460208501611c78565b90509250929050565b60008060408385031215612048578182fd5b82359150602083013561205a81612c5c565b809150509250929050565b600080600080600060a0868803121561207c578283fd5b85359450602086013561208e81612c5c565b9350604086013560ff811681146120a3578384fd5b94979396509394606081013594506080013592915050565b6000602082840312156120cc578081fd5b81516001600160601b03811681146117bb578182fd5b6000815180845260208085019450808401835b8381101561211a5781516001600160a01b0316875295820195908201906001016120f5565b509495945050505050565b6000815180845260208085018081965082840281019150828601855b8581101561216b5782840389526121598483516121a7565b98850198935090840190600101612141565b5091979650505050505050565b6000815180845260208085019450808401835b8381101561211a5781518752958201959082019060010161218b565b600081518084526121bf816020860160208601612c2c565b601f01601f19169290920160200192915050565b600081546001808216600081146121f1576001811461220f5761224d565b60028304607f16865260ff198316602087015260408601935061224d565b6002830480875261221f86612c20565b60005b828110156122435781546020828b0101528482019150602081019050612222565b8801602001955050505b50505092915050565b61190160f01b81526002810192909252602282015260420190565b7f454950373132446f6d61696e28737472696e67206e616d652c75696e7432353681527f20636861696e49642c6164647265737320766572696679696e67436f6e74726160208201526263742960e81b604082015260430190565b7f42616c6c6f742875696e743235362070726f706f73616c49642c626f6f6c20738152667570706f72742960c81b602082015260270190565b6001600160a01b03929092168252602082015260400190565b6001600160a01b039490941684526020840192909252151560408301526001600160601b0316606082015260800190565b600060018060a01b038716825285602083015260a0604083015261237660a08301866121a7565b828103606084015261238881866121a7565b9150508260808301529695505050505050565b600060018060a01b038716825285602083015260a060408301526123c260a08301866121d3565b828103606084015261238881866121d3565b6000608082526123e760808301876120e2565b82810360208401526123f98187612178565b838103604085015261240b8187612125565b91505082810360608401526124208185612125565b979650505050505050565b90815260200190565b938452602084019290925260408301526001600160a01b0316606082015260800190565b92835260208301919091521515604082015260600190565b93845260ff9290921660208401526040830152606082015260800190565b6001600160a01b0391909116815260200190565b60208101600883106124b057fe5b91905290565b6000602082526117bb60208301846121a7565b60208082526044908201527f476f7665726e6f72416c7068613a3a71756575653a2070726f706f73616c206360408201527f616e206f6e6c79206265207175657565642069662069742069732073756363656060820152631959195960e21b608082015260a00190565b60208082526045908201527f476f7665726e6f72416c7068613a3a657865637574653a2070726f706f73616c60408201527f2063616e206f6e6c7920626520657865637574656420696620697420697320716060820152641d595d595960da1b608082015260a00190565b60208082526029908201527f476f7665726e6f72416c7068613a3a73746174653a20696e76616c69642070726040820152681bdc1bdcd85b081a5960ba1b606082015260800190565b6020808252602d908201527f476f7665726e6f72416c7068613a3a5f63617374566f74653a20766f7465722060408201526c185b1c9958591e481d9bdd1959609a1b606082015260800190565b60208082526059908201527f476f7665726e6f72416c7068613a3a70726f706f73653a206f6e65206c69766560408201527f2070726f706f73616c207065722070726f706f7365722c20666f756e6420616e60608201527f20616c72656164792070656e64696e672070726f706f73616c00000000000000608082015260a00190565b60208082526028908201527f476f7665726e6f72416c7068613a3a70726f706f73653a20746f6f206d616e7960408201526720616374696f6e7360c01b606082015260800190565b6020808252601190820152706164646974696f6e206f766572666c6f7760781b604082015260600190565b60208082526044908201527f476f7665726e6f72416c7068613a3a70726f706f73653a2070726f706f73616c60408201527f2066756e6374696f6e20696e666f726d6174696f6e206172697479206d69736d6060820152630c2e8c6d60e31b608082015260a00190565b6020808252602f908201527f476f7665726e6f72416c7068613a3a63616e63656c3a2070726f706f7365722060408201526e18589bdd99481d1a1c995cda1bdb19608a1b606082015260800190565b60208082526044908201527f476f7665726e6f72416c7068613a3a5f71756575654f725265766572743a207060408201527f726f706f73616c20616374696f6e20616c7265616479207175657565642061746060820152632065746160e01b608082015260a00190565b6020808252602c908201527f476f7665726e6f72416c7068613a3a70726f706f73653a206d7573742070726f60408201526b7669646520616374696f6e7360a01b606082015260800190565b6020808252603f908201527f476f7665726e6f72416c7068613a3a70726f706f73653a2070726f706f73657260408201527f20766f7465732062656c6f772070726f706f73616c207468726573686f6c6400606082015260800190565b6020808252602f908201527f476f7665726e6f72416c7068613a3a63617374566f746542795369673a20696e60408201526e76616c6964207369676e617475726560881b606082015260800190565b60208082526058908201527f476f7665726e6f72416c7068613a3a70726f706f73653a206f6e65206c69766560408201527f2070726f706f73616c207065722070726f706f7365722c20666f756e6420616e60608201527f20616c7265616479206163746976652070726f706f73616c0000000000000000608082015260a00190565b60208082526036908201527f476f7665726e6f72416c7068613a3a63616e63656c3a2063616e6e6f742063616040820152751b98d95b08195e1958dd5d1959081c1c9bdc1bdcd85b60521b606082015260800190565b6020808252602a908201527f476f7665726e6f72416c7068613a3a5f63617374566f74653a20766f74696e67604082015269081a5cc818db1bdcd95960b21b606082015260800190565b6020808252601590820152747375627472616374696f6e20756e646572666c6f7760581b604082015260600190565b8151151581526020808301511515908201526040918201516001600160601b03169181019190915260600190565b8981526001600160a01b038916602082015261012060408201819052600090612af08382018b6120e2565b8381036060850152612b02818b612178565b9150508281036080840152612b178189612125565b83810360a0850152612b298189612125565b9150508560c08401528460e0840152828103610100840152612b4b81856121a7565b9c9b505050505050505050505050565b9889526001600160a01b0397909716602089015260408801959095526060870193909352608086019190915260a085015260c0840152151560e083015215156101008201526101200190565b918252602082015260400190565b60405181810167ffffffffffffffff81118282101715612bd457600080fd5b604052919050565b600067ffffffffffffffff821115612bf2578081fd5b5060209081020190565b600067ffffffffffffffff821115612c12578081fd5b50601f01601f191660200190565b60009081526020902090565b60005b83811015612c47578181015183820152602001612c2f565b83811115612c56576000848401525b50505050565b8015158114611c7557600080fdfea26469706673582212204a5af9bcb0fb3abf3c45defad5cbc5a4d2c886f3b817597e2756dc39384e933c64736f6c63430006080033",
  "devdoc": {
    "methods": {}
  },
  "userdoc": {
    "methods": {
      "quorumVotes()": {
        "notice": "The number of votes in support of a proposal required in order for a quorum to be reached and for a vote to succeed"
      }
    }
  },
  "storageLayout": {
    "storage": [
      {
        "astId": 2855,
        "contract": "contracts/governance/GovernorAlpha.sol:GovernorAlpha",
        "label": "timelock",
        "offset": 0,
        "slot": "0",
        "type": "t_contract(TimelockInterface)3934"
      },
      {
        "astId": 2857,
        "contract": "contracts/governance/GovernorAlpha.sol:GovernorAlpha",
        "label": "ndx",
        "offset": 0,
        "slot": "1",
        "type": "t_contract(NdxInterface)3944"
      },
      {
        "astId": 2859,
        "contract": "contracts/governance/GovernorAlpha.sol:GovernorAlpha",
        "label": "proposalCount",
        "offset": 0,
        "slot": "2",
        "type": "t_uint256"
      },
      {
        "astId": 2914,
        "contract": "contracts/governance/GovernorAlpha.sol:GovernorAlpha",
        "label": "proposals",
        "offset": 0,
        "slot": "3",
        "type": "t_mapping(t_uint256,t_struct(Proposal)2894_storage)"
      },
      {
        "astId": 2918,
        "contract": "contracts/governance/GovernorAlpha.sol:GovernorAlpha",
        "label": "latestProposalIds",
        "offset": 0,
        "slot": "4",
        "type": "t_mapping(t_address,t_uint256)"
      }
    ],
    "types": {
      "t_address": {
        "encoding": "inplace",
        "label": "address",
        "numberOfBytes": "20"
      },
      "t_array(t_address)dyn_storage": {
        "base": "t_address",
        "encoding": "dynamic_array",
        "label": "address[]",
        "numberOfBytes": "32"
      },
      "t_array(t_bytes_storage)dyn_storage": {
        "base": "t_bytes_storage",
        "encoding": "dynamic_array",
        "label": "bytes[]",
        "numberOfBytes": "32"
      },
      "t_array(t_string_storage)dyn_storage": {
        "base": "t_string_storage",
        "encoding": "dynamic_array",
        "label": "string[]",
        "numberOfBytes": "32"
      },
      "t_array(t_uint256)dyn_storage": {
        "base": "t_uint256",
        "encoding": "dynamic_array",
        "label": "uint256[]",
        "numberOfBytes": "32"
      },
      "t_bool": {
        "encoding": "inplace",
        "label": "bool",
        "numberOfBytes": "1"
      },
      "t_bytes_storage": {
        "encoding": "bytes",
        "label": "bytes",
        "numberOfBytes": "32"
      },
      "t_contract(NdxInterface)3944": {
        "encoding": "inplace",
        "label": "contract NdxInterface",
        "numberOfBytes": "20"
      },
      "t_contract(TimelockInterface)3934": {
        "encoding": "inplace",
        "label": "contract TimelockInterface",
        "numberOfBytes": "20"
      },
      "t_mapping(t_address,t_struct(Receipt)2901_storage)": {
        "encoding": "mapping",
        "key": "t_address",
        "label": "mapping(address => struct GovernorAlpha.Receipt)",
        "numberOfBytes": "32",
        "value": "t_struct(Receipt)2901_storage"
      },
      "t_mapping(t_address,t_uint256)": {
        "encoding": "mapping",
        "key": "t_address",
        "label": "mapping(address => uint256)",
        "numberOfBytes": "32",
        "value": "t_uint256"
      },
      "t_mapping(t_uint256,t_struct(Proposal)2894_storage)": {
        "encoding": "mapping",
        "key": "t_uint256",
        "label": "mapping(uint256 => struct GovernorAlpha.Proposal)",
        "numberOfBytes": "32",
        "value": "t_struct(Proposal)2894_storage"
      },
      "t_string_storage": {
        "encoding": "bytes",
        "label": "string",
        "numberOfBytes": "32"
      },
      "t_struct(Proposal)2894_storage": {
        "encoding": "inplace",
        "label": "struct GovernorAlpha.Proposal",
        "members": [
          {
            "astId": 2861,
            "contract": "contracts/governance/GovernorAlpha.sol:GovernorAlpha",
            "label": "id",
            "offset": 0,
            "slot": "0",
            "type": "t_uint256"
          },
          {
            "astId": 2863,
            "contract": "contracts/governance/GovernorAlpha.sol:GovernorAlpha",
            "label": "proposer",
            "offset": 0,
            "slot": "1",
            "type": "t_address"
          },
          {
            "astId": 2865,
            "contract": "contracts/governance/GovernorAlpha.sol:GovernorAlpha",
            "label": "eta",
            "offset": 0,
            "slot": "2",
            "type": "t_uint256"
          },
          {
            "astId": 2868,
            "contract": "contracts/governance/GovernorAlpha.sol:GovernorAlpha",
            "label": "targets",
            "offset": 0,
            "slot": "3",
            "type": "t_array(t_address)dyn_storage"
          },
          {
            "astId": 2871,
            "contract": "contracts/governance/GovernorAlpha.sol:GovernorAlpha",
            "label": "values",
            "offset": 0,
            "slot": "4",
            "type": "t_array(t_uint256)dyn_storage"
          },
          {
            "astId": 2874,
            "contract": "contracts/governance/GovernorAlpha.sol:GovernorAlpha",
            "label": "signatures",
            "offset": 0,
            "slot": "5",
            "type": "t_array(t_string_storage)dyn_storage"
          },
          {
            "astId": 2877,
            "contract": "contracts/governance/GovernorAlpha.sol:GovernorAlpha",
            "label": "calldatas",
            "offset": 0,
            "slot": "6",
            "type": "t_array(t_bytes_storage)dyn_storage"
          },
          {
            "astId": 2879,
            "contract": "contracts/governance/GovernorAlpha.sol:GovernorAlpha",
            "label": "startBlock",
            "offset": 0,
            "slot": "7",
            "type": "t_uint256"
          },
          {
            "astId": 2881,
            "contract": "contracts/governance/GovernorAlpha.sol:GovernorAlpha",
            "label": "endBlock",
            "offset": 0,
            "slot": "8",
            "type": "t_uint256"
          },
          {
            "astId": 2883,
            "contract": "contracts/governance/GovernorAlpha.sol:GovernorAlpha",
            "label": "forVotes",
            "offset": 0,
            "slot": "9",
            "type": "t_uint256"
          },
          {
            "astId": 2885,
            "contract": "contracts/governance/GovernorAlpha.sol:GovernorAlpha",
            "label": "againstVotes",
            "offset": 0,
            "slot": "10",
            "type": "t_uint256"
          },
          {
            "astId": 2887,
            "contract": "contracts/governance/GovernorAlpha.sol:GovernorAlpha",
            "label": "canceled",
            "offset": 0,
            "slot": "11",
            "type": "t_bool"
          },
          {
            "astId": 2889,
            "contract": "contracts/governance/GovernorAlpha.sol:GovernorAlpha",
            "label": "executed",
            "offset": 1,
            "slot": "11",
            "type": "t_bool"
          },
          {
            "astId": 2893,
            "contract": "contracts/governance/GovernorAlpha.sol:GovernorAlpha",
            "label": "receipts",
            "offset": 0,
            "slot": "12",
            "type": "t_mapping(t_address,t_struct(Receipt)2901_storage)"
          }
        ],
        "numberOfBytes": "416"
      },
      "t_struct(Receipt)2901_storage": {
        "encoding": "inplace",
        "label": "struct GovernorAlpha.Receipt",
        "members": [
          {
            "astId": 2896,
            "contract": "contracts/governance/GovernorAlpha.sol:GovernorAlpha",
            "label": "hasVoted",
            "offset": 0,
            "slot": "0",
            "type": "t_bool"
          },
          {
            "astId": 2898,
            "contract": "contracts/governance/GovernorAlpha.sol:GovernorAlpha",
            "label": "support",
            "offset": 1,
            "slot": "0",
            "type": "t_bool"
          },
          {
            "astId": 2900,
            "contract": "contracts/governance/GovernorAlpha.sol:GovernorAlpha",
            "label": "votes",
            "offset": 2,
            "slot": "0",
            "type": "t_uint96"
          }
        ],
        "numberOfBytes": "32"
      },
      "t_uint256": {
        "encoding": "inplace",
        "label": "uint256",
        "numberOfBytes": "32"
      },
      "t_uint96": {
        "encoding": "inplace",
        "label": "uint96",
        "numberOfBytes": "12"
      }
    }
  },
  "gasEstimates": {
    "creation": {
      "codeDepositCost": "2284800",
      "executionCost": "infinite",
      "totalCost": "infinite"
    },
    "external": {
      "BALLOT_TYPEHASH()": "448",
      "DOMAIN_TYPEHASH()": "407",
      "cancel(uint256)": "infinite",
      "castVote(uint256,bool)": "infinite",
      "castVoteBySig(uint256,bool,uint8,bytes32,bytes32)": "infinite",
      "execute(uint256)": "infinite",
      "getActions(uint256)": "infinite",
      "getReceipt(uint256,address)": "infinite",
      "latestProposalIds(address)": "1369",
      "name()": "infinite",
      "ndx()": "1115",
      "proposalCount()": "1050",
      "proposalMaxOperations()": "295",
      "proposalThreshold()": "317",
      "proposals(uint256)": "7160",
      "propose(address[],uint256[],string[],bytes[],string)": "infinite",
      "queue(uint256)": "infinite",
      "quorumVotes()": "273",
      "state(uint256)": "infinite",
      "timelock()": "1181",
      "votingDelay()": "317",
      "votingPeriod()": "275"
    },
    "internal": {
      "_castVote(address,uint256,bool)": "infinite",
      "_queueOrRevert(address,uint256,string memory,bytes memory,uint256)": "infinite",
      "add256(uint256,uint256)": "infinite",
      "getChainId()": "14",
      "sub256(uint256,uint256)": "infinite"
    }
  }
}