{
  "address": "0x6E64317e50a38F9A06D902978E283295AF9ED6f8",
  "abi": [
    {
      "inputs": [
        {
          "internalType": "address",
          "name": "timelock_",
          "type": "address"
        },
        {
          "internalType": "address",
          "name": "ndx_",
          "type": "address"
        }
      ],
      "stateMutability": "nonpayable",
      "type": "constructor"
    },
    {
      "anonymous": false,
      "inputs": [
        {
          "indexed": false,
          "internalType": "uint256",
          "name": "id",
          "type": "uint256"
        }
      ],
      "name": "ProposalCanceled",
      "type": "event"
    },
    {
      "anonymous": false,
      "inputs": [
        {
          "indexed": false,
          "internalType": "uint256",
          "name": "id",
          "type": "uint256"
        },
        {
          "indexed": false,
          "internalType": "address",
          "name": "proposer",
          "type": "address"
        },
        {
          "indexed": false,
          "internalType": "address[]",
          "name": "targets",
          "type": "address[]"
        },
        {
          "indexed": false,
          "internalType": "uint256[]",
          "name": "values",
          "type": "uint256[]"
        },
        {
          "indexed": false,
          "internalType": "string[]",
          "name": "signatures",
          "type": "string[]"
        },
        {
          "indexed": false,
          "internalType": "bytes[]",
          "name": "calldatas",
          "type": "bytes[]"
        },
        {
          "indexed": false,
          "internalType": "uint256",
          "name": "startBlock",
          "type": "uint256"
        },
        {
          "indexed": false,
          "internalType": "uint256",
          "name": "endBlock",
          "type": "uint256"
        },
        {
          "indexed": false,
          "internalType": "string",
          "name": "description",
          "type": "string"
        }
      ],
      "name": "ProposalCreated",
      "type": "event"
    },
    {
      "anonymous": false,
      "inputs": [
        {
          "indexed": false,
          "internalType": "uint256",
          "name": "id",
          "type": "uint256"
        }
      ],
      "name": "ProposalExecuted",
      "type": "event"
    },
    {
      "anonymous": false,
      "inputs": [
        {
          "indexed": false,
          "internalType": "uint256",
          "name": "id",
          "type": "uint256"
        },
        {
          "indexed": false,
          "internalType": "uint256",
          "name": "eta",
          "type": "uint256"
        }
      ],
      "name": "ProposalQueued",
      "type": "event"
    },
    {
      "anonymous": false,
      "inputs": [
        {
          "indexed": false,
          "internalType": "address",
          "name": "voter",
          "type": "address"
        },
        {
          "indexed": false,
          "internalType": "uint256",
          "name": "proposalId",
          "type": "uint256"
        },
        {
          "indexed": false,
          "internalType": "bool",
          "name": "support",
          "type": "bool"
        },
        {
          "indexed": false,
          "internalType": "uint256",
          "name": "votes",
          "type": "uint256"
        }
      ],
      "name": "VoteCast",
      "type": "event"
    },
    {
      "inputs": [],
      "name": "BALLOT_TYPEHASH",
      "outputs": [
        {
          "internalType": "bytes32",
          "name": "",
          "type": "bytes32"
        }
      ],
      "stateMutability": "view",
      "type": "function"
    },
    {
      "inputs": [],
      "name": "DOMAIN_TYPEHASH",
      "outputs": [
        {
          "internalType": "bytes32",
          "name": "",
          "type": "bytes32"
        }
      ],
      "stateMutability": "view",
      "type": "function"
    },
    {
      "inputs": [
        {
          "internalType": "uint256",
          "name": "proposalId",
          "type": "uint256"
        }
      ],
      "name": "cancel",
      "outputs": [],
      "stateMutability": "nonpayable",
      "type": "function"
    },
    {
      "inputs": [
        {
          "internalType": "uint256",
          "name": "proposalId",
          "type": "uint256"
        },
        {
          "internalType": "bool",
          "name": "support",
          "type": "bool"
        }
      ],
      "name": "castVote",
      "outputs": [],
      "stateMutability": "nonpayable",
      "type": "function"
    },
    {
      "inputs": [
        {
          "internalType": "uint256",
          "name": "proposalId",
          "type": "uint256"
        },
        {
          "internalType": "bool",
          "name": "support",
          "type": "bool"
        },
        {
          "internalType": "uint8",
          "name": "v",
          "type": "uint8"
        },
        {
          "internalType": "bytes32",
          "name": "r",
          "type": "bytes32"
        },
        {
          "internalType": "bytes32",
          "name": "s",
          "type": "bytes32"
        }
      ],
      "name": "castVoteBySig",
      "outputs": [],
      "stateMutability": "nonpayable",
      "type": "function"
    },
    {
      "inputs": [
        {
          "internalType": "uint256",
          "name": "proposalId",
          "type": "uint256"
        }
      ],
      "name": "execute",
      "outputs": [],
      "stateMutability": "payable",
      "type": "function"
    },
    {
      "inputs": [
        {
          "internalType": "uint256",
          "name": "proposalId",
          "type": "uint256"
        }
      ],
      "name": "getActions",
      "outputs": [
        {
          "internalType": "address[]",
          "name": "targets",
          "type": "address[]"
        },
        {
          "internalType": "uint256[]",
          "name": "values",
          "type": "uint256[]"
        },
        {
          "internalType": "string[]",
          "name": "signatures",
          "type": "string[]"
        },
        {
          "internalType": "bytes[]",
          "name": "calldatas",
          "type": "bytes[]"
        }
      ],
      "stateMutability": "view",
      "type": "function"
    },
    {
      "inputs": [
        {
          "internalType": "uint256",
          "name": "proposalId",
          "type": "uint256"
        },
        {
          "internalType": "address",
          "name": "voter",
          "type": "address"
        }
      ],
      "name": "getReceipt",
      "outputs": [
        {
          "components": [
            {
              "internalType": "bool",
              "name": "hasVoted",
              "type": "bool"
            },
            {
              "internalType": "bool",
              "name": "support",
              "type": "bool"
            },
            {
              "internalType": "uint96",
              "name": "votes",
              "type": "uint96"
            }
          ],
          "internalType": "struct GovernorAlpha.Receipt",
          "name": "",
          "type": "tuple"
        }
      ],
      "stateMutability": "view",
      "type": "function"
    },
    {
      "inputs": [
        {
          "internalType": "address",
          "name": "",
          "type": "address"
        }
      ],
      "name": "latestProposalIds",
      "outputs": [
        {
          "internalType": "uint256",
          "name": "",
          "type": "uint256"
        }
      ],
      "stateMutability": "view",
      "type": "function"
    },
    {
      "inputs": [],
      "name": "name",
      "outputs": [
        {
          "internalType": "string",
          "name": "",
          "type": "string"
        }
      ],
      "stateMutability": "view",
      "type": "function"
    },
    {
      "inputs": [],
      "name": "ndx",
      "outputs": [
        {
          "internalType": "contract NdxInterface",
          "name": "",
          "type": "address"
        }
      ],
      "stateMutability": "view",
      "type": "function"
    },
    {
      "inputs": [],
      "name": "proposalCount",
      "outputs": [
        {
          "internalType": "uint256",
          "name": "",
          "type": "uint256"
        }
      ],
      "stateMutability": "view",
      "type": "function"
    },
    {
      "inputs": [],
      "name": "proposalMaxOperations",
      "outputs": [
        {
          "internalType": "uint256",
          "name": "",
          "type": "uint256"
        }
      ],
      "stateMutability": "pure",
      "type": "function"
    },
    {
      "inputs": [],
      "name": "proposalThreshold",
      "outputs": [
        {
          "internalType": "uint256",
          "name": "",
          "type": "uint256"
        }
      ],
      "stateMutability": "pure",
      "type": "function"
    },
    {
      "inputs": [
        {
          "internalType": "uint256",
          "name": "",
          "type": "uint256"
        }
      ],
      "name": "proposals",
      "outputs": [
        {
          "internalType": "uint256",
          "name": "id",
          "type": "uint256"
        },
        {
          "internalType": "address",
          "name": "proposer",
          "type": "address"
        },
        {
          "internalType": "uint256",
          "name": "eta",
          "type": "uint256"
        },
        {
          "internalType": "uint256",
          "name": "startBlock",
          "type": "uint256"
        },
        {
          "internalType": "uint256",
          "name": "endBlock",
          "type": "uint256"
        },
        {
          "internalType": "uint256",
          "name": "forVotes",
          "type": "uint256"
        },
        {
          "internalType": "uint256",
          "name": "againstVotes",
          "type": "uint256"
        },
        {
          "internalType": "bool",
          "name": "canceled",
          "type": "bool"
        },
        {
          "internalType": "bool",
          "name": "executed",
          "type": "bool"
        }
      ],
      "stateMutability": "view",
      "type": "function"
    },
    {
      "inputs": [
        {
          "internalType": "address[]",
          "name": "targets",
          "type": "address[]"
        },
        {
          "internalType": "uint256[]",
          "name": "values",
          "type": "uint256[]"
        },
        {
          "internalType": "string[]",
          "name": "signatures",
          "type": "string[]"
        },
        {
          "internalType": "bytes[]",
          "name": "calldatas",
          "type": "bytes[]"
        },
        {
          "internalType": "string",
          "name": "description",
          "type": "string"
        }
      ],
      "name": "propose",
      "outputs": [
        {
          "internalType": "uint256",
          "name": "",
          "type": "uint256"
        }
      ],
      "stateMutability": "nonpayable",
      "type": "function"
    },
    {
      "inputs": [
        {
          "internalType": "uint256",
          "name": "proposalId",
          "type": "uint256"
        }
      ],
      "name": "queue",
      "outputs": [],
      "stateMutability": "nonpayable",
      "type": "function"
    },
    {
      "inputs": [],
      "name": "quorumVotes",
      "outputs": [
        {
          "internalType": "uint256",
          "name": "",
          "type": "uint256"
        }
      ],
      "stateMutability": "pure",
      "type": "function"
    },
    {
      "inputs": [
        {
          "internalType": "uint256",
          "name": "proposalId",
          "type": "uint256"
        }
      ],
      "name": "state",
      "outputs": [
        {
          "internalType": "enum GovernorAlpha.ProposalState",
          "name": "",
          "type": "uint8"
        }
      ],
      "stateMutability": "view",
      "type": "function"
    },
    {
      "inputs": [],
      "name": "timelock",
      "outputs": [
        {
          "internalType": "contract ITimelock",
          "name": "",
          "type": "address"
        }
      ],
      "stateMutability": "view",
      "type": "function"
    },
    {
      "inputs": [],
      "name": "votingDelay",
      "outputs": [
        {
          "internalType": "uint256",
          "name": "",
          "type": "uint256"
        }
      ],
      "stateMutability": "pure",
      "type": "function"
    },
    {
      "inputs": [],
      "name": "votingPeriod",
      "outputs": [
        {
          "internalType": "uint256",
          "name": "",
          "type": "uint256"
        }
      ],
      "stateMutability": "pure",
      "type": "function"
    }
  ],
  "transactionHash": "0xb8f1eab7de018cd86099ca55140ab777d79c995a13f9a63dde0e3a4c34eb175a",
  "args": [
    "0x4CD30bdfC1317b29B7c4DB0eC5acF4d6d77f7f50",
    "0x2342084BaCed2081093de5729de81FcB9DE77CA6"
  ],
  "solcInputHash": "0x43fcf3f647fd4ffb0094f85b511cb9ebe843a0124c6ec39453b1b9fa8626fe20",
  "bytecode": "0x60806040523480156200001157600080fd5b5060405162002d0c38038062002d0c833981016040819052620000349162000066565b600080546001600160a01b039384166001600160a01b03199182161790915560018054929093169116179055620000bd565b6000806040838503121562000079578182fd5b82516200008681620000a4565b60208401519092506200009981620000a4565b809150509250929050565b6001600160a01b0381168114620000ba57600080fd5b50565b612c3f80620000cd6000396000f3fe6080604052600436106101355760003560e01c80634634c61f116100ab578063da35c6641161006f578063da35c6641461033b578063da95691a14610350578063ddf0b00914610370578063deaaa7cc14610390578063e23a9a52146103a5578063fe0d94c1146103d257610135565b80634634c61f146102ba57806379521b2c146102da5780637bdbe4d0146102fc578063b58131b014610311578063d33219b41461032657610135565b806320606b70116100fd57806320606b70146101fe57806324bc1a6414610213578063328dd982146102285780633932abb1146102585780633e4f49e61461026d57806340e58ee51461029a57610135565b8063013cf08b1461013a57806302a251a31461017857806306fdde031461019a57806315373e3d146101bc57806317977c61146101de575b600080fd5b34801561014657600080fd5b5061015a61015536600461201f565b6103e5565b60405161016f99989796959493929190612afa565b60405180910390f35b34801561018457600080fd5b5061018d61043e565b60405161016f91906123c8565b3480156101a657600080fd5b506101af610444565b60405161016f9190612453565b3480156101c857600080fd5b506101dc6101d7366004612063565b610476565b005b3480156101ea57600080fd5b5061018d6101f9366004611e91565b610485565b34801561020a57600080fd5b5061018d610497565b34801561021f57600080fd5b5061018d6104bb565b34801561023457600080fd5b5061024861024336600461201f565b6104c9565b60405161016f9493929190612370565b34801561026457600080fd5b5061018d610758565b34801561027957600080fd5b5061028d61028836600461201f565b61075d565b60405161016f919061243f565b3480156102a657600080fd5b506101dc6102b536600461201f565b6108f0565b3480156102c657600080fd5b506101dc6102d5366004612092565b610b44565b3480156102e657600080fd5b506102ef610cf6565b60405161016f919061242b565b34801561030857600080fd5b5061018d610d05565b34801561031d57600080fd5b5061018d610d0a565b34801561033257600080fd5b506102ef610d18565b34801561034757600080fd5b5061018d610d27565b34801561035c57600080fd5b5061018d61036b366004611eac565b610d2d565b34801561037c57600080fd5b506101dc61038b36600461201f565b61114d565b34801561039c57600080fd5b5061018d6113bb565b3480156103b157600080fd5b506103c56103c0366004612037565b6113df565b60405161016f9190612a34565b6101dc6103e036600461201f565b61144e565b6003602052600090815260409020805460018201546002830154600784015460088501546009860154600a870154600b9097015495966001600160a01b0390951695939492939192909160ff8082169161010090041689565b619d8090565b60405180604001604052806016815260200175496e646578656420476f7665726e6f7220416c70686160501b81525081565b610481338383611613565b5050565b60046020526000908152604090205481565b7f8cad95687ba82c2ce50e74f7b754645e5117c3a5bec8151c0726d5857980a86681565b6954b40b1f852bda00000090565b6060806060806000600360008781526020019081526020016000209050806003018160040182600501836006018380548060200260200160405190810160405280929190818152602001828054801561054b57602002820191906000526020600020905b81546001600160a01b0316815260019091019060200180831161052d575b505050505093508280548060200260200160405190810160405280929190818152602001828054801561059d57602002820191906000526020600020905b815481526020019060010190808311610589575b5050505050925081805480602002602001604051908101604052809291908181526020016000905b828210156106705760008481526020908190208301805460408051601f600260001961010060018716150201909416939093049283018590048502810185019091528181529283018282801561065c5780601f106106315761010080835404028352916020019161065c565b820191906000526020600020905b81548152906001019060200180831161063f57829003601f168201915b5050505050815260200190600101906105c5565b50505050915080805480602002602001604051908101604052809291908181526020016000905b828210156107425760008481526020908190208301805460408051601f600260001961010060018716150201909416939093049283018590048502810185019091528181529283018282801561072e5780601f106107035761010080835404028352916020019161072e565b820191906000526020600020905b81548152906001019060200180831161071157829003601f168201915b505050505081526020019060010190610697565b5050505090509450945094509450509193509193565b600190565b600081600254101580156107715750600082115b6107965760405162461bcd60e51b815260040161078d9061253b565b60405180910390fd5b6000828152600360205260409020600b81015460ff16156107bb5760029150506108eb565b806007015443116107d05760009150506108eb565b806008015443116107e55760019150506108eb565b80600a0154816009015411158061080657506107ff6104bb565b8160090154105b156108155760039150506108eb565b60028101546108285760049150506108eb565b600b810154610100900460ff16156108445760079150506108eb565b6108d5816002015460008054906101000a90046001600160a01b03166001600160a01b031663c1a287e26040518163ffffffff1660e01b815260040160206040518083038186803b15801561089857600080fd5b505afa1580156108ac573d6000803e3d6000fd5b505050506040513d601f19601f820116820180604052508101906108d09190611f94565b6117dc565b42106108e55760069150506108eb565b60059150505b919050565b60006108fb8261075d565b9050600781600781111561090b57fe5b14156109295760405162461bcd60e51b815260040161078d90612965565b600082815260036020526040902061093f610d0a565b60018054838201546001600160a01b039182169263782d6fe19290911690610968904390611808565b6040518363ffffffff1660e01b81526004016109859291906122a1565b60206040518083038186803b15801561099d57600080fd5b505afa1580156109b1573d6000803e3d6000fd5b505050506040513d601f19601f820116820180604052508101906109d591906120e8565b6001600160601b0316106109fb5760405162461bcd60e51b815260040161078d90612731565b600b8101805460ff1916600117905560005b6003820154811015610b07576000546003830180546001600160a01b039092169163591fcdfe919084908110610a3f57fe5b6000918252602090912001546004850180546001600160a01b039092169185908110610a6757fe5b9060005260206000200154856005018581548110610a8157fe5b90600052602060002001866006018681548110610a9a57fe5b9060005260206000200187600201546040518663ffffffff1660e01b8152600401610ac9959493929190612337565b600060405180830381600087803b158015610ae357600080fd5b505af1158015610af7573d6000803e3d6000fd5b505060019092019150610a0d9050565b507f789cf55be980739dad1d0699b93b58e806b51c9d96619bfa8fe0a28abaa7b30c83604051610b3791906123c8565b60405180910390a1505050565b604080518082019091526016815275496e646578656420476f7665726e6f7220416c70686160501b60209091015260007f8cad95687ba82c2ce50e74f7b754645e5117c3a5bec8151c0726d5857980a8667f6cf9d4f2471637c0704fc5b04ce7399829c7c32d2f83b57f6e789fd18cdea45e610bbe611830565b30604051602001610bd294939291906123d1565b60405160208183030381529060405280519060200120905060007f8e25870c07e0b0b3884c78da52790939a455c275406c44ae8b434b692fb916ee8787604051602001610c21939291906123f5565b60405160208183030381529060405280519060200120905060008282604051602001610c4e929190612286565b604051602081830303815290604052805190602001209050600060018288888860405160008152602001604052604051610c8b949392919061240d565b6020604051602081039080840390855afa158015610cad573d6000803e3d6000fd5b5050604051601f1901519150506001600160a01b038116610ce05760405162461bcd60e51b815260040161078d90612893565b610ceb818a8a611613565b505050505050505050565b6001546001600160a01b031681565b600a90565b69152d02c7e14af680000090565b6000546001600160a01b031681565b60025481565b6000610d37610d0a565b600180546001600160a01b03169063782d6fe1903390610d58904390611808565b6040518363ffffffff1660e01b8152600401610d759291906122a1565b60206040518083038186803b158015610d8d57600080fd5b505afa158015610da1573d6000803e3d6000fd5b505050506040513d601f19601f82011682018060405250810190610dc591906120e8565b6001600160601b031611610deb5760405162461bcd60e51b815260040161078d90612836565b84518651148015610dfd575083518651145b8015610e0a575082518651145b610e265760405162461bcd60e51b815260040161078d906126c7565b8551610e445760405162461bcd60e51b815260040161078d906127ea565b610e4c610d05565b86511115610e6c5760405162461bcd60e51b815260040161078d90612654565b336000908152600460205260409020548015610ee9576000610e8d8261075d565b90506001816007811115610e9d57fe5b1415610ebb5760405162461bcd60e51b815260040161078d906128e2565b6000816007811115610ec957fe5b1415610ee75760405162461bcd60e51b815260040161078d906125d1565b505b6000610ef7436108d0610758565b90506000610f07826108d061043e565b6002805460010190559050610f1a611993565b604051806101a001604052806002548152602001336001600160a01b03168152602001600081526020018b81526020018a815260200189815260200188815260200184815260200183815260200160008152602001600081526020016000151581526020016000151581525090508060036000836000015181526020019081526020016000206000820151816000015560208201518160010160006101000a8154816001600160a01b0302191690836001600160a01b03160217905550604082015181600201556060820151816003019080519060200190610ffd929190611a08565b5060808201518051611019916004840191602090910190611a6d565b5060a08201518051611035916005840191602090910190611ab4565b5060c08201518051611051916006840191602090910190611b0d565b5060e082015181600701556101008201518160080155610120820151816009015561014082015181600a015561016082015181600b0160006101000a81548160ff02191690831515021790555061018082015181600b0160016101000a81548160ff02191690831515021790555090505080600001516004600083602001516001600160a01b03166001600160a01b03168152602001908152602001600020819055507f7d84a6263ae0d98d3329bd7b46bb4e8d6f98cd35a7adb45c274c8b7fd5ebd5e08160000151338c8c8c8c89898e60405161113799989796959493929190612a62565b60405180910390a1519998505050505050505050565b60046111588261075d565b600781111561116357fe5b146111805760405162461bcd60e51b815260040161078d90612466565b600081815260036020908152604080832083548251630d48571f60e31b815292519194936111d99342936001600160a01b0390931692636a42b8f892600480840193919291829003018186803b15801561089857600080fd5b905060005b6003830154811015611381576113798360030182815481106111fc57fe5b6000918252602090912001546004850180546001600160a01b03909216918490811061122457fe5b906000526020600020015485600501848154811061123e57fe5b600091825260209182902001805460408051601f60026000196101006001871615020190941693909304928301859004850281018501909152818152928301828280156112cc5780601f106112a1576101008083540402835291602001916112cc565b820191906000526020600020905b8154815290600101906020018083116112af57829003601f168201915b50505050508660060185815481106112e057fe5b600091825260209182902001805460408051601f600260001961010060018716150201909416939093049283018590048502810185019091528181529283018282801561136e5780601f106113435761010080835404028352916020019161136e565b820191906000526020600020905b81548152906001019060200180831161135157829003601f168201915b505050505086611834565b6001016111de565b50600282018190556040517f9a2e42fd6722813d69113e7d0079d3d940171428df7373df9c7f7617cfda289290610b379085908490612b46565b7f8e25870c07e0b0b3884c78da52790939a455c275406c44ae8b434b692fb916ee81565b6113e7611b66565b5060008281526003602090815260408083206001600160a01b0385168452600c018252918290208251606081018452905460ff80821615158352610100820416151592820192909252620100009091046001600160601b0316918101919091525b92915050565b60056114598261075d565b600781111561146457fe5b146114815760405162461bcd60e51b815260040161078d906124d0565b6000818152600360205260408120600b8101805461ff001916610100179055905b60038201548110156115d7576000546004830180546001600160a01b0390921691630825f38f9190849081106114d457fe5b90600052602060002001548460030184815481106114ee57fe5b6000918252602090912001546004860180546001600160a01b03909216918690811061151657fe5b906000526020600020015486600501868154811061153057fe5b9060005260206000200187600601878154811061154957fe5b9060005260206000200188600201546040518763ffffffff1660e01b8152600401611578959493929190612337565b6000604051808303818588803b15801561159157600080fd5b505af11580156115a5573d6000803e3d6000fd5b50505050506040513d6000823e601f3d908101601f191682016040526115ce9190810190611fac565b506001016114a2565b507f712ae1383f79ac853f8d882153778e0260ef8f03b504e2866e0593e04d2b291f8260405161160791906123c8565b60405180910390a15050565b600161161e8361075d565b600781111561162957fe5b146116465760405162461bcd60e51b815260040161078d906129bb565b60008281526003602090815260408083206001600160a01b0387168452600c8101909252909120805460ff161561168f5760405162461bcd60e51b815260040161078d90612584565b600154600783015460405163782d6fe160e01b81526000926001600160a01b03169163782d6fe1916116c5918a916004016122a1565b60206040518083038186803b1580156116dd57600080fd5b505afa1580156116f1573d6000803e3d6000fd5b505050506040513d601f19601f8201168201806040525081019061171591906120e8565b9050831561173e576117348360090154826001600160601b03166117dc565b600984015561175b565b61175583600a0154826001600160601b03166117dc565b600a8401555b8154600160ff199091161761ff00191661010085151502176dffffffffffffffffffffffff00001916620100006001600160601b038316021782556040517f877856338e13f63d0c36822ff0ef736b80934cd90574a3a5bc9262c39d217c46906117cc9088908890889086906122ba565b60405180910390a1505050505050565b6000828201838110156118015760405162461bcd60e51b815260040161078d9061269c565b9392505050565b60008282111561182a5760405162461bcd60e51b815260040161078d90612a05565b50900390565b4690565b6000546040516001600160a01b039091169063f2b065379061186290889088908890889088906020016122eb565b604051602081830303815290604052805190602001206040518263ffffffff1660e01b815260040161189491906123c8565b60206040518083038186803b1580156118ac57600080fd5b505afa1580156118c0573d6000803e3d6000fd5b505050506040513d601f19601f820116820180604052508101906118e49190611f78565b156119015760405162461bcd60e51b815260040161078d90612780565b600054604051633a66f90160e01b81526001600160a01b0390911690633a66f9019061193990889088908890889088906004016122eb565b602060405180830381600087803b15801561195357600080fd5b505af1158015611967573d6000803e3d6000fd5b505050506040513d601f19601f8201168201806040525081019061198b9190611f94565b505050505050565b604051806101a001604052806000815260200160006001600160a01b031681526020016000815260200160608152602001606081526020016060815260200160608152602001600081526020016000815260200160008152602001600081526020016000151581526020016000151581525090565b828054828255906000526020600020908101928215611a5d579160200282015b82811115611a5d57825182546001600160a01b0319166001600160a01b03909116178255602090920191600190910190611a28565b50611a69929150611b86565b5090565b828054828255906000526020600020908101928215611aa8579160200282015b82811115611aa8578251825591602001919060010190611a8d565b50611a69929150611ba5565b828054828255906000526020600020908101928215611b01579160200282015b82811115611b015782518051611af1918491602090910190611bba565b5091602001919060010190611ad4565b50611a69929150611c27565b828054828255906000526020600020908101928215611b5a579160200282015b82811115611b5a5782518051611b4a918491602090910190611bba565b5091602001919060010190611b2d565b50611a69929150611c44565b604080516060810182526000808252602082018190529181019190915290565b5b80821115611a695780546001600160a01b0319168155600101611b87565b5b80821115611a695760008155600101611ba6565b828054600181600116156101000203166002900490600052602060002090601f016020900481019282601f10611bfb57805160ff1916838001178555611aa8565b82800160010185558215611aa85791820182811115611aa8578251825591602001919060010190611a8d565b80821115611a69576000611c3b8282611c61565b50600101611c27565b80821115611a69576000611c588282611c61565b50600101611c44565b50805460018160011615610100020316600290046000825580601f10611c875750611ca5565b601f016020900490600052602060002090810190611ca59190611ba5565b50565b80356001600160a01b038116811461144857600080fd5b600082601f830112611ccf578081fd5b8135611ce2611cdd82612b7b565b612b54565b818152915060208083019084810181840286018201871015611d0357600080fd5b60005b84811015611d2a57611d188883611ca8565b84529282019290820190600101611d06565b505050505092915050565b600082601f830112611d45578081fd5b8135611d53611cdd82612b7b565b818152915060208083019084810160005b84811015611d2a57611d7b888484358a0101611e43565b84529282019290820190600101611d64565b600082601f830112611d9d578081fd5b8135611dab611cdd82612b7b565b818152915060208083019084810160005b84811015611d2a57611dd3888484358a0101611e43565b84529282019290820190600101611dbc565b600082601f830112611df5578081fd5b8135611e03611cdd82612b7b565b818152915060208083019084810181840286018201871015611e2457600080fd5b60005b84811015611d2a57813584529282019290820190600101611e27565b600082601f830112611e53578081fd5b8135611e61611cdd82612b9b565b9150808252836020828501011115611e7857600080fd5b8060208401602084013760009082016020015292915050565b600060208284031215611ea2578081fd5b6118018383611ca8565b600080600080600060a08688031215611ec3578081fd5b853567ffffffffffffffff80821115611eda578283fd5b611ee689838a01611cbf565b96506020880135915080821115611efb578283fd5b611f0789838a01611de5565b95506040880135915080821115611f1c578283fd5b611f2889838a01611d8d565b94506060880135915080821115611f3d578283fd5b611f4989838a01611d35565b93506080880135915080821115611f5e578283fd5b50611f6b88828901611e43565b9150509295509295909350565b600060208284031215611f89578081fd5b815161180181612bfb565b600060208284031215611fa5578081fd5b5051919050565b600060208284031215611fbd578081fd5b815167ffffffffffffffff811115611fd3578182fd5b8201601f81018413611fe3578182fd5b8051611ff1611cdd82612b9b565b818152856020838501011115612005578384fd5b612016826020830160208601612bcb565b95945050505050565b600060208284031215612030578081fd5b5035919050565b60008060408385031215612049578182fd5b8235915061205a8460208501611ca8565b90509250929050565b60008060408385031215612075578182fd5b82359150602083013561208781612bfb565b809150509250929050565b600080600080600060a086880312156120a9578283fd5b8535945060208601356120bb81612bfb565b9350604086013560ff811681146120d0578384fd5b94979396509394606081013594506080013592915050565b6000602082840312156120f9578081fd5b81516001600160601b0381168114611801578182fd5b6000815180845260208085019450808401835b838110156121475781516001600160a01b031687529582019590820190600101612122565b509495945050505050565b60008282518085526020808601955080818302840101818601855b8481101561219b57601f198684030189526121898383516121d7565b9884019892509083019060010161216d565b5090979650505050505050565b6000815180845260208085019450808401835b83811015612147578151875295820195908201906001016121bb565b600081518084526121ef816020860160208601612bcb565b601f01601f19169290920160200192915050565b60008154600180821660008114612221576001811461223f5761227d565b60028304607f16865260ff198316602087015260408601935061227d565b6002830480875261224f86612bbf565b60005b828110156122735781546020828b0101528482019150602081019050612252565b8801602001955050505b50505092915050565b61190160f01b81526002810192909252602282015260420190565b6001600160a01b03929092168252602082015260400190565b6001600160a01b039490941684526020840192909252151560408301526001600160601b0316606082015260800190565b600060018060a01b038716825285602083015260a0604083015261231260a08301866121d7565b828103606084015261232481866121d7565b9150508260808301529695505050505050565b600060018060a01b038716825285602083015260a0604083015261235e60a0830186612203565b82810360608401526123248186612203565b600060808252612383608083018761210f565b828103602084015261239581876121a8565b905082810360408401526123a98186612152565b905082810360608401526123bd8185612152565b979650505050505050565b90815260200190565b938452602084019290925260408301526001600160a01b0316606082015260800190565b92835260208301919091521515604082015260600190565b93845260ff9290921660208401526040830152606082015260800190565b6001600160a01b0391909116815260200190565b602081016008831061244d57fe5b91905290565b60006020825261180160208301846121d7565b60208082526044908201527f476f7665726e6f72416c7068613a3a71756575653a2070726f706f73616c206360408201527f616e206f6e6c79206265207175657565642069662069742069732073756363656060820152631959195960e21b608082015260a00190565b60208082526045908201527f476f7665726e6f72416c7068613a3a657865637574653a2070726f706f73616c60408201527f2063616e206f6e6c7920626520657865637574656420696620697420697320716060820152641d595d595960da1b608082015260a00190565b60208082526029908201527f476f7665726e6f72416c7068613a3a73746174653a20696e76616c69642070726040820152681bdc1bdcd85b081a5960ba1b606082015260800190565b6020808252602d908201527f476f7665726e6f72416c7068613a3a5f63617374566f74653a20766f7465722060408201526c185b1c9958591e481d9bdd1959609a1b606082015260800190565b60208082526059908201527f476f7665726e6f72416c7068613a3a70726f706f73653a206f6e65206c69766560408201527f2070726f706f73616c207065722070726f706f7365722c20666f756e6420616e60608201527f20616c72656164792070656e64696e672070726f706f73616c00000000000000608082015260a00190565b60208082526028908201527f476f7665726e6f72416c7068613a3a70726f706f73653a20746f6f206d616e7960408201526720616374696f6e7360c01b606082015260800190565b6020808252601190820152706164646974696f6e206f766572666c6f7760781b604082015260600190565b60208082526044908201527f476f7665726e6f72416c7068613a3a70726f706f73653a2070726f706f73616c60408201527f2066756e6374696f6e20696e666f726d6174696f6e206172697479206d69736d6060820152630c2e8c6d60e31b608082015260a00190565b6020808252602f908201527f476f7665726e6f72416c7068613a3a63616e63656c3a2070726f706f7365722060408201526e18589bdd99481d1a1c995cda1bdb19608a1b606082015260800190565b60208082526044908201527f476f7665726e6f72416c7068613a3a5f71756575654f725265766572743a207060408201527f726f706f73616c20616374696f6e20616c7265616479207175657565642061746060820152632065746160e01b608082015260a00190565b6020808252602c908201527f476f7665726e6f72416c7068613a3a70726f706f73653a206d7573742070726f60408201526b7669646520616374696f6e7360a01b606082015260800190565b6020808252603f908201527f476f7665726e6f72416c7068613a3a70726f706f73653a2070726f706f73657260408201527f20766f7465732062656c6f772070726f706f73616c207468726573686f6c6400606082015260800190565b6020808252602f908201527f476f7665726e6f72416c7068613a3a63617374566f746542795369673a20696e60408201526e76616c6964207369676e617475726560881b606082015260800190565b60208082526058908201527f476f7665726e6f72416c7068613a3a70726f706f73653a206f6e65206c69766560408201527f2070726f706f73616c207065722070726f706f7365722c20666f756e6420616e60608201527f20616c7265616479206163746976652070726f706f73616c0000000000000000608082015260a00190565b60208082526036908201527f476f7665726e6f72416c7068613a3a63616e63656c3a2063616e6e6f742063616040820152751b98d95b08195e1958dd5d1959081c1c9bdc1bdcd85b60521b606082015260800190565b6020808252602a908201527f476f7665726e6f72416c7068613a3a5f63617374566f74653a20766f74696e67604082015269081a5cc818db1bdcd95960b21b606082015260800190565b6020808252601590820152747375627472616374696f6e20756e646572666c6f7760581b604082015260600190565b8151151581526020808301511515908201526040918201516001600160601b03169181019190915260600190565b8981526001600160a01b038916602082015261012060408201819052600090612a8d8382018b61210f565b90508281036060840152612aa1818a6121a8565b90508281036080840152612ab58189612152565b905082810360a0840152612ac98188612152565b90508560c08401528460e0840152828103610100840152612aea81856121d7565b9c9b505050505050505050505050565b9889526001600160a01b0397909716602089015260408801959095526060870193909352608086019190915260a085015260c0840152151560e083015215156101008201526101200190565b918252602082015260400190565b60405181810167ffffffffffffffff81118282101715612b7357600080fd5b604052919050565b600067ffffffffffffffff821115612b91578081fd5b5060209081020190565b600067ffffffffffffffff821115612bb1578081fd5b50601f01601f191660200190565b60009081526020902090565b60005b83811015612be6578181015183820152602001612bce565b83811115612bf5576000848401525b50505050565b8015158114611ca557600080fdfea2646970667358221220429de69e4215ca29e09501adfd77e47d158cac1044595660eae21b4b63a4f4c364736f6c634300060c0033",
  "devdoc": {
    "events": {
      "ProposalCanceled(uint256)": {
        "details": "An event emitted when a proposal has been canceled"
      },
      "ProposalCreated(uint256,address,address[],uint256[],string[],bytes[],uint256,uint256,string)": {
        "details": "An event emitted when a new proposal is created"
      },
      "ProposalExecuted(uint256)": {
        "details": "An event emitted when a proposal has been executed in the Timelock"
      },
      "ProposalQueued(uint256,uint256)": {
        "details": "An event emitted when a proposal has been queued in the Timelock"
      },
      "VoteCast(address,uint256,bool,uint256)": {
        "details": "An event emitted when a vote has been cast on a proposal"
      }
    },
    "kind": "dev",
    "methods": {
      "proposalMaxOperations()": {
        "details": "The maximum number of actions that can be included in a proposal"
      },
      "proposalThreshold()": {
        "details": "The number of votes required in order for a voter to become a proposer"
      },
      "quorumVotes()": {
        "details": "The number of votes in support of a proposal required in order for a quorum to be reached and for a vote to succeed"
      },
      "votingDelay()": {
        "details": "The delay before voting on a proposal may take place, once proposed"
      },
      "votingPeriod()": {
        "details": "The duration of voting on a proposal, in blocks"
      }
    },
    "stateVariables": {
      "BALLOT_TYPEHASH": {
        "details": "The EIP-712 typehash for the ballot struct used by the contract"
      },
      "DOMAIN_TYPEHASH": {
        "details": "The EIP-712 typehash for the contract's domain"
      },
      "latestProposalIds": {
        "details": "The latest proposal for each proposer"
      },
      "ndx": {
        "details": "The address of the Indexed governance token"
      },
      "proposalCount": {
        "details": "The total number of proposals"
      },
      "proposals": {
        "details": "The official record of all proposals ever proposed"
      },
      "timelock": {
        "details": "The address of the Indexed Protocol Timelock"
      }
    },
    "version": 1
  },
  "userdoc": {
    "kind": "user",
    "methods": {
      "name()": {
        "notice": "The name of this contract"
      }
    },
    "version": 1
  },
  "storageLayout": {
    "storage": [
      {
        "astId": 2929,
        "contract": "contracts/governance/GovernorAlpha.sol:GovernorAlpha",
        "label": "timelock",
        "offset": 0,
        "slot": "0",
        "type": "t_contract(ITimelock)5982"
      },
      {
        "astId": 2932,
        "contract": "contracts/governance/GovernorAlpha.sol:GovernorAlpha",
        "label": "ndx",
        "offset": 0,
        "slot": "1",
        "type": "t_contract(NdxInterface)3965"
      },
      {
        "astId": 2935,
        "contract": "contracts/governance/GovernorAlpha.sol:GovernorAlpha",
        "label": "proposalCount",
        "offset": 0,
        "slot": "2",
        "type": "t_uint256"
      },
      {
        "astId": 2991,
        "contract": "contracts/governance/GovernorAlpha.sol:GovernorAlpha",
        "label": "proposals",
        "offset": 0,
        "slot": "3",
        "type": "t_mapping(t_uint256,t_struct(Proposal)2970_storage)"
      },
      {
        "astId": 2996,
        "contract": "contracts/governance/GovernorAlpha.sol:GovernorAlpha",
        "label": "latestProposalIds",
        "offset": 0,
        "slot": "4",
        "type": "t_mapping(t_address,t_uint256)"
      }
    ],
    "types": {
      "t_address": {
        "encoding": "inplace",
        "label": "address",
        "numberOfBytes": "20"
      },
      "t_array(t_address)dyn_storage": {
        "base": "t_address",
        "encoding": "dynamic_array",
        "label": "address[]",
        "numberOfBytes": "32"
      },
      "t_array(t_bytes_storage)dyn_storage": {
        "base": "t_bytes_storage",
        "encoding": "dynamic_array",
        "label": "bytes[]",
        "numberOfBytes": "32"
      },
      "t_array(t_string_storage)dyn_storage": {
        "base": "t_string_storage",
        "encoding": "dynamic_array",
        "label": "string[]",
        "numberOfBytes": "32"
      },
      "t_array(t_uint256)dyn_storage": {
        "base": "t_uint256",
        "encoding": "dynamic_array",
        "label": "uint256[]",
        "numberOfBytes": "32"
      },
      "t_bool": {
        "encoding": "inplace",
        "label": "bool",
        "numberOfBytes": "1"
      },
      "t_bytes_storage": {
        "encoding": "bytes",
        "label": "bytes",
        "numberOfBytes": "32"
      },
      "t_contract(ITimelock)5982": {
        "encoding": "inplace",
        "label": "contract ITimelock",
        "numberOfBytes": "20"
      },
      "t_contract(NdxInterface)3965": {
        "encoding": "inplace",
        "label": "contract NdxInterface",
        "numberOfBytes": "20"
      },
      "t_mapping(t_address,t_struct(Receipt)2977_storage)": {
        "encoding": "mapping",
        "key": "t_address",
        "label": "mapping(address => struct GovernorAlpha.Receipt)",
        "numberOfBytes": "32",
        "value": "t_struct(Receipt)2977_storage"
      },
      "t_mapping(t_address,t_uint256)": {
        "encoding": "mapping",
        "key": "t_address",
        "label": "mapping(address => uint256)",
        "numberOfBytes": "32",
        "value": "t_uint256"
      },
      "t_mapping(t_uint256,t_struct(Proposal)2970_storage)": {
        "encoding": "mapping",
        "key": "t_uint256",
        "label": "mapping(uint256 => struct GovernorAlpha.Proposal)",
        "numberOfBytes": "32",
        "value": "t_struct(Proposal)2970_storage"
      },
      "t_string_storage": {
        "encoding": "bytes",
        "label": "string",
        "numberOfBytes": "32"
      },
      "t_struct(Proposal)2970_storage": {
        "encoding": "inplace",
        "label": "struct GovernorAlpha.Proposal",
        "members": [
          {
            "astId": 2937,
            "contract": "contracts/governance/GovernorAlpha.sol:GovernorAlpha",
            "label": "id",
            "offset": 0,
            "slot": "0",
            "type": "t_uint256"
          },
          {
            "astId": 2939,
            "contract": "contracts/governance/GovernorAlpha.sol:GovernorAlpha",
            "label": "proposer",
            "offset": 0,
            "slot": "1",
            "type": "t_address"
          },
          {
            "astId": 2941,
            "contract": "contracts/governance/GovernorAlpha.sol:GovernorAlpha",
            "label": "eta",
            "offset": 0,
            "slot": "2",
            "type": "t_uint256"
          },
          {
            "astId": 2944,
            "contract": "contracts/governance/GovernorAlpha.sol:GovernorAlpha",
            "label": "targets",
            "offset": 0,
            "slot": "3",
            "type": "t_array(t_address)dyn_storage"
          },
          {
            "astId": 2947,
            "contract": "contracts/governance/GovernorAlpha.sol:GovernorAlpha",
            "label": "values",
            "offset": 0,
            "slot": "4",
            "type": "t_array(t_uint256)dyn_storage"
          },
          {
            "astId": 2950,
            "contract": "contracts/governance/GovernorAlpha.sol:GovernorAlpha",
            "label": "signatures",
            "offset": 0,
            "slot": "5",
            "type": "t_array(t_string_storage)dyn_storage"
          },
          {
            "astId": 2953,
            "contract": "contracts/governance/GovernorAlpha.sol:GovernorAlpha",
            "label": "calldatas",
            "offset": 0,
            "slot": "6",
            "type": "t_array(t_bytes_storage)dyn_storage"
          },
          {
            "astId": 2955,
            "contract": "contracts/governance/GovernorAlpha.sol:GovernorAlpha",
            "label": "startBlock",
            "offset": 0,
            "slot": "7",
            "type": "t_uint256"
          },
          {
            "astId": 2957,
            "contract": "contracts/governance/GovernorAlpha.sol:GovernorAlpha",
            "label": "endBlock",
            "offset": 0,
            "slot": "8",
            "type": "t_uint256"
          },
          {
            "astId": 2959,
            "contract": "contracts/governance/GovernorAlpha.sol:GovernorAlpha",
            "label": "forVotes",
            "offset": 0,
            "slot": "9",
            "type": "t_uint256"
          },
          {
            "astId": 2961,
            "contract": "contracts/governance/GovernorAlpha.sol:GovernorAlpha",
            "label": "againstVotes",
            "offset": 0,
            "slot": "10",
            "type": "t_uint256"
          },
          {
            "astId": 2963,
            "contract": "contracts/governance/GovernorAlpha.sol:GovernorAlpha",
            "label": "canceled",
            "offset": 0,
            "slot": "11",
            "type": "t_bool"
          },
          {
            "astId": 2965,
            "contract": "contracts/governance/GovernorAlpha.sol:GovernorAlpha",
            "label": "executed",
            "offset": 1,
            "slot": "11",
            "type": "t_bool"
          },
          {
            "astId": 2969,
            "contract": "contracts/governance/GovernorAlpha.sol:GovernorAlpha",
            "label": "receipts",
            "offset": 0,
            "slot": "12",
            "type": "t_mapping(t_address,t_struct(Receipt)2977_storage)"
          }
        ],
        "numberOfBytes": "416"
      },
      "t_struct(Receipt)2977_storage": {
        "encoding": "inplace",
        "label": "struct GovernorAlpha.Receipt",
        "members": [
          {
            "astId": 2972,
            "contract": "contracts/governance/GovernorAlpha.sol:GovernorAlpha",
            "label": "hasVoted",
            "offset": 0,
            "slot": "0",
            "type": "t_bool"
          },
          {
            "astId": 2974,
            "contract": "contracts/governance/GovernorAlpha.sol:GovernorAlpha",
            "label": "support",
            "offset": 1,
            "slot": "0",
            "type": "t_bool"
          },
          {
            "astId": 2976,
            "contract": "contracts/governance/GovernorAlpha.sol:GovernorAlpha",
            "label": "votes",
            "offset": 2,
            "slot": "0",
            "type": "t_uint96"
          }
        ],
        "numberOfBytes": "32"
      },
      "t_uint256": {
        "encoding": "inplace",
        "label": "uint256",
        "numberOfBytes": "32"
      },
      "t_uint96": {
        "encoding": "inplace",
        "label": "uint96",
        "numberOfBytes": "12"
      }
    }
  },
  "gasEstimates": {
    "creation": {
      "codeDepositCost": "2265400",
      "executionCost": "infinite",
      "totalCost": "infinite"
    },
    "external": {
      "BALLOT_TYPEHASH()": "316",
      "DOMAIN_TYPEHASH()": "251",
      "cancel(uint256)": "infinite",
      "castVote(uint256,bool)": "infinite",
      "castVoteBySig(uint256,bool,uint8,bytes32,bytes32)": "infinite",
      "execute(uint256)": "infinite",
      "getActions(uint256)": "infinite",
      "getReceipt(uint256,address)": "infinite",
      "latestProposalIds(address)": "1369",
      "name()": "infinite",
      "ndx()": "1115",
      "proposalCount()": "1050",
      "proposalMaxOperations()": "295",
      "proposalThreshold()": "317",
      "proposals(uint256)": "7160",
      "propose(address[],uint256[],string[],bytes[],string)": "infinite",
      "queue(uint256)": "infinite",
      "quorumVotes()": "273",
      "state(uint256)": "infinite",
      "timelock()": "1181",
      "votingDelay()": "317",
      "votingPeriod()": "274"
    },
    "internal": {
      "_castVote(address,uint256,bool)": "infinite",
      "_queueOrRevert(address,uint256,string memory,bytes memory,uint256)": "infinite",
      "add256(uint256,uint256)": "infinite",
      "getChainId()": "14",
      "sub256(uint256,uint256)": "infinite"
    }
  }
}