{
  "abi": [
    {
      "inputs": [
        {
          "internalType": "address",
          "name": "poolAddress",
          "type": "address"
        }
      ],
      "name": "addIPool",
      "outputs": [],
      "stateMutability": "nonpayable",
      "type": "function"
    },
    {
      "inputs": [
        {
          "internalType": "address",
          "name": "",
          "type": "address"
        }
      ],
      "name": "isIPool",
      "outputs": [
        {
          "internalType": "bool",
          "name": "",
          "type": "bool"
        }
      ],
      "stateMutability": "view",
      "type": "function"
    }
  ],
  "address": "0x906c33a704B43006602c7A4386659480E3aEe7d4",
  "args": [],
  "solcInputHash": "0xa3feb7905933c0ea602c5096dbb7a5cd98f38d9ffb8083ad579ddc0892699f00",
  "bytecode": "0x608060405234801561001057600080fd5b50610102806100206000396000f3fe6080604052348015600f57600080fd5b506004361060325760003560e01c80637f9f6a09146037578063ce7713b714605c575b600080fd5b605a60048036036020811015604b57600080fd5b50356001600160a01b03166093565b005b607f60048036036020811015607057600080fd5b50356001600160a01b031660b7565b604080519115158252519081900360200190f35b6001600160a01b03166000908152602081905260409020805460ff19166001179055565b60006020819052908152604090205460ff168156fea2646970667358221220bd78fd000ea65aa610d5165155b82e23beff91bf24fc101b18e8c5252c0fd10264736f6c63430006080033",
  "devdoc": {
    "methods": {}
  },
  "userdoc": {
    "methods": {}
  },
  "storageLayout": {
    "storage": [
      {
        "astId": 15567,
        "contract": "contracts/mocks/MockPoolFactory.sol:MockPoolFactory",
        "label": "isIPool",
        "offset": 0,
        "slot": "0",
        "type": "t_mapping(t_address,t_bool)"
      }
    ],
    "types": {
      "t_address": {
        "encoding": "inplace",
        "label": "address",
        "numberOfBytes": "20"
      },
      "t_bool": {
        "encoding": "inplace",
        "label": "bool",
        "numberOfBytes": "1"
      },
      "t_mapping(t_address,t_bool)": {
        "encoding": "mapping",
        "key": "t_address",
        "label": "mapping(address => bool)",
        "numberOfBytes": "32",
        "value": "t_bool"
      }
    }
  },
  "gasEstimates": {
    "creation": {
      "codeDepositCost": "51600",
      "executionCost": "105",
      "totalCost": "51705"
    },
    "external": {
      "addIPool(address)": "21093",
      "isIPool(address)": "1139"
    }
  }
}