{
  "abi": [
    {
      "inputs": [
        {
          "internalType": "address",
          "name": "account",
          "type": "address"
        }
      ],
      "stateMutability": "nonpayable",
      "type": "constructor"
    },
    {
      "anonymous": false,
      "inputs": [
        {
          "indexed": true,
          "internalType": "address",
          "name": "owner",
          "type": "address"
        },
        {
          "indexed": true,
          "internalType": "address",
          "name": "spender",
          "type": "address"
        },
        {
          "indexed": false,
          "internalType": "uint256",
          "name": "amount",
          "type": "uint256"
        }
      ],
      "name": "Approval",
      "type": "event"
    },
    {
      "anonymous": false,
      "inputs": [
        {
          "indexed": true,
          "internalType": "address",
          "name": "delegator",
          "type": "address"
        },
        {
          "indexed": true,
          "internalType": "address",
          "name": "fromDelegate",
          "type": "address"
        },
        {
          "indexed": true,
          "internalType": "address",
          "name": "toDelegate",
          "type": "address"
        }
      ],
      "name": "DelegateChanged",
      "type": "event"
    },
    {
      "anonymous": false,
      "inputs": [
        {
          "indexed": true,
          "internalType": "address",
          "name": "delegate",
          "type": "address"
        },
        {
          "indexed": false,
          "internalType": "uint256",
          "name": "previousBalance",
          "type": "uint256"
        },
        {
          "indexed": false,
          "internalType": "uint256",
          "name": "newBalance",
          "type": "uint256"
        }
      ],
      "name": "DelegateVotesChanged",
      "type": "event"
    },
    {
      "anonymous": false,
      "inputs": [
        {
          "indexed": true,
          "internalType": "address",
          "name": "from",
          "type": "address"
        },
        {
          "indexed": true,
          "internalType": "address",
          "name": "to",
          "type": "address"
        },
        {
          "indexed": false,
          "internalType": "uint256",
          "name": "amount",
          "type": "uint256"
        }
      ],
      "name": "Transfer",
      "type": "event"
    },
    {
      "inputs": [],
      "name": "DELEGATION_TYPEHASH",
      "outputs": [
        {
          "internalType": "bytes32",
          "name": "",
          "type": "bytes32"
        }
      ],
      "stateMutability": "view",
      "type": "function"
    },
    {
      "inputs": [],
      "name": "DOMAIN_TYPEHASH",
      "outputs": [
        {
          "internalType": "bytes32",
          "name": "",
          "type": "bytes32"
        }
      ],
      "stateMutability": "view",
      "type": "function"
    },
    {
      "inputs": [],
      "name": "PERMIT_TYPEHASH",
      "outputs": [
        {
          "internalType": "bytes32",
          "name": "",
          "type": "bytes32"
        }
      ],
      "stateMutability": "view",
      "type": "function"
    },
    {
      "inputs": [
        {
          "internalType": "address",
          "name": "account",
          "type": "address"
        },
        {
          "internalType": "address",
          "name": "spender",
          "type": "address"
        }
      ],
      "name": "allowance",
      "outputs": [
        {
          "internalType": "uint256",
          "name": "",
          "type": "uint256"
        }
      ],
      "stateMutability": "view",
      "type": "function"
    },
    {
      "inputs": [
        {
          "internalType": "address",
          "name": "spender",
          "type": "address"
        },
        {
          "internalType": "uint256",
          "name": "rawAmount",
          "type": "uint256"
        }
      ],
      "name": "approve",
      "outputs": [
        {
          "internalType": "bool",
          "name": "",
          "type": "bool"
        }
      ],
      "stateMutability": "nonpayable",
      "type": "function"
    },
    {
      "inputs": [
        {
          "internalType": "address",
          "name": "account",
          "type": "address"
        }
      ],
      "name": "balanceOf",
      "outputs": [
        {
          "internalType": "uint256",
          "name": "",
          "type": "uint256"
        }
      ],
      "stateMutability": "view",
      "type": "function"
    },
    {
      "inputs": [
        {
          "internalType": "address",
          "name": "",
          "type": "address"
        },
        {
          "internalType": "uint32",
          "name": "",
          "type": "uint32"
        }
      ],
      "name": "checkpoints",
      "outputs": [
        {
          "internalType": "uint32",
          "name": "fromBlock",
          "type": "uint32"
        },
        {
          "internalType": "uint96",
          "name": "votes",
          "type": "uint96"
        }
      ],
      "stateMutability": "view",
      "type": "function"
    },
    {
      "inputs": [],
      "name": "decimals",
      "outputs": [
        {
          "internalType": "uint8",
          "name": "",
          "type": "uint8"
        }
      ],
      "stateMutability": "view",
      "type": "function"
    },
    {
      "inputs": [
        {
          "internalType": "address",
          "name": "delegatee",
          "type": "address"
        }
      ],
      "name": "delegate",
      "outputs": [],
      "stateMutability": "nonpayable",
      "type": "function"
    },
    {
      "inputs": [
        {
          "internalType": "address",
          "name": "delegatee",
          "type": "address"
        },
        {
          "internalType": "uint256",
          "name": "nonce",
          "type": "uint256"
        },
        {
          "internalType": "uint256",
          "name": "expiry",
          "type": "uint256"
        },
        {
          "internalType": "uint8",
          "name": "v",
          "type": "uint8"
        },
        {
          "internalType": "bytes32",
          "name": "r",
          "type": "bytes32"
        },
        {
          "internalType": "bytes32",
          "name": "s",
          "type": "bytes32"
        }
      ],
      "name": "delegateBySig",
      "outputs": [],
      "stateMutability": "nonpayable",
      "type": "function"
    },
    {
      "inputs": [
        {
          "internalType": "address",
          "name": "",
          "type": "address"
        }
      ],
      "name": "delegates",
      "outputs": [
        {
          "internalType": "address",
          "name": "",
          "type": "address"
        }
      ],
      "stateMutability": "view",
      "type": "function"
    },
    {
      "inputs": [
        {
          "internalType": "address",
          "name": "account",
          "type": "address"
        }
      ],
      "name": "getCurrentVotes",
      "outputs": [
        {
          "internalType": "uint96",
          "name": "",
          "type": "uint96"
        }
      ],
      "stateMutability": "view",
      "type": "function"
    },
    {
      "inputs": [
        {
          "internalType": "address",
          "name": "account",
          "type": "address"
        },
        {
          "internalType": "uint256",
          "name": "blockNumber",
          "type": "uint256"
        }
      ],
      "name": "getPriorVotes",
      "outputs": [
        {
          "internalType": "uint96",
          "name": "",
          "type": "uint96"
        }
      ],
      "stateMutability": "view",
      "type": "function"
    },
    {
      "inputs": [],
      "name": "name",
      "outputs": [
        {
          "internalType": "string",
          "name": "",
          "type": "string"
        }
      ],
      "stateMutability": "view",
      "type": "function"
    },
    {
      "inputs": [
        {
          "internalType": "address",
          "name": "account",
          "type": "address"
        }
      ],
      "name": "nonceOf",
      "outputs": [
        {
          "internalType": "uint256",
          "name": "",
          "type": "uint256"
        }
      ],
      "stateMutability": "view",
      "type": "function"
    },
    {
      "inputs": [
        {
          "internalType": "address",
          "name": "",
          "type": "address"
        }
      ],
      "name": "nonces",
      "outputs": [
        {
          "internalType": "uint256",
          "name": "",
          "type": "uint256"
        }
      ],
      "stateMutability": "view",
      "type": "function"
    },
    {
      "inputs": [
        {
          "internalType": "address",
          "name": "",
          "type": "address"
        }
      ],
      "name": "numCheckpoints",
      "outputs": [
        {
          "internalType": "uint32",
          "name": "",
          "type": "uint32"
        }
      ],
      "stateMutability": "view",
      "type": "function"
    },
    {
      "inputs": [
        {
          "internalType": "address",
          "name": "owner",
          "type": "address"
        },
        {
          "internalType": "address",
          "name": "spender",
          "type": "address"
        },
        {
          "internalType": "uint256",
          "name": "rawAmount",
          "type": "uint256"
        },
        {
          "internalType": "uint256",
          "name": "deadline",
          "type": "uint256"
        },
        {
          "internalType": "uint8",
          "name": "v",
          "type": "uint8"
        },
        {
          "internalType": "bytes32",
          "name": "r",
          "type": "bytes32"
        },
        {
          "internalType": "bytes32",
          "name": "s",
          "type": "bytes32"
        }
      ],
      "name": "permit",
      "outputs": [],
      "stateMutability": "nonpayable",
      "type": "function"
    },
    {
      "inputs": [],
      "name": "symbol",
      "outputs": [
        {
          "internalType": "string",
          "name": "",
          "type": "string"
        }
      ],
      "stateMutability": "view",
      "type": "function"
    },
    {
      "inputs": [],
      "name": "totalSupply",
      "outputs": [
        {
          "internalType": "uint256",
          "name": "",
          "type": "uint256"
        }
      ],
      "stateMutability": "view",
      "type": "function"
    },
    {
      "inputs": [
        {
          "internalType": "address",
          "name": "dst",
          "type": "address"
        },
        {
          "internalType": "uint256",
          "name": "rawAmount",
          "type": "uint256"
        }
      ],
      "name": "transfer",
      "outputs": [
        {
          "internalType": "bool",
          "name": "",
          "type": "bool"
        }
      ],
      "stateMutability": "nonpayable",
      "type": "function"
    },
    {
      "inputs": [
        {
          "internalType": "address",
          "name": "src",
          "type": "address"
        },
        {
          "internalType": "address",
          "name": "dst",
          "type": "address"
        },
        {
          "internalType": "uint256",
          "name": "rawAmount",
          "type": "uint256"
        }
      ],
      "name": "transferFrom",
      "outputs": [
        {
          "internalType": "bool",
          "name": "",
          "type": "bool"
        }
      ],
      "stateMutability": "nonpayable",
      "type": "function"
    }
  ],
  "address": "0x9241B15BB4F0bFbE040e2B2E899661190E317638",
  "args": [
    "0x8740d0EF44FFd926302E36CfAf7A38e61dAD550e"
  ],
  "solcInputHash": "0x6bb2554a08321ee5e389e1aa848d0044db831c6cac2f65c53e8d830bf5d0db42",
  "bytecode": "0x60806040526b033b2e3c9fd0803ce800000060005534801561002057600080fd5b5060405162001e6638038062001e66833981016040819052610041916100bb565b600080546001600160a01b0383168083526002602052604080842080546001600160601b0319166001600160601b0390941693909317909255825491519092917fddf252ad1be2c89b69c2b068fc378daa952ba7f163c4a11628f55a4df523b3ef916100ad91906100e9565b60405180910390a3506100f2565b6000602082840312156100cc578081fd5b81516001600160a01b03811681146100e2578182fd5b9392505050565b90815260200190565b611d6480620001026000396000f3fe608060405234801561001057600080fd5b50600436106101425760003560e01c8063782d6fe1116100b8578063c3cda5201161007c578063c3cda5201461029b578063d505accf146102ae578063dd62ed3e146102c1578063e7a324dc146102d4578063ed2a2d64146102dc578063f1127ed8146102ef57610142565b8063782d6fe11461023a5780637ecebe001461025a57806395d89b411461026d578063a9059cbb14610275578063b4b5ea571461028857610142565b806330adf81f1161010a57806330adf81f146101b5578063313ce567146101bd578063587cde1e146101d25780635c19a95c146101f25780636fcfff451461020757806370a082311461022757610142565b806306fdde0314610147578063095ea7b31461016557806318160ddd1461018557806320606b701461019a57806323b872dd146101a2575b600080fd5b61014f610310565b60405161015c919061185e565b60405180910390f35b6101786101733660046115ab565b610333565b60405161015c91906117b0565b61018d6103f2565b60405161015c91906117bb565b61018d6103f8565b6101786101b03660046114ff565b61040f565b61018d610556565b6101c5610562565b60405161015c9190611b51565b6101e56101e03660046114b0565b610567565b60405161015c919061179c565b6102056102003660046114b0565b610582565b005b61021a6102153660046114b0565b61058f565b60405161015c9190611b21565b61018d6102353660046114b0565b6105a7565b61024d6102483660046115ab565b6105cb565b60405161015c9190611b5f565b61018d6102683660046114b0565b6107e2565b61014f6107f4565b6101786102833660046115ab565b610813565b61024d6102963660046114b0565b61084f565b6102056102a93660046115d5565b6108c0565b6102056102bc36600461153f565b610aa9565b61018d6102cf3660046114cb565b610d94565b61018d610dc8565b61018d6102ea3660046114b0565b610dd4565b6103026102fd36600461162e565b610def565b60405161015c929190611b32565b60405180604001604052806007815260200166125b99195e195960ca1b81525081565b600080600019831415610349575060001961036e565b61036b83604051806060016040528060248152602001611c5f60249139610e24565b90505b3360008181526001602090815260408083206001600160a01b03891680855292529182902080546001600160601b0319166001600160601b03861617905590519091907f8c5be1e5ebec7d5bd14f71427d1e84f3dd0314c0f7b2291e5b200ac8c7c3b925906103de908590611b5f565b60405180910390a360019150505b92915050565b60005481565b604051610404906116f2565b604051809103902081565b6001600160a01b03831660009081526001602090815260408083203380855290835281842054825160608101909352602480845291936001600160601b039091169285926104679288929190611c5f90830139610e24565b9050866001600160a01b0316836001600160a01b03161415801561049457506001600160601b0382811614155b1561053e5760006104be83836040518060600160405280603c8152602001611ba3603c9139610e53565b6001600160a01b038981166000818152600160209081526040808320948a16808452949091529081902080546001600160601b0319166001600160601b0386161790555192935090917f8c5be1e5ebec7d5bd14f71427d1e84f3dd0314c0f7b2291e5b200ac8c7c3b92590610534908590611b5f565b60405180910390a3505b610549878783610e92565b5060019695505050505050565b60405161040490611688565b601281565b6003602052600090815260409020546001600160a01b031681565b61058c338261103d565b50565b60056020526000908152604090205463ffffffff1681565b6001600160a01b03166000908152600260205260409020546001600160601b031690565b60004382106105f55760405162461bcd60e51b81526004016105ec90611a1e565b60405180910390fd5b6001600160a01b03831660009081526005602052604090205463ffffffff16806106235760009150506103ec565b6001600160a01b038416600090815260046020908152604080832063ffffffff60001986018116855292529091205416831061069f576001600160a01b03841660009081526004602090815260408083206000199490940163ffffffff1683529290522054600160201b90046001600160601b031690506103ec565b6001600160a01b038416600090815260046020908152604080832083805290915290205463ffffffff168310156106da5760009150506103ec565b600060001982015b8163ffffffff168163ffffffff16111561079d57600282820363ffffffff1604810361070c611471565b506001600160a01b038716600090815260046020908152604080832063ffffffff858116855290835292819020815180830190925254928316808252600160201b9093046001600160601b03169181019190915290871415610778576020015194506103ec9350505050565b805163ffffffff1687111561078f57819350610796565b6001820392505b50506106e2565b506001600160a01b038516600090815260046020908152604080832063ffffffff909416835292905220546001600160601b03600160201b9091041691505092915050565b60066020526000908152604090205481565b6040518060400160405280600381526020016209c88b60eb1b81525081565b60008061083883604051806060016040528060258152602001611c3a60259139610e24565b9050610845338583610e92565b5060019392505050565b6001600160a01b03811660009081526005602052604081205463ffffffff168061087a5760006108b9565b6001600160a01b0383166000908152600460209081526040808320600019850163ffffffff168452909152902054600160201b90046001600160601b03165b9392505050565b60006040516108ce906116f2565b604080519182900382208282019091526007825266125b99195e195960ca1b6020909201919091527fffd1efef9601735c4ae0057fcdc120de0b6c867f1329927f88adaf60cceb955361091f6110c7565b30604051602001610933949392919061181c565b60405160208183030381529060405280519060200120905060006040516109599061174d565b604051908190038120610974918a908a908a906020016117f8565b604051602081830303815290604052805190602001209050600082826040516020016109a192919061166d565b6040516020818303038152906040528051906020012090506000600182888888604051600081526020016040526040516109de9493929190611840565b6020604051602081039080840390855afa158015610a00573d6000803e3d6000fd5b5050604051601f1901519150506001600160a01b038116610a335760405162461bcd60e51b81526004016105ec90611a64565b6001600160a01b03811660009081526006602052604090208054600181019091558914610a725760405162461bcd60e51b81526004016105ec90611aa9565b87421115610a925760405162461bcd60e51b81526004016105ec906118b1565b610a9c818b61103d565b505050505b505050505050565b6000600019861415610abe5750600019610ae3565b610ae086604051806060016040528060238152602001611c8360239139610e24565b90505b6000604051610af1906116f2565b604080519182900382208282019091526007825266125b99195e195960ca1b6020909201919091527fffd1efef9601735c4ae0057fcdc120de0b6c867f1329927f88adaf60cceb9553610b426110c7565b30604051602001610b56949392919061181c565b6040516020818303038152906040528051906020012090506000604051610b7c90611688565b604080519182900382206001600160a01b038d16600090815260066020908152929020805460018101909155610bbe9391928e928e928e9290918e91016117c4565b60405160208183030381529060405280519060200120905060008282604051602001610beb92919061166d565b604051602081830303815290604052805190602001209050600060018289898960405160008152602001604052604051610c289493929190611840565b6020604051602081039080840390855afa158015610c4a573d6000803e3d6000fd5b5050604051601f1901519150506001600160a01b038116610c7d5760405162461bcd60e51b81526004016105ec9061198a565b8b6001600160a01b0316816001600160a01b031614610cae5760405162461bcd60e51b81526004016105ec90611953565b88421115610cce5760405162461bcd60e51b81526004016105ec90611aea565b84600160008e6001600160a01b03166001600160a01b0316815260200190815260200160002060008d6001600160a01b03166001600160a01b0316815260200190815260200160002060006101000a8154816001600160601b0302191690836001600160601b031602179055508a6001600160a01b03168c6001600160a01b03167f8c5be1e5ebec7d5bd14f71427d1e84f3dd0314c0f7b2291e5b200ac8c7c3b92587604051610d7e9190611b5f565b60405180910390a3505050505050505050505050565b6001600160a01b0391821660009081526001602090815260408083209390941682529190915220546001600160601b031690565b6040516104049061174d565b6001600160a01b031660009081526006602052604090205490565b600460209081526000928352604080842090915290825290205463ffffffff811690600160201b90046001600160601b031682565b600081600160601b8410610e4b5760405162461bcd60e51b81526004016105ec919061185e565b509192915050565b6000836001600160601b0316836001600160601b031611158290610e8a5760405162461bcd60e51b81526004016105ec919061185e565b505050900390565b6001600160a01b038316610eb85760405162461bcd60e51b81526004016105ec906119c1565b6001600160a01b038216610ede5760405162461bcd60e51b81526004016105ec906118f6565b6001600160a01b038316600090815260026020908152604091829020548251606081019093526035808452610f29936001600160601b039092169285929190611c0590830139610e53565b6001600160a01b03848116600090815260026020908152604080832080546001600160601b0319166001600160601b0396871617905592861682529082902054825160608101909352602f808452610f919491909116928592909190611ca6908301396110cb565b6001600160a01b038381166000818152600260205260409081902080546001600160601b0319166001600160601b0395909516949094179093559151908516907fddf252ad1be2c89b69c2b068fc378daa952ba7f163c4a11628f55a4df523b3ef90610ffe908590611b5f565b60405180910390a36001600160a01b0380841660009081526003602052604080822054858416835291205461103892918216911683611107565b505050565b6001600160a01b03808316600081815260036020818152604080842080546002845282862054949093528787166001600160a01b031984168117909155905191909516946001600160601b039092169391928592917f3134e8a2e6d97e929a7e54011ea5485d7d196dd5f0ba4d4ef95803e8e3fc257f9190a46110c1828483611107565b50505050565b4690565b6000838301826001600160601b0380871690831610156110fe5760405162461bcd60e51b81526004016105ec919061185e565b50949350505050565b816001600160a01b0316836001600160a01b03161415801561113257506000816001600160601b0316115b15611038576001600160a01b038316156111ea576001600160a01b03831660009081526005602052604081205463ffffffff1690816111725760006111b1565b6001600160a01b0385166000908152600460209081526040808320600019860163ffffffff168452909152902054600160201b90046001600160601b03165b905060006111d88285604051806060016040528060278152602001611cd560279139610e53565b90506111e686848484611295565b5050505b6001600160a01b03821615611038576001600160a01b03821660009081526005602052604081205463ffffffff169081611225576000611264565b6001600160a01b0384166000908152600460209081526040808320600019860163ffffffff168452909152902054600160201b90046001600160601b03165b9050600061128b8285604051806060016040528060268152602001611bdf602691396110cb565b9050610aa1858484845b60006112b943604051806060016040528060338152602001611cfc6033913961144a565b905060008463ffffffff1611801561130257506001600160a01b038516600090815260046020908152604080832063ffffffff6000198901811685529252909120548282169116145b15611361576001600160a01b0385166000908152600460209081526040808320600019880163ffffffff168452909152902080546fffffffffffffffffffffffff000000001916600160201b6001600160601b03851602179055611400565b60408051808201825263ffffffff80841682526001600160601b0380861660208085019182526001600160a01b038b166000818152600483528781208c871682528352878120965187549451909516600160201b026fffffffffffffffffffffffff000000001995871663ffffffff19958616179590951694909417909555938252600590935292909220805460018801909316929091169190911790555b846001600160a01b03167fdec2bacdd2f05b59de34da9b523dff8be42e5e38e818c82fdb0bae774387a724848460405161143b929190611b73565b60405180910390a25050505050565b600081600160201b8410610e4b5760405162461bcd60e51b81526004016105ec919061185e565b604080518082019091526000808252602082015290565b80356001600160a01b03811681146103ec57600080fd5b803560ff811681146103ec57600080fd5b6000602082840312156114c1578081fd5b6108b98383611488565b600080604083850312156114dd578081fd5b6114e78484611488565b91506114f68460208501611488565b90509250929050565b600080600060608486031215611513578081fd5b833561151e81611b8d565b9250602084013561152e81611b8d565b929592945050506040919091013590565b600080600080600080600060e0888a031215611559578283fd5b6115638989611488565b96506115728960208a01611488565b9550604088013594506060880135935061158f8960808a0161149f565b925060a0880135915060c0880135905092959891949750929550565b600080604083850312156115bd578182fd5b6115c78484611488565b946020939093013593505050565b60008060008060008060c087890312156115ed578182fd5b6115f78888611488565b95506020870135945060408701359350611614886060890161149f565b92506080870135915060a087013590509295509295509295565b60008060408385031215611640578182fd5b61164a8484611488565b9150602083013563ffffffff81168114611662578182fd5b809150509250929050565b61190160f01b81526002810192909252602282015260420190565b7f5065726d69742861646472657373206f776e65722c616464726573732073706581527f6e6465722c75696e743235362076616c75652c75696e74323536206e6f6e63656020820152712c75696e7432353620646561646c696e652960701b604082015260520190565b7f454950373132446f6d61696e28737472696e67206e616d652c75696e7432353681527f20636861696e49642c6164647265737320766572696679696e67436f6e74726160208201526263742960e81b604082015260430190565b7f44656c65676174696f6e28616464726573732064656c6567617465652c75696e81527f74323536206e6f6e63652c75696e7432353620657870697279290000000000006020820152603a0190565b6001600160a01b0391909116815260200190565b901515815260200190565b90815260200190565b9586526001600160a01b0394851660208701529290931660408501526060840152608083019190915260a082015260c00190565b9384526001600160a01b039290921660208401526040830152606082015260800190565b938452602084019290925260408301526001600160a01b0316606082015260800190565b93845260ff9290921660208401526040830152606082015260800190565b6000602080835283518082850152825b8181101561188a5785810183015185820160400152820161186e565b8181111561189b5783604083870101525b50601f01601f1916929092016040019392505050565b60208082526025908201527f4e64783a3a64656c656761746542795369673a207369676e61747572652065786040820152641c1a5c995960da1b606082015260800190565b60208082526039908201527f4e64783a3a5f7472616e73666572546f6b656e733a2063616e6e6f742074726160408201527f6e7366657220746f20746865207a65726f206164647265737300000000000000606082015260800190565b60208082526019908201527f4e64783a3a7065726d69743a20756e617574686f72697a656400000000000000604082015260600190565b6020808252601e908201527f4e64783a3a7065726d69743a20696e76616c6964207369676e61747572650000604082015260600190565b6020808252603b908201527f4e64783a3a5f7472616e73666572546f6b656e733a2063616e6e6f742074726160408201527f6e736665722066726f6d20746865207a65726f20616464726573730000000000606082015260800190565b60208082526026908201527f4e64783a3a6765745072696f72566f7465733a206e6f742079657420646574656040820152651c9b5a5b995960d21b606082015260800190565b60208082526025908201527f4e64783a3a64656c656761746542795369673a20696e76616c6964207369676e604082015264617475726560d81b606082015260800190565b60208082526021908201527f4e64783a3a64656c656761746542795369673a20696e76616c6964206e6f6e636040820152606560f81b606082015260800190565b6020808252601e908201527f4e64783a3a7065726d69743a207369676e617475726520657870697265640000604082015260600190565b63ffffffff91909116815260200190565b63ffffffff9290921682526001600160601b0316602082015260400190565b60ff91909116815260200190565b6001600160601b0391909116815260200190565b6001600160601b0392831681529116602082015260400190565b6001600160a01b038116811461058c57600080fdfe4e64783a3a7472616e7366657246726f6d3a207472616e7366657220616d6f756e742065786365656473207370656e64657220616c6c6f77616e63654e64783a3a5f6d6f7665566f7465733a20766f746520616d6f756e74206f766572666c6f77734e64783a3a5f7472616e73666572546f6b656e733a207472616e7366657220616d6f756e7420657863656564732062616c616e63654e64783a3a7472616e736665723a20616d6f756e74206578636565647320393620626974734e64783a3a617070726f76653a20616d6f756e74206578636565647320393620626974734e64783a3a7065726d69743a20616d6f756e74206578636565647320393620626974734e64783a3a5f7472616e73666572546f6b656e733a207472616e7366657220616d6f756e74206f766572666c6f77734e64783a3a5f6d6f7665566f7465733a20766f746520616d6f756e7420756e646572666c6f77734e64783a3a5f7772697465436865636b706f696e743a20626c6f636b206e756d62657220657863656564732033322062697473a26469706673582212208ecae4ad1424cfaff75a0525b1119c731155ba273886982e2dd9553c875f5fc164736f6c63430006080033",
  "devdoc": {
    "methods": {}
  },
  "userdoc": {
    "methods": {}
  },
  "storageLayout": {
    "storage": [
      {
        "astId": 2758,
        "contract": "contracts/governance/Ndx.sol:Ndx",
        "label": "totalSupply",
        "offset": 0,
        "slot": "0",
        "type": "t_uint256"
      },
      {
        "astId": 2764,
        "contract": "contracts/governance/Ndx.sol:Ndx",
        "label": "allowances",
        "offset": 0,
        "slot": "1",
        "type": "t_mapping(t_address,t_mapping(t_address,t_uint96))"
      },
      {
        "astId": 2768,
        "contract": "contracts/governance/Ndx.sol:Ndx",
        "label": "balances",
        "offset": 0,
        "slot": "2",
        "type": "t_mapping(t_address,t_uint96)"
      },
      {
        "astId": 2772,
        "contract": "contracts/governance/Ndx.sol:Ndx",
        "label": "delegates",
        "offset": 0,
        "slot": "3",
        "type": "t_mapping(t_address,t_address)"
      },
      {
        "astId": 2783,
        "contract": "contracts/governance/Ndx.sol:Ndx",
        "label": "checkpoints",
        "offset": 0,
        "slot": "4",
        "type": "t_mapping(t_address,t_mapping(t_uint32,t_struct(Checkpoint)2777_storage))"
      },
      {
        "astId": 2787,
        "contract": "contracts/governance/Ndx.sol:Ndx",
        "label": "numCheckpoints",
        "offset": 0,
        "slot": "5",
        "type": "t_mapping(t_address,t_uint32)"
      },
      {
        "astId": 2806,
        "contract": "contracts/governance/Ndx.sol:Ndx",
        "label": "nonces",
        "offset": 0,
        "slot": "6",
        "type": "t_mapping(t_address,t_uint256)"
      }
    ],
    "types": {
      "t_address": {
        "encoding": "inplace",
        "label": "address",
        "numberOfBytes": "20"
      },
      "t_mapping(t_address,t_address)": {
        "encoding": "mapping",
        "key": "t_address",
        "label": "mapping(address => address)",
        "numberOfBytes": "32",
        "value": "t_address"
      },
      "t_mapping(t_address,t_mapping(t_address,t_uint96))": {
        "encoding": "mapping",
        "key": "t_address",
        "label": "mapping(address => mapping(address => uint96))",
        "numberOfBytes": "32",
        "value": "t_mapping(t_address,t_uint96)"
      },
      "t_mapping(t_address,t_mapping(t_uint32,t_struct(Checkpoint)2777_storage))": {
        "encoding": "mapping",
        "key": "t_address",
        "label": "mapping(address => mapping(uint32 => struct Ndx.Checkpoint))",
        "numberOfBytes": "32",
        "value": "t_mapping(t_uint32,t_struct(Checkpoint)2777_storage)"
      },
      "t_mapping(t_address,t_uint256)": {
        "encoding": "mapping",
        "key": "t_address",
        "label": "mapping(address => uint256)",
        "numberOfBytes": "32",
        "value": "t_uint256"
      },
      "t_mapping(t_address,t_uint32)": {
        "encoding": "mapping",
        "key": "t_address",
        "label": "mapping(address => uint32)",
        "numberOfBytes": "32",
        "value": "t_uint32"
      },
      "t_mapping(t_address,t_uint96)": {
        "encoding": "mapping",
        "key": "t_address",
        "label": "mapping(address => uint96)",
        "numberOfBytes": "32",
        "value": "t_uint96"
      },
      "t_mapping(t_uint32,t_struct(Checkpoint)2777_storage)": {
        "encoding": "mapping",
        "key": "t_uint32",
        "label": "mapping(uint32 => struct Ndx.Checkpoint)",
        "numberOfBytes": "32",
        "value": "t_struct(Checkpoint)2777_storage"
      },
      "t_struct(Checkpoint)2777_storage": {
        "encoding": "inplace",
        "label": "struct Ndx.Checkpoint",
        "members": [
          {
            "astId": 2774,
            "contract": "contracts/governance/Ndx.sol:Ndx",
            "label": "fromBlock",
            "offset": 0,
            "slot": "0",
            "type": "t_uint32"
          },
          {
            "astId": 2776,
            "contract": "contracts/governance/Ndx.sol:Ndx",
            "label": "votes",
            "offset": 4,
            "slot": "0",
            "type": "t_uint96"
          }
        ],
        "numberOfBytes": "32"
      },
      "t_uint256": {
        "encoding": "inplace",
        "label": "uint256",
        "numberOfBytes": "32"
      },
      "t_uint32": {
        "encoding": "inplace",
        "label": "uint32",
        "numberOfBytes": "4"
      },
      "t_uint96": {
        "encoding": "inplace",
        "label": "uint96",
        "numberOfBytes": "12"
      }
    }
  },
  "gasEstimates": {
    "creation": {
      "codeDepositCost": "1504800",
      "executionCost": "infinite",
      "totalCost": "infinite"
    },
    "external": {
      "DELEGATION_TYPEHASH()": "442",
      "DOMAIN_TYPEHASH()": "474",
      "PERMIT_TYPEHASH()": "407",
      "allowance(address,address)": "infinite",
      "approve(address,uint256)": "infinite",
      "balanceOf(address)": "1426",
      "checkpoints(address,uint32)": "1616",
      "decimals()": "285",
      "delegate(address)": "infinite",
      "delegateBySig(address,uint256,uint256,uint8,bytes32,bytes32)": "infinite",
      "delegates(address)": "1366",
      "getCurrentVotes(address)": "infinite",
      "getPriorVotes(address,uint256)": "infinite",
      "name()": "infinite",
      "nonceOf(address)": "1385",
      "nonces(address)": "1302",
      "numCheckpoints(address)": "1386",
      "permit(address,address,uint256,uint256,uint8,bytes32,bytes32)": "infinite",
      "symbol()": "infinite",
      "totalSupply()": "1096",
      "transfer(address,uint256)": "infinite",
      "transferFrom(address,address,uint256)": "infinite"
    },
    "internal": {
      "_delegate(address,address)": "infinite",
      "_moveDelegates(address,address,uint96)": "infinite",
      "_transferTokens(address,address,uint96)": "infinite",
      "_writeCheckpoint(address,uint32,uint96,uint96)": "infinite",
      "add96(uint96,uint96,string memory)": "infinite",
      "getChainId()": "14",
      "safe32(uint256,string memory)": "infinite",
      "safe96(uint256,string memory)": "infinite",
      "sub96(uint96,uint96,string memory)": "infinite"
    }
  }
}