{
  "address": "0x2342084BaCed2081093de5729de81FcB9DE77CA6",
  "abi": [
    {
      "inputs": [
        {
          "internalType": "address",
          "name": "account",
          "type": "address"
        }
      ],
      "stateMutability": "nonpayable",
      "type": "constructor"
    },
    {
      "anonymous": false,
      "inputs": [
        {
          "indexed": true,
          "internalType": "address",
          "name": "owner",
          "type": "address"
        },
        {
          "indexed": true,
          "internalType": "address",
          "name": "spender",
          "type": "address"
        },
        {
          "indexed": false,
          "internalType": "uint256",
          "name": "amount",
          "type": "uint256"
        }
      ],
      "name": "Approval",
      "type": "event"
    },
    {
      "anonymous": false,
      "inputs": [
        {
          "indexed": true,
          "internalType": "address",
          "name": "delegator",
          "type": "address"
        },
        {
          "indexed": true,
          "internalType": "address",
          "name": "fromDelegate",
          "type": "address"
        },
        {
          "indexed": true,
          "internalType": "address",
          "name": "toDelegate",
          "type": "address"
        }
      ],
      "name": "DelegateChanged",
      "type": "event"
    },
    {
      "anonymous": false,
      "inputs": [
        {
          "indexed": true,
          "internalType": "address",
          "name": "delegate",
          "type": "address"
        },
        {
          "indexed": false,
          "internalType": "uint256",
          "name": "previousBalance",
          "type": "uint256"
        },
        {
          "indexed": false,
          "internalType": "uint256",
          "name": "newBalance",
          "type": "uint256"
        }
      ],
      "name": "DelegateVotesChanged",
      "type": "event"
    },
    {
      "anonymous": false,
      "inputs": [
        {
          "indexed": true,
          "internalType": "address",
          "name": "from",
          "type": "address"
        },
        {
          "indexed": true,
          "internalType": "address",
          "name": "to",
          "type": "address"
        },
        {
          "indexed": false,
          "internalType": "uint256",
          "name": "amount",
          "type": "uint256"
        }
      ],
      "name": "Transfer",
      "type": "event"
    },
    {
      "inputs": [],
      "name": "DELEGATION_TYPEHASH",
      "outputs": [
        {
          "internalType": "bytes32",
          "name": "",
          "type": "bytes32"
        }
      ],
      "stateMutability": "view",
      "type": "function"
    },
    {
      "inputs": [],
      "name": "DOMAIN_TYPEHASH",
      "outputs": [
        {
          "internalType": "bytes32",
          "name": "",
          "type": "bytes32"
        }
      ],
      "stateMutability": "view",
      "type": "function"
    },
    {
      "inputs": [],
      "name": "PERMIT_TYPEHASH",
      "outputs": [
        {
          "internalType": "bytes32",
          "name": "",
          "type": "bytes32"
        }
      ],
      "stateMutability": "view",
      "type": "function"
    },
    {
      "inputs": [
        {
          "internalType": "address",
          "name": "account",
          "type": "address"
        },
        {
          "internalType": "address",
          "name": "spender",
          "type": "address"
        }
      ],
      "name": "allowance",
      "outputs": [
        {
          "internalType": "uint256",
          "name": "",
          "type": "uint256"
        }
      ],
      "stateMutability": "view",
      "type": "function"
    },
    {
      "inputs": [
        {
          "internalType": "address",
          "name": "spender",
          "type": "address"
        },
        {
          "internalType": "uint256",
          "name": "rawAmount",
          "type": "uint256"
        }
      ],
      "name": "approve",
      "outputs": [
        {
          "internalType": "bool",
          "name": "",
          "type": "bool"
        }
      ],
      "stateMutability": "nonpayable",
      "type": "function"
    },
    {
      "inputs": [
        {
          "internalType": "address",
          "name": "account",
          "type": "address"
        }
      ],
      "name": "balanceOf",
      "outputs": [
        {
          "internalType": "uint256",
          "name": "",
          "type": "uint256"
        }
      ],
      "stateMutability": "view",
      "type": "function"
    },
    {
      "inputs": [
        {
          "internalType": "address",
          "name": "",
          "type": "address"
        },
        {
          "internalType": "uint32",
          "name": "",
          "type": "uint32"
        }
      ],
      "name": "checkpoints",
      "outputs": [
        {
          "internalType": "uint32",
          "name": "fromBlock",
          "type": "uint32"
        },
        {
          "internalType": "uint96",
          "name": "votes",
          "type": "uint96"
        }
      ],
      "stateMutability": "view",
      "type": "function"
    },
    {
      "inputs": [],
      "name": "decimals",
      "outputs": [
        {
          "internalType": "uint8",
          "name": "",
          "type": "uint8"
        }
      ],
      "stateMutability": "view",
      "type": "function"
    },
    {
      "inputs": [
        {
          "internalType": "address",
          "name": "delegatee",
          "type": "address"
        }
      ],
      "name": "delegate",
      "outputs": [],
      "stateMutability": "nonpayable",
      "type": "function"
    },
    {
      "inputs": [
        {
          "internalType": "address",
          "name": "delegatee",
          "type": "address"
        },
        {
          "internalType": "uint256",
          "name": "nonce",
          "type": "uint256"
        },
        {
          "internalType": "uint256",
          "name": "expiry",
          "type": "uint256"
        },
        {
          "internalType": "uint8",
          "name": "v",
          "type": "uint8"
        },
        {
          "internalType": "bytes32",
          "name": "r",
          "type": "bytes32"
        },
        {
          "internalType": "bytes32",
          "name": "s",
          "type": "bytes32"
        }
      ],
      "name": "delegateBySig",
      "outputs": [],
      "stateMutability": "nonpayable",
      "type": "function"
    },
    {
      "inputs": [
        {
          "internalType": "address",
          "name": "",
          "type": "address"
        }
      ],
      "name": "delegates",
      "outputs": [
        {
          "internalType": "address",
          "name": "",
          "type": "address"
        }
      ],
      "stateMutability": "view",
      "type": "function"
    },
    {
      "inputs": [
        {
          "internalType": "address",
          "name": "account",
          "type": "address"
        }
      ],
      "name": "getCurrentVotes",
      "outputs": [
        {
          "internalType": "uint96",
          "name": "",
          "type": "uint96"
        }
      ],
      "stateMutability": "view",
      "type": "function"
    },
    {
      "inputs": [
        {
          "internalType": "address",
          "name": "account",
          "type": "address"
        },
        {
          "internalType": "uint256",
          "name": "blockNumber",
          "type": "uint256"
        }
      ],
      "name": "getPriorVotes",
      "outputs": [
        {
          "internalType": "uint96",
          "name": "",
          "type": "uint96"
        }
      ],
      "stateMutability": "view",
      "type": "function"
    },
    {
      "inputs": [],
      "name": "name",
      "outputs": [
        {
          "internalType": "string",
          "name": "",
          "type": "string"
        }
      ],
      "stateMutability": "view",
      "type": "function"
    },
    {
      "inputs": [
        {
          "internalType": "address",
          "name": "account",
          "type": "address"
        }
      ],
      "name": "nonceOf",
      "outputs": [
        {
          "internalType": "uint256",
          "name": "",
          "type": "uint256"
        }
      ],
      "stateMutability": "view",
      "type": "function"
    },
    {
      "inputs": [
        {
          "internalType": "address",
          "name": "",
          "type": "address"
        }
      ],
      "name": "nonces",
      "outputs": [
        {
          "internalType": "uint256",
          "name": "",
          "type": "uint256"
        }
      ],
      "stateMutability": "view",
      "type": "function"
    },
    {
      "inputs": [
        {
          "internalType": "address",
          "name": "",
          "type": "address"
        }
      ],
      "name": "numCheckpoints",
      "outputs": [
        {
          "internalType": "uint32",
          "name": "",
          "type": "uint32"
        }
      ],
      "stateMutability": "view",
      "type": "function"
    },
    {
      "inputs": [
        {
          "internalType": "address",
          "name": "owner",
          "type": "address"
        },
        {
          "internalType": "address",
          "name": "spender",
          "type": "address"
        },
        {
          "internalType": "uint256",
          "name": "rawAmount",
          "type": "uint256"
        },
        {
          "internalType": "uint256",
          "name": "deadline",
          "type": "uint256"
        },
        {
          "internalType": "uint8",
          "name": "v",
          "type": "uint8"
        },
        {
          "internalType": "bytes32",
          "name": "r",
          "type": "bytes32"
        },
        {
          "internalType": "bytes32",
          "name": "s",
          "type": "bytes32"
        }
      ],
      "name": "permit",
      "outputs": [],
      "stateMutability": "nonpayable",
      "type": "function"
    },
    {
      "inputs": [],
      "name": "symbol",
      "outputs": [
        {
          "internalType": "string",
          "name": "",
          "type": "string"
        }
      ],
      "stateMutability": "view",
      "type": "function"
    },
    {
      "inputs": [],
      "name": "totalSupply",
      "outputs": [
        {
          "internalType": "uint256",
          "name": "",
          "type": "uint256"
        }
      ],
      "stateMutability": "view",
      "type": "function"
    },
    {
      "inputs": [
        {
          "internalType": "address",
          "name": "dst",
          "type": "address"
        },
        {
          "internalType": "uint256",
          "name": "rawAmount",
          "type": "uint256"
        }
      ],
      "name": "transfer",
      "outputs": [
        {
          "internalType": "bool",
          "name": "",
          "type": "bool"
        }
      ],
      "stateMutability": "nonpayable",
      "type": "function"
    },
    {
      "inputs": [
        {
          "internalType": "address",
          "name": "src",
          "type": "address"
        },
        {
          "internalType": "address",
          "name": "dst",
          "type": "address"
        },
        {
          "internalType": "uint256",
          "name": "rawAmount",
          "type": "uint256"
        }
      ],
      "name": "transferFrom",
      "outputs": [
        {
          "internalType": "bool",
          "name": "",
          "type": "bool"
        }
      ],
      "stateMutability": "nonpayable",
      "type": "function"
    }
  ],
  "transactionHash": "0x81724b3106a7d12d363c569b4cca890d43c0ce61d5e270dff7f5861c894db845",
  "args": [
    "0x8740d0EF44FFd926302E36CfAf7A38e61dAD550e"
  ],
  "solcInputHash": "0x43fcf3f647fd4ffb0094f85b511cb9ebe843a0124c6ec39453b1b9fa8626fe20",
  "bytecode": "0x608060405234801561001057600080fd5b5060405162001da938038062001da9833981016040819052610031916100a3565b6001600160a01b03811660008181526001602052604080822080546001600160601b0319166a084595161401484a00000090811790915590517fddf252ad1be2c89b69c2b068fc378daa952ba7f163c4a11628f55a4df523b3ef91610095916100d1565b60405180910390a3506100da565b6000602082840312156100b4578081fd5b81516001600160a01b03811681146100ca578182fd5b9392505050565b90815260200190565b611cbf80620000ea6000396000f3fe608060405234801561001057600080fd5b50600436106101425760003560e01c8063782d6fe1116100b8578063c3cda5201161007c578063c3cda5201461029b578063d505accf146102ae578063dd62ed3e146102c1578063e7a324dc146102d4578063ed2a2d64146102dc578063f1127ed8146102ef57610142565b8063782d6fe11461023a5780637ecebe001461025a57806395d89b411461026d578063a9059cbb14610275578063b4b5ea571461028857610142565b806330adf81f1161010a57806330adf81f146101b5578063313ce567146101bd578063587cde1e146101d25780635c19a95c146101f25780636fcfff451461020757806370a082311461022757610142565b806306fdde0314610147578063095ea7b31461016557806318160ddd1461018557806320606b701461019a57806323b872dd146101a2575b600080fd5b61014f610310565b60405161015c91906117b9565b60405180910390f35b61017861017336600461161a565b610333565b60405161015c919061170b565b61018d6103f0565b60405161015c9190611716565b61018d6103ff565b6101786101b036600461156e565b610423565b61018d610566565b6101c561058a565b60405161015c9190611aac565b6101e56101e036600461151f565b61058f565b60405161015c91906116f7565b61020561020036600461151f565b6105aa565b005b61021a61021536600461151f565b6105b7565b60405161015c9190611a7c565b61018d61023536600461151f565b6105cf565b61024d61024836600461161a565b6105f3565b60405161015c9190611aba565b61018d61026836600461151f565b61080a565b61014f61081c565b61017861028336600461161a565b61083b565b61024d61029636600461151f565b610877565b6102056102a9366004611644565b6108e8565b6102056102bc3660046115ae565b610aed565b61018d6102cf36600461153a565b610ded565b61018d610e1f565b61018d6102ea36600461151f565b610e43565b6103026102fd36600461169d565b610e5e565b60405161015c929190611a8d565b60405180604001604052806007815260200166125b99195e195960ca1b81525081565b600080600019831415610349575060001961036e565b61036b83604051806060016040528060248152602001611bba60249139610e93565b90505b336000818152602081815260408083206001600160a01b03891680855292529182902080546001600160601b0319166001600160601b03861617905590519091907f8c5be1e5ebec7d5bd14f71427d1e84f3dd0314c0f7b2291e5b200ac8c7c3b925906103dc908590611aba565b60405180910390a360019150505b92915050565b6a084595161401484a00000081565b7f8cad95687ba82c2ce50e74f7b754645e5117c3a5bec8151c0726d5857980a86681565b6001600160a01b0383166000908152602081815260408083203380855290835281842054825160608101909352602480845291936001600160601b039091169285926104799288929190611bba90830139610e93565b9050866001600160a01b0316836001600160a01b0316141580156104a657506001600160601b0382811614155b1561054e5760006104d083836040518060600160405280603c8152602001611afe603c9139610ec2565b6001600160a01b03898116600081815260208181526040808320948a16808452949091529081902080546001600160601b0319166001600160601b0386161790555192935090917f8c5be1e5ebec7d5bd14f71427d1e84f3dd0314c0f7b2291e5b200ac8c7c3b92590610544908590611aba565b60405180910390a3505b610559878783610f01565b5060019695505050505050565b7f6e71edae12b1b97f4d1f60370fef10105fa2faae0126114a169c64845d6126c981565b601281565b6002602052600090815260409020546001600160a01b031681565b6105b433826110ac565b50565b60046020526000908152604090205463ffffffff1681565b6001600160a01b03166000908152600160205260409020546001600160601b031690565b600043821061061d5760405162461bcd60e51b815260040161061490611979565b60405180910390fd5b6001600160a01b03831660009081526004602052604090205463ffffffff168061064b5760009150506103ea565b6001600160a01b038416600090815260036020908152604080832063ffffffff6000198601811685529252909120541683106106c7576001600160a01b03841660009081526003602090815260408083206000199490940163ffffffff1683529290522054600160201b90046001600160601b031690506103ea565b6001600160a01b038416600090815260036020908152604080832083805290915290205463ffffffff168310156107025760009150506103ea565b600060001982015b8163ffffffff168163ffffffff1611156107c557600282820363ffffffff160481036107346114e0565b506001600160a01b038716600090815260036020908152604080832063ffffffff858116855290835292819020815180830190925254928316808252600160201b9093046001600160601b031691810191909152908714156107a0576020015194506103ea9350505050565b805163ffffffff168711156107b7578193506107be565b6001820392505b505061070a565b506001600160a01b038516600090815260036020908152604080832063ffffffff909416835292905220546001600160601b03600160201b9091041691505092915050565b60056020526000908152604090205481565b6040518060400160405280600381526020016209c88b60eb1b81525081565b60008061086083604051806060016040528060258152602001611b9560259139610e93565b905061086d338583610f01565b5060019392505050565b6001600160a01b03811660009081526004602052604081205463ffffffff16806108a25760006108e1565b6001600160a01b0383166000908152600360209081526040808320600019850163ffffffff168452909152902054600160201b90046001600160601b03165b9392505050565b604080518082019091526007815266125b99195e195960ca1b60209091015260007f8cad95687ba82c2ce50e74f7b754645e5117c3a5bec8151c0726d5857980a8667fffd1efef9601735c4ae0057fcdc120de0b6c867f1329927f88adaf60cceb9553610953611136565b306040516020016109679493929190611777565b60405160208183030381529060405280519060200120905060007fe48329057bfd03d55e49b547132e39cffd9c1820ad7b9d4c5307691425d15adf8888886040516020016109b89493929190611753565b604051602081830303815290604052805190602001209050600082826040516020016109e59291906116dc565b604051602081830303815290604052805190602001209050600060018288888860405160008152602001604052604051610a22949392919061179b565b6020604051602081039080840390855afa158015610a44573d6000803e3d6000fd5b5050604051601f1901519150506001600160a01b038116610a775760405162461bcd60e51b8152600401610614906119bf565b6001600160a01b03811660009081526005602052604090208054600181019091558914610ab65760405162461bcd60e51b815260040161061490611a04565b87421115610ad65760405162461bcd60e51b81526004016106149061180c565b610ae0818b6110ac565b505050505b505050505050565b6000600019861415610b025750600019610b27565b610b2486604051806060016040528060238152602001611bde60239139610e93565b90505b604080518082019091526007815266125b99195e195960ca1b60209091015260007f8cad95687ba82c2ce50e74f7b754645e5117c3a5bec8151c0726d5857980a8667fffd1efef9601735c4ae0057fcdc120de0b6c867f1329927f88adaf60cceb9553610b92611136565b30604051602001610ba69493929190611777565b60408051601f1981840301815282825280516020918201206001600160a01b038d166000908152600583529283208054600181019091559094509192610c18927f6e71edae12b1b97f4d1f60370fef10105fa2faae0126114a169c64845d6126c9928e928e928e9290918e910161171f565b60405160208183030381529060405280519060200120905060008282604051602001610c459291906116dc565b604051602081830303815290604052805190602001209050600060018289898960405160008152602001604052604051610c82949392919061179b565b6020604051602081039080840390855afa158015610ca4573d6000803e3d6000fd5b5050604051601f1901519150506001600160a01b038116610cd75760405162461bcd60e51b8152600401610614906118e5565b8b6001600160a01b0316816001600160a01b031614610d085760405162461bcd60e51b8152600401610614906118ae565b88421115610d285760405162461bcd60e51b815260040161061490611a45565b846000808e6001600160a01b03166001600160a01b0316815260200190815260200160002060008d6001600160a01b03166001600160a01b0316815260200190815260200160002060006101000a8154816001600160601b0302191690836001600160601b031602179055508a6001600160a01b03168c6001600160a01b03167f8c5be1e5ebec7d5bd14f71427d1e84f3dd0314c0f7b2291e5b200ac8c7c3b92587604051610dd79190611aba565b60405180910390a3505050505050505050505050565b6001600160a01b039182166000908152602081815260408083209390941682529190915220546001600160601b031690565b7fe48329057bfd03d55e49b547132e39cffd9c1820ad7b9d4c5307691425d15adf81565b6001600160a01b031660009081526005602052604090205490565b600360209081526000928352604080842090915290825290205463ffffffff811690600160201b90046001600160601b031682565b600081600160601b8410610eba5760405162461bcd60e51b815260040161061491906117b9565b509192915050565b6000836001600160601b0316836001600160601b031611158290610ef95760405162461bcd60e51b815260040161061491906117b9565b505050900390565b6001600160a01b038316610f275760405162461bcd60e51b81526004016106149061191c565b6001600160a01b038216610f4d5760405162461bcd60e51b815260040161061490611851565b6001600160a01b038316600090815260016020908152604091829020548251606081019093526035808452610f98936001600160601b039092169285929190611b6090830139610ec2565b6001600160a01b03848116600090815260016020908152604080832080546001600160601b0319166001600160601b0396871617905592861682529082902054825160608101909352602f8084526110009491909116928592909190611c019083013961113a565b6001600160a01b038381166000818152600160205260409081902080546001600160601b0319166001600160601b0395909516949094179093559151908516907fddf252ad1be2c89b69c2b068fc378daa952ba7f163c4a11628f55a4df523b3ef9061106d908590611aba565b60405180910390a36001600160a01b038084166000908152600260205260408082205485841683529120546110a792918216911683611176565b505050565b6001600160a01b03808316600081815260026020818152604080842080546001845282862054949093528787166001600160a01b031984168117909155905191909516946001600160601b039092169391928592917f3134e8a2e6d97e929a7e54011ea5485d7d196dd5f0ba4d4ef95803e8e3fc257f9190a4611130828483611176565b50505050565b4690565b6000838301826001600160601b03808716908316101561116d5760405162461bcd60e51b815260040161061491906117b9565b50949350505050565b816001600160a01b0316836001600160a01b0316141580156111a157506000816001600160601b0316115b156110a7576001600160a01b03831615611259576001600160a01b03831660009081526004602052604081205463ffffffff1690816111e1576000611220565b6001600160a01b0385166000908152600360209081526040808320600019860163ffffffff168452909152902054600160201b90046001600160601b03165b905060006112478285604051806060016040528060278152602001611c3060279139610ec2565b905061125586848484611304565b5050505b6001600160a01b038216156110a7576001600160a01b03821660009081526004602052604081205463ffffffff1690816112945760006112d3565b6001600160a01b0384166000908152600360209081526040808320600019860163ffffffff168452909152902054600160201b90046001600160601b03165b905060006112fa8285604051806060016040528060268152602001611b3a6026913961113a565b9050610ae5858484845b600061132843604051806060016040528060338152602001611c57603391396114b9565b905060008463ffffffff1611801561137157506001600160a01b038516600090815260036020908152604080832063ffffffff6000198901811685529252909120548282169116145b156113d0576001600160a01b0385166000908152600360209081526040808320600019880163ffffffff168452909152902080546fffffffffffffffffffffffff000000001916600160201b6001600160601b0385160217905561146f565b60408051808201825263ffffffff80841682526001600160601b0380861660208085019182526001600160a01b038b166000818152600383528781208c871682528352878120965187549451909516600160201b026fffffffffffffffffffffffff000000001995871663ffffffff19958616179590951694909417909555938252600490935292909220805460018801909316929091169190911790555b846001600160a01b03167fdec2bacdd2f05b59de34da9b523dff8be42e5e38e818c82fdb0bae774387a72484846040516114aa929190611ace565b60405180910390a25050505050565b600081600160201b8410610eba5760405162461bcd60e51b815260040161061491906117b9565b604080518082019091526000808252602082015290565b80356001600160a01b03811681146103ea57600080fd5b803560ff811681146103ea57600080fd5b600060208284031215611530578081fd5b6108e183836114f7565b6000806040838503121561154c578081fd5b61155684846114f7565b915061156584602085016114f7565b90509250929050565b600080600060608486031215611582578081fd5b833561158d81611ae8565b9250602084013561159d81611ae8565b929592945050506040919091013590565b600080600080600080600060e0888a0312156115c8578283fd5b6115d289896114f7565b96506115e18960208a016114f7565b955060408801359450606088013593506115fe8960808a0161150e565b925060a0880135915060c0880135905092959891949750929550565b6000806040838503121561162c578182fd5b61163684846114f7565b946020939093013593505050565b60008060008060008060c0878903121561165c578182fd5b61166688886114f7565b95506020870135945060408701359350611683886060890161150e565b92506080870135915060a087013590509295509295509295565b600080604083850312156116af578182fd5b6116b984846114f7565b9150602083013563ffffffff811681146116d1578182fd5b809150509250929050565b61190160f01b81526002810192909252602282015260420190565b6001600160a01b0391909116815260200190565b901515815260200190565b90815260200190565b9586526001600160a01b0394851660208701529290931660408501526060840152608083019190915260a082015260c00190565b9384526001600160a01b039290921660208401526040830152606082015260800190565b938452602084019290925260408301526001600160a01b0316606082015260800190565b93845260ff9290921660208401526040830152606082015260800190565b6000602080835283518082850152825b818110156117e5578581018301518582016040015282016117c9565b818111156117f65783604083870101525b50601f01601f1916929092016040019392505050565b60208082526025908201527f4e64783a3a64656c656761746542795369673a207369676e61747572652065786040820152641c1a5c995960da1b606082015260800190565b60208082526039908201527f4e64783a3a5f7472616e73666572546f6b656e733a2063616e6e6f742074726160408201527f6e7366657220746f20746865207a65726f206164647265737300000000000000606082015260800190565b60208082526019908201527f4e64783a3a7065726d69743a20756e617574686f72697a656400000000000000604082015260600190565b6020808252601e908201527f4e64783a3a7065726d69743a20696e76616c6964207369676e61747572650000604082015260600190565b6020808252603b908201527f4e64783a3a5f7472616e73666572546f6b656e733a2063616e6e6f742074726160408201527f6e736665722066726f6d20746865207a65726f20616464726573730000000000606082015260800190565b60208082526026908201527f4e64783a3a6765745072696f72566f7465733a206e6f742079657420646574656040820152651c9b5a5b995960d21b606082015260800190565b60208082526025908201527f4e64783a3a64656c656761746542795369673a20696e76616c6964207369676e604082015264617475726560d81b606082015260800190565b60208082526021908201527f4e64783a3a64656c656761746542795369673a20696e76616c6964206e6f6e636040820152606560f81b606082015260800190565b6020808252601e908201527f4e64783a3a7065726d69743a207369676e617475726520657870697265640000604082015260600190565b63ffffffff91909116815260200190565b63ffffffff9290921682526001600160601b0316602082015260400190565b60ff91909116815260200190565b6001600160601b0391909116815260200190565b6001600160601b0392831681529116602082015260400190565b6001600160a01b03811681146105b457600080fdfe4e64783a3a7472616e7366657246726f6d3a207472616e7366657220616d6f756e742065786365656473207370656e64657220616c6c6f77616e63654e64783a3a5f6d6f7665566f7465733a20766f746520616d6f756e74206f766572666c6f77734e64783a3a5f7472616e73666572546f6b656e733a207472616e7366657220616d6f756e7420657863656564732062616c616e63654e64783a3a7472616e736665723a20616d6f756e74206578636565647320393620626974734e64783a3a617070726f76653a20616d6f756e74206578636565647320393620626974734e64783a3a7065726d69743a20616d6f756e74206578636565647320393620626974734e64783a3a5f7472616e73666572546f6b656e733a207472616e7366657220616d6f756e74206f766572666c6f77734e64783a3a5f6d6f7665566f7465733a20766f746520616d6f756e7420756e646572666c6f77734e64783a3a5f7772697465436865636b706f696e743a20626c6f636b206e756d62657220657863656564732033322062697473a2646970667358221220c23df9c0a75c5825285da0b18344db30fb21d7f8a0dd742042a97d3c64f0470064736f6c634300060c0033",
  "devdoc": {
    "kind": "dev",
    "methods": {},
    "version": 1
  },
  "userdoc": {
    "kind": "user",
    "methods": {
      "decimals()": {
        "notice": "EIP-20 token decimals for this token"
      },
      "name()": {
        "notice": "EIP-20 token name for this token"
      },
      "symbol()": {
        "notice": "EIP-20 token symbol for this token"
      },
      "totalSupply()": {
        "notice": "Total number of tokens in circulation"
      }
    },
    "version": 1
  },
  "storageLayout": {
    "storage": [
      {
        "astId": 3991,
        "contract": "contracts/governance/Ndx.sol:Ndx",
        "label": "allowances",
        "offset": 0,
        "slot": "0",
        "type": "t_mapping(t_address,t_mapping(t_address,t_uint96))"
      },
      {
        "astId": 3995,
        "contract": "contracts/governance/Ndx.sol:Ndx",
        "label": "balances",
        "offset": 0,
        "slot": "1",
        "type": "t_mapping(t_address,t_uint96)"
      },
      {
        "astId": 3999,
        "contract": "contracts/governance/Ndx.sol:Ndx",
        "label": "delegates",
        "offset": 0,
        "slot": "2",
        "type": "t_mapping(t_address,t_address)"
      },
      {
        "astId": 4010,
        "contract": "contracts/governance/Ndx.sol:Ndx",
        "label": "checkpoints",
        "offset": 0,
        "slot": "3",
        "type": "t_mapping(t_address,t_mapping(t_uint32,t_struct(Checkpoint)4004_storage))"
      },
      {
        "astId": 4014,
        "contract": "contracts/governance/Ndx.sol:Ndx",
        "label": "numCheckpoints",
        "offset": 0,
        "slot": "4",
        "type": "t_mapping(t_address,t_uint32)"
      },
      {
        "astId": 4033,
        "contract": "contracts/governance/Ndx.sol:Ndx",
        "label": "nonces",
        "offset": 0,
        "slot": "5",
        "type": "t_mapping(t_address,t_uint256)"
      }
    ],
    "types": {
      "t_address": {
        "encoding": "inplace",
        "label": "address",
        "numberOfBytes": "20"
      },
      "t_mapping(t_address,t_address)": {
        "encoding": "mapping",
        "key": "t_address",
        "label": "mapping(address => address)",
        "numberOfBytes": "32",
        "value": "t_address"
      },
      "t_mapping(t_address,t_mapping(t_address,t_uint96))": {
        "encoding": "mapping",
        "key": "t_address",
        "label": "mapping(address => mapping(address => uint96))",
        "numberOfBytes": "32",
        "value": "t_mapping(t_address,t_uint96)"
      },
      "t_mapping(t_address,t_mapping(t_uint32,t_struct(Checkpoint)4004_storage))": {
        "encoding": "mapping",
        "key": "t_address",
        "label": "mapping(address => mapping(uint32 => struct Ndx.Checkpoint))",
        "numberOfBytes": "32",
        "value": "t_mapping(t_uint32,t_struct(Checkpoint)4004_storage)"
      },
      "t_mapping(t_address,t_uint256)": {
        "encoding": "mapping",
        "key": "t_address",
        "label": "mapping(address => uint256)",
        "numberOfBytes": "32",
        "value": "t_uint256"
      },
      "t_mapping(t_address,t_uint32)": {
        "encoding": "mapping",
        "key": "t_address",
        "label": "mapping(address => uint32)",
        "numberOfBytes": "32",
        "value": "t_uint32"
      },
      "t_mapping(t_address,t_uint96)": {
        "encoding": "mapping",
        "key": "t_address",
        "label": "mapping(address => uint96)",
        "numberOfBytes": "32",
        "value": "t_uint96"
      },
      "t_mapping(t_uint32,t_struct(Checkpoint)4004_storage)": {
        "encoding": "mapping",
        "key": "t_uint32",
        "label": "mapping(uint32 => struct Ndx.Checkpoint)",
        "numberOfBytes": "32",
        "value": "t_struct(Checkpoint)4004_storage"
      },
      "t_struct(Checkpoint)4004_storage": {
        "encoding": "inplace",
        "label": "struct Ndx.Checkpoint",
        "members": [
          {
            "astId": 4001,
            "contract": "contracts/governance/Ndx.sol:Ndx",
            "label": "fromBlock",
            "offset": 0,
            "slot": "0",
            "type": "t_uint32"
          },
          {
            "astId": 4003,
            "contract": "contracts/governance/Ndx.sol:Ndx",
            "label": "votes",
            "offset": 4,
            "slot": "0",
            "type": "t_uint96"
          }
        ],
        "numberOfBytes": "32"
      },
      "t_uint256": {
        "encoding": "inplace",
        "label": "uint256",
        "numberOfBytes": "32"
      },
      "t_uint32": {
        "encoding": "inplace",
        "label": "uint32",
        "numberOfBytes": "4"
      },
      "t_uint96": {
        "encoding": "inplace",
        "label": "uint96",
        "numberOfBytes": "12"
      }
    }
  },
  "gasEstimates": {
    "creation": {
      "codeDepositCost": "1471800",
      "executionCost": "infinite",
      "totalCost": "infinite"
    },
    "external": {
      "DELEGATION_TYPEHASH()": "316",
      "DOMAIN_TYPEHASH()": "318",
      "PERMIT_TYPEHASH()": "251",
      "allowance(address,address)": "infinite",
      "approve(address,uint256)": "infinite",
      "balanceOf(address)": "1426",
      "checkpoints(address,uint32)": "1616",
      "decimals()": "285",
      "delegate(address)": "infinite",
      "delegateBySig(address,uint256,uint256,uint8,bytes32,bytes32)": "infinite",
      "delegates(address)": "1366",
      "getCurrentVotes(address)": "infinite",
      "getPriorVotes(address,uint256)": "infinite",
      "name()": "infinite",
      "nonceOf(address)": "1385",
      "nonces(address)": "1302",
      "numCheckpoints(address)": "1386",
      "permit(address,address,uint256,uint256,uint8,bytes32,bytes32)": "infinite",
      "symbol()": "infinite",
      "totalSupply()": "296",
      "transfer(address,uint256)": "infinite",
      "transferFrom(address,address,uint256)": "infinite"
    },
    "internal": {
      "_delegate(address,address)": "infinite",
      "_moveDelegates(address,address,uint96)": "infinite",
      "_transferTokens(address,address,uint96)": "infinite",
      "_writeCheckpoint(address,uint32,uint96,uint96)": "infinite",
      "add96(uint96,uint96,string memory)": "infinite",
      "getChainId()": "14",
      "safe32(uint256,string memory)": "infinite",
      "safe96(uint256,string memory)": "infinite",
      "sub96(uint96,uint96,string memory)": "infinite"
    }
  }
}