{
  "abi": [
    {
      "inputs": [
        {
          "internalType": "address",
          "name": "owner_",
          "type": "address"
        },
        {
          "internalType": "address",
          "name": "rewardsToken_",
          "type": "address"
        },
        {
          "internalType": "uint256",
          "name": "stakingRewardsGenesis_",
          "type": "uint256"
        },
        {
          "internalType": "address",
          "name": "proxyManager_",
          "type": "address"
        },
        {
          "internalType": "address",
          "name": "poolFactory_",
          "type": "address"
        },
        {
          "internalType": "address",
          "name": "uniswapFactory_",
          "type": "address"
        },
        {
          "internalType": "address",
          "name": "weth_",
          "type": "address"
        }
      ],
      "stateMutability": "nonpayable",
      "type": "constructor"
    },
    {
      "anonymous": false,
      "inputs": [
        {
          "indexed": false,
          "internalType": "address",
          "name": "newOwner",
          "type": "address"
        }
      ],
      "name": "OwnerSet",
      "type": "event"
    },
    {
      "anonymous": false,
      "inputs": [
        {
          "indexed": false,
          "internalType": "address",
          "name": "stakingToken",
          "type": "address"
        },
        {
          "indexed": false,
          "internalType": "address",
          "name": "stakingRewards",
          "type": "address"
        }
      ],
      "name": "StakingRewardsAdded",
      "type": "event"
    },
    {
      "inputs": [],
      "name": "STAKING_REWARDS_IMPLEMENTATION_ID",
      "outputs": [
        {
          "internalType": "bytes32",
          "name": "",
          "type": "bytes32"
        }
      ],
      "stateMutability": "view",
      "type": "function"
    },
    {
      "inputs": [
        {
          "internalType": "address",
          "name": "stakingToken",
          "type": "address"
        }
      ],
      "name": "computeStakingRewardsAddress",
      "outputs": [
        {
          "internalType": "address",
          "name": "",
          "type": "address"
        }
      ],
      "stateMutability": "view",
      "type": "function"
    },
    {
      "inputs": [
        {
          "internalType": "address",
          "name": "indexPool",
          "type": "address"
        },
        {
          "internalType": "uint88",
          "name": "rewardAmount",
          "type": "uint88"
        }
      ],
      "name": "deployStakingRewardsForPool",
      "outputs": [],
      "stateMutability": "nonpayable",
      "type": "function"
    },
    {
      "inputs": [
        {
          "internalType": "address",
          "name": "indexPool",
          "type": "address"
        },
        {
          "internalType": "uint88",
          "name": "rewardAmount",
          "type": "uint88"
        }
      ],
      "name": "deployStakingRewardsForPoolUniswapPair",
      "outputs": [],
      "stateMutability": "nonpayable",
      "type": "function"
    },
    {
      "inputs": [],
      "name": "getOwner",
      "outputs": [
        {
          "internalType": "address",
          "name": "",
          "type": "address"
        }
      ],
      "stateMutability": "view",
      "type": "function"
    },
    {
      "inputs": [
        {
          "internalType": "address",
          "name": "stakingToken",
          "type": "address"
        }
      ],
      "name": "getStakingRewards",
      "outputs": [
        {
          "internalType": "address",
          "name": "",
          "type": "address"
        }
      ],
      "stateMutability": "view",
      "type": "function"
    },
    {
      "inputs": [],
      "name": "getStakingTokens",
      "outputs": [
        {
          "internalType": "address[]",
          "name": "",
          "type": "address[]"
        }
      ],
      "stateMutability": "view",
      "type": "function"
    },
    {
      "inputs": [
        {
          "internalType": "address",
          "name": "stakingToken",
          "type": "address"
        }
      ],
      "name": "notifyRewardAmount",
      "outputs": [],
      "stateMutability": "nonpayable",
      "type": "function"
    },
    {
      "inputs": [],
      "name": "notifyRewardAmounts",
      "outputs": [],
      "stateMutability": "nonpayable",
      "type": "function"
    },
    {
      "inputs": [],
      "name": "poolFactory",
      "outputs": [
        {
          "internalType": "contract IPoolFactory",
          "name": "",
          "type": "address"
        }
      ],
      "stateMutability": "view",
      "type": "function"
    },
    {
      "inputs": [],
      "name": "proxyManager",
      "outputs": [
        {
          "internalType": "contract IDelegateCallProxyManager",
          "name": "",
          "type": "address"
        }
      ],
      "stateMutability": "view",
      "type": "function"
    },
    {
      "inputs": [],
      "name": "rewardsToken",
      "outputs": [
        {
          "internalType": "address",
          "name": "",
          "type": "address"
        }
      ],
      "stateMutability": "view",
      "type": "function"
    },
    {
      "inputs": [
        {
          "internalType": "address",
          "name": "owner",
          "type": "address"
        }
      ],
      "name": "setOwner",
      "outputs": [],
      "stateMutability": "nonpayable",
      "type": "function"
    },
    {
      "inputs": [],
      "name": "stakingRewardsGenesis",
      "outputs": [
        {
          "internalType": "uint256",
          "name": "",
          "type": "uint256"
        }
      ],
      "stateMutability": "view",
      "type": "function"
    },
    {
      "inputs": [
        {
          "internalType": "address",
          "name": "",
          "type": "address"
        }
      ],
      "name": "stakingRewardsInfoByStakingToken",
      "outputs": [
        {
          "internalType": "enum StakingRewardsFactory.StakingTokenType",
          "name": "tokenType",
          "type": "uint8"
        },
        {
          "internalType": "address",
          "name": "stakingRewards",
          "type": "address"
        },
        {
          "internalType": "uint88",
          "name": "rewardAmount",
          "type": "uint88"
        }
      ],
      "stateMutability": "view",
      "type": "function"
    },
    {
      "inputs": [
        {
          "internalType": "uint256",
          "name": "",
          "type": "uint256"
        }
      ],
      "name": "stakingTokens",
      "outputs": [
        {
          "internalType": "address",
          "name": "",
          "type": "address"
        }
      ],
      "stateMutability": "view",
      "type": "function"
    },
    {
      "inputs": [],
      "name": "uniswapFactory",
      "outputs": [
        {
          "internalType": "address",
          "name": "",
          "type": "address"
        }
      ],
      "stateMutability": "view",
      "type": "function"
    },
    {
      "inputs": [],
      "name": "weth",
      "outputs": [
        {
          "internalType": "address",
          "name": "",
          "type": "address"
        }
      ],
      "stateMutability": "view",
      "type": "function"
    }
  ],
  "address": "0x1f7512C99b10d5A8808737814cb6466437Fc6147",
  "args": [
    "0x8740d0EF44FFd926302E36CfAf7A38e61dAD550e",
    "0x02AfdbcB4498d0F2989f199d3D2f67ea2503308D",
    1602905903,
    "0x242836cdb4578d4C7ce43E07669cDcDcf9cA7483",
    "0x906c33a704B43006602c7A4386659480E3aEe7d4",
    "0x5C69bEe701ef814a2B6a3EDD4B1652CB9cc5aA6f",
    "0x6c9cE9Dba75B833bE733f78aA6836572245964Ad"
  ],
  "solcInputHash": "0xa3feb7905933c0ea602c5096dbb7a5cd98f38d9ffb8083ad579ddc0892699f00",
  "bytecode": "0x61014060405234801561001157600080fd5b50604051611b83380380611b83833981810160405260e081101561003457600080fd5b508051602082015160408301516060840151608085015160a086015160c0909601519495939492939192909190866001600160a01b0381166100b0576040805162461bcd60e51b815260206004820152601060248201526f4552525f4e554c4c5f4144445245535360801b604482015290519081900360640190fd5b600080546001600160a01b0319166001600160a01b0392909216919091179055606086901b6001600160601b03191660c052428510156101215760405162461bcd60e51b8152600401808060200182810382526034815260200180611b4f6034913960400191505060405180910390fd5b610120949094526001600160601b0319606093841b811660a05291831b8216608052821b811660e05291901b1661010052505060805160601c60a05160601c60c05160601c60e05160601c6101005160601c610120516119766101d9600039806109e05280610c7b525080610594528061072f525080610c33525080610b035280610d495250806103d6528061082b5280610c575280610fd05250806105b8528061062b528061070d5280610e7e52506119766000f3fe608060405234801561001057600080fd5b50600436106101165760003560e01c8063893d20e8116100a2578063ae741d8d11610071578063ae741d8d146102cf578063ccf2c532146102d7578063d1af0c7d146102df578063da1d111b146102e7578063e70459db1461033f57610116565b8063893d20e81461029d5780638bdb2afa146102a557806396b4ca70146102ad578063a0928c11146102b557610116565b80633fc8cef3116100e95780633fc8cef3146101c85780634219dc40146101d057806360583f8c146101d85780636cf8caf81461020d57806381e162981461027757610116565b8063050848541461011b57806313af40351461015d57806321efe20014610185578063344e5e34146101ab575b600080fd5b6101416004803603602081101561013157600080fd5b50356001600160a01b0316610374565b604080516001600160a01b039092168252519081900360200190f35b6101836004803603602081101561017357600080fd5b50356001600160a01b0316610405565b005b6101416004803603602081101561019b57600080fd5b50356001600160a01b03166104f6565b610141600480360360208110156101c157600080fd5b503561056b565b610141610592565b6101416105b6565b610183600480360360408110156101ee57600080fd5b5080356001600160a01b031690602001356001600160581b03166105da565b6102336004803603602081101561022357600080fd5b50356001600160a01b03166109a8565b6040518084600181111561024357fe5b60ff1681526001600160a01b039093166020840152506001600160581b031660408083019190915251908190036060019150f35b6101836004803603602081101561028d57600080fd5b50356001600160a01b03166109de565b610141610c22565b610141610c31565b610141610c55565b6102bd610c79565b60408051918252519081900360200190f35b610183610c9d565b6102bd610d1d565b610141610d47565b6102ef610d6b565b60408051602080825283518183015283519192839290830191858101910280838360005b8381101561032b578181015183820152602001610313565b505050509050019250505060405180910390f35b6101836004803603604081101561035557600080fd5b5080356001600160a01b031690602001356001600160581b0316610dcd565b604080516001600160601b0319606084901b166020808301919091528251808303601401815260348301808552815191909201207114dd185ada5b99d4995dd85c991ccb9cdbdb60721b9091529151908190036046019020600091906103fe907f000000000000000000000000000000000000000000000000000000000000000090309084611186565b9392505050565b6000546001600160a01b03163314610454576040805162461bcd60e51b815260206004820152600d60248201526c22a9292fa727aa2fa7aba722a960991b604482015290519081900360640190fd5b6001600160a01b0381166104a2576040805162461bcd60e51b815260206004820152601060248201526f4552525f4e554c4c5f4144445245535360801b604482015290519081900360640190fd5b600080546001600160a01b0383166001600160a01b0319909116811790915560408051918252517f50146d0e3c60aa1d17a70635b05494f864e86144a2201275021014fbf08bafe29181900360200190a150565b6001600160a01b0380821660009081526002602052604081208054919290916101009004166105565760405162461bcd60e51b81526004018080602001828103825260368152602001806117236036913960400191505060405180910390fd5b5461010090046001600160a01b031692915050565b6001818154811061057857fe5b6000918252602090912001546001600160a01b0316905081565b7f000000000000000000000000000000000000000000000000000000000000000081565b7f000000000000000000000000000000000000000000000000000000000000000081565b6000546001600160a01b03163314610629576040805162461bcd60e51b815260206004820152600d60248201526c22a9292fa727aa2fa7aba722a960991b604482015290519081900360640190fd5b7f00000000000000000000000000000000000000000000000000000000000000006001600160a01b031663ce7713b7836040518263ffffffff1660e01b815260040180826001600160a01b03166001600160a01b0316815260200191505060206040518083038186803b15801561069f57600080fd5b505afa1580156106b3573d6000803e3d6000fd5b505050506040513d60208110156106c957600080fd5b50516107065760405162461bcd60e51b81526004018080602001828103825260528152602001806116d16052913960600191505060405180910390fd5b60006107537f0000000000000000000000000000000000000000000000000000000000000000847f00000000000000000000000000000000000000000000000000000000000000006111d5565b6001600160a01b038082166000908152600260205260409020805492935091610100900416156107b45760405162461bcd60e51b815260040180806020018281038252604f81526020018061177e604f913960600191505060405180910390fd5b604080516001600160601b0319606085901b1660208083019190915282518083036014018152603483018085528151918301919091207114dd185ada5b99d4995dd85c991ccb9cdbdb60721b9091528351928390036046018320631a5e5bc560e01b845260048401526024830181905292516000927f00000000000000000000000000000000000000000000000000000000000000006001600160a01b031692631a5e5bc59260448084019382900301818787803b15801561087557600080fd5b505af1158015610889573d6000803e3d6000fd5b505050506040513d602081101561089f57600080fd5b50516040805163189acdbd60e31b81526001600160a01b03898116600483015291519293509083169163c4d66de89160248082019260009290919082900301818387803b1580156108ef57600080fd5b505af1158015610903573d6000803e3d6000fd5b50508454610100600160a81b0319166101006001600160a01b03851602176001600160a81b0316600160a81b6001600160581b03891602178086556000925085915060ff19166001830217905550506001805480820182556000919091527fb10e2d527612073b26eecdfd717e6a320cf44b4afac2b0732d9fcbe2b7fa0cf60180546001600160a01b0319166001600160a01b03949094169390931790925550505050565b60026020526000908152604090205460ff81169061010081046001600160a01b031690600160a81b90046001600160581b031683565b7f0000000000000000000000000000000000000000000000000000000000000000421015610a3d5760405162461bcd60e51b81526004018080602001828103825260348152602001806117cd6034913960400191505060405180910390fd5b6001600160a01b0380821660009081526002602052604090208054909161010090910416610a9c5760405162461bcd60e51b81526004018080602001828103825260378152602001806118476037913960400191505060405180910390fd5b8054600160a81b90046001600160581b031615610c1e5780546001600160a81b0381168083556040805163a9059cbb60e01b81526001600160a01b0361010090930483166004820152600160a81b9093046001600160581b031660248401819052905190927f00000000000000000000000000000000000000000000000000000000000000009092169163a9059cbb9160448083019260209291908290030181600087803b158015610b4d57600080fd5b505af1158015610b61573d6000803e3d6000fd5b505050506040513d6020811015610b7757600080fd5b5051610bb45760405162461bcd60e51b815260040180806020018281038252603a81526020018061187e603a913960400191505060405180910390fd5b815460408051633c6b16ab60e01b81526004810184905290516101009092046001600160a01b031691633c6b16ab9160248082019260009290919082900301818387803b158015610c0457600080fd5b505af1158015610c18573d6000803e3d6000fd5b50505050505b5050565b6000546001600160a01b031690565b7f000000000000000000000000000000000000000000000000000000000000000081565b7f000000000000000000000000000000000000000000000000000000000000000081565b7f000000000000000000000000000000000000000000000000000000000000000081565b600154610cdb5760405162461bcd60e51b81526004018080602001828103825260458152602001806118b86045913960600191505060405180910390fd5b60005b600154811015610d1a57610d1260018281548110610cf857fe5b6000918252602090912001546001600160a01b03166109de565b600101610cde565b50565b604080517114dd185ada5b99d4995dd85c991ccb9cdbdb60721b8152905190819003601201902081565b7f000000000000000000000000000000000000000000000000000000000000000081565b60606001805480602002602001604051908101604052809291908181526020018280548015610dc357602002820191906000526020600020905b81546001600160a01b03168152600190910190602001808311610da5575b5050505050905090565b6000546001600160a01b03163314610e1c576040805162461bcd60e51b815260206004820152600d60248201526c22a9292fa727aa2fa7aba722a960991b604482015290519081900360640190fd5b6001600160a01b038083166000908152600260205260409020805490916101009091041615610e7c5760405162461bcd60e51b81526004018080602001828103825260448152602001806118fd6044913960600191505060405180910390fd5b7f00000000000000000000000000000000000000000000000000000000000000006001600160a01b031663ce7713b7846040518263ffffffff1660e01b815260040180826001600160a01b03166001600160a01b0316815260200191505060206040518083038186803b158015610ef257600080fd5b505afa158015610f06573d6000803e3d6000fd5b505050506040513d6020811015610f1c57600080fd5b5051610f595760405162461bcd60e51b81526004018080602001828103825260468152602001806118016046913960600191505060405180910390fd5b604080516001600160601b0319606086901b1660208083019190915282518083036014018152603483018085528151918301919091207114dd185ada5b99d4995dd85c991ccb9cdbdb60721b9091528351928390036046018320631a5e5bc560e01b845260048401526024830181905292516000927f00000000000000000000000000000000000000000000000000000000000000006001600160a01b031692631a5e5bc59260448084019382900301818787803b15801561101a57600080fd5b505af115801561102e573d6000803e3d6000fd5b505050506040513d602081101561104457600080fd5b50516040805163189acdbd60e31b81526001600160a01b03888116600483015291519293509083169163c4d66de89160248082019260009290919082900301818387803b15801561109457600080fd5b505af11580156110a8573d6000803e3d6000fd5b50508454610100600160a81b0319166101006001600160a01b03851602176001600160a81b0316600160a81b6001600160581b03881602178086556001925085915060ff1916828002179055506001805480820182556000919091527fb10e2d527612073b26eecdfd717e6a320cf44b4afac2b0732d9fcbe2b7fa0cf60180546001600160a01b0319166001600160a01b0387811691821790925560408051918252918316602082015281517fb498ca5450d8f0d98cbeb144c01db40247ef73eac099c52dc7cff3175f935645929181900390910190a15050505050565b6000806111948585856111f3565b90506111cb81604051806020016111aa90611412565b6020820181038252601f19601f82011660405250805190602001208861123b565b9695505050505050565b60008060006111e48585611291565b915091506111cb86838361136f565b6040805160609490941b6001600160601b0319166020808601919091526034850193909352605480850192909252805180850390920182526074909301909252815191012090565b604080516001600160f81b031960208083019190915260609390931b6001600160601b03191660218201526035810194909452605580850193909352805180850390930183526075909301909252805191012090565b600080826001600160a01b0316846001600160a01b031614156112e55760405162461bcd60e51b81526004018080602001828103825260258152602001806117596025913960400191505060405180910390fd5b826001600160a01b0316846001600160a01b031610611305578284611308565b83835b90925090506001600160a01b038216611368576040805162461bcd60e51b815260206004820152601e60248201527f556e697377617056324c6962726172793a205a45524f5f414444524553530000604482015290519081900360640190fd5b9250929050565b604080516001600160601b0319606094851b811660208084019190915293851b81166034830152825160288184030181526048830184528051908501206001600160f81b031960688401529590941b9093166069840152607d8301939093527f96e8ac4277198ff8b6f785478aa9a39f403cb768dd02cbee326c3e7da348845f609d808401919091528351808403909101815260bd909201909252805191012090565b6102b1806114208339019056fe60a060405234801561001057600080fd5b50336001600160a01b0316631da0505d6040518163ffffffff1660e01b815260040160206040518083038186803b15801561004a57600080fd5b505afa15801561005e573d6000803e3d6000fd5b505050506040513d602081101561007457600080fd5b5051606081901b6001600160601b0319166080526001600160a01b031661020a6100a7600039806046525061020a6000f3fe60806040523661001357610011610017565b005b6100115b61001f61002f565b61002f61002a610031565b6101b0565b565b60405160009081906060906001600160a01b037f0000000000000000000000000000000000000000000000000000000000000000169083818181855afa9150503d806000811461009d576040519150601f19603f3d011682016040523d82523d6000602084013e6100a2565b606091505b50915091508181906101325760405162461bcd60e51b81526004018080602001828103825283818151815260200191508051906020019080838360005b838110156100f75781810151838201526020016100df565b50505050905090810190601f1680156101245780820380516001836020036101000a031916815260200191505b509250505060405180910390fd5b50600081806020019051602081101561014a57600080fd5b505190506001600160a01b0381166101a9576040805162461bcd60e51b815260206004820152601760248201527f4552525f4e554c4c5f494d504c454d454e544154494f4e000000000000000000604482015290519081900360640190fd5b9250505090565b3660008037600080366000845af43d6000803e8080156101cf573d6000f35b3d6000fdfea264697066735822122099d1f90ae9ebb62a0e0470f2852c625ff37c89f44ac394dad31f2756945ad03b64736f6c634300060800335374616b696e6752657761726473466163746f72793a3a6465706c6f797374616b696e6752657761726473466f72496e646578556e6973776170506169723a204e6f7420616e20696e64657820706f6f6c2e5374616b696e6752657761726473466163746f72793a3a6765745374616b696e67526577617264733a204e6f74206465706c6f796564556e697377617056324c6962726172793a204944454e544943414c5f4144445245535345535374616b696e6752657761726473466163746f72793a3a6465706c6f795374616b696e6752657761726473466f72506f6f6c556e6973776170506169723a20416c7265616479206465706c6f7965645374616b696e6752657761726473466163746f72793a3a6e6f74696679526577617264416d6f756e743a204e6f742072656164795374616b696e6752657761726473466163746f72793a3a6465706c6f795374616b696e6752657761726473466f72506f6f6c3a204e6f7420616e20696e64657820706f6f6c2e5374616b696e6752657761726473466163746f72793a3a6e6f74696679526577617264416d6f756e743a204e6f74206465706c6f7965645374616b696e6752657761726473466163746f72793a3a6e6f74696679526577617264416d6f756e743a205472616e73666572206661696c65645374616b696e6752657761726473466163746f72793a3a6e6f74696679526577617264416d6f756e74733a2063616c6c6564206265666f726520616e79206465706c6f79735374616b696e6752657761726473466163746f72793a3a6465706c6f795374616b696e6752657761726473466f72506f6f6c3a20416c7265616479206465706c6f796564a264697066735822122073224dcb9502b07683dfc0cc2d29c2d2cd826dbbaf121e5fcc46a813217ebe8b64736f6c634300060800335374616b696e6752657761726473466163746f72793a3a636f6e7374727563746f723a2067656e6573697320746f6f20736f6f6e",
  "devdoc": {
    "methods": {
      "deployStakingRewardsForPool(address,uint88)": {
        "details": "Deploys a staking pool for the LP token of an index pool.   * Verifies that the staking token is the address of a pool deployed by the Indexed pool factory."
      },
      "deployStakingRewardsForPoolUniswapPair(address,uint88)": {
        "details": "Deploys staking rewards for the LP token of the Uniswap pair between an index pool token and WETH.   * Verifies that the LP token is the address of a pool deployed by the Indexed pool factory, then uses the address of the Uniswap pair between it and WETH as the staking token."
      }
    }
  },
  "userdoc": {
    "methods": {}
  },
  "storageLayout": {
    "storage": [
      {
        "astId": 14043,
        "contract": "contracts/distribution/StakingRewardsFactory.sol:StakingRewardsFactory",
        "label": "_owner",
        "offset": 0,
        "slot": "0",
        "type": "t_address"
      },
      {
        "astId": 10431,
        "contract": "contracts/distribution/StakingRewardsFactory.sol:StakingRewardsFactory",
        "label": "stakingTokens",
        "offset": 0,
        "slot": "1",
        "type": "t_array(t_address)dyn_storage"
      },
      {
        "astId": 10435,
        "contract": "contracts/distribution/StakingRewardsFactory.sol:StakingRewardsFactory",
        "label": "stakingRewardsInfoByStakingToken",
        "offset": 0,
        "slot": "2",
        "type": "t_mapping(t_address,t_struct(StakingRewardsInfo)10428_storage)"
      }
    ],
    "types": {
      "t_address": {
        "encoding": "inplace",
        "label": "address",
        "numberOfBytes": "20"
      },
      "t_array(t_address)dyn_storage": {
        "base": "t_address",
        "encoding": "dynamic_array",
        "label": "address[]",
        "numberOfBytes": "32"
      },
      "t_enum(StakingTokenType)10421": {
        "encoding": "inplace",
        "label": "enum StakingRewardsFactory.StakingTokenType",
        "numberOfBytes": "1"
      },
      "t_mapping(t_address,t_struct(StakingRewardsInfo)10428_storage)": {
        "encoding": "mapping",
        "key": "t_address",
        "label": "mapping(address => struct StakingRewardsFactory.StakingRewardsInfo)",
        "numberOfBytes": "32",
        "value": "t_struct(StakingRewardsInfo)10428_storage"
      },
      "t_struct(StakingRewardsInfo)10428_storage": {
        "encoding": "inplace",
        "label": "struct StakingRewardsFactory.StakingRewardsInfo",
        "members": [
          {
            "astId": 10423,
            "contract": "contracts/distribution/StakingRewardsFactory.sol:StakingRewardsFactory",
            "label": "tokenType",
            "offset": 0,
            "slot": "0",
            "type": "t_enum(StakingTokenType)10421"
          },
          {
            "astId": 10425,
            "contract": "contracts/distribution/StakingRewardsFactory.sol:StakingRewardsFactory",
            "label": "stakingRewards",
            "offset": 1,
            "slot": "0",
            "type": "t_address"
          },
          {
            "astId": 10427,
            "contract": "contracts/distribution/StakingRewardsFactory.sol:StakingRewardsFactory",
            "label": "rewardAmount",
            "offset": 21,
            "slot": "0",
            "type": "t_uint88"
          }
        ],
        "numberOfBytes": "32"
      },
      "t_uint88": {
        "encoding": "inplace",
        "label": "uint88",
        "numberOfBytes": "11"
      }
    }
  },
  "gasEstimates": {
    "creation": {
      "codeDepositCost": "1303600",
      "executionCost": "infinite",
      "totalCost": "infinite"
    },
    "external": {
      "STAKING_REWARDS_IMPLEMENTATION_ID()": "326",
      "computeStakingRewardsAddress(address)": "infinite",
      "deployStakingRewardsForPool(address,uint88)": "infinite",
      "deployStakingRewardsForPoolUniswapPair(address,uint88)": "infinite",
      "getOwner()": "1060",
      "getStakingRewards(address)": "infinite",
      "getStakingTokens()": "infinite",
      "notifyRewardAmount(address)": "infinite",
      "notifyRewardAmounts()": "infinite",
      "poolFactory()": "infinite",
      "proxyManager()": "infinite",
      "rewardsToken()": "infinite",
      "setOwner(address)": "23050",
      "stakingRewardsGenesis()": "infinite",
      "stakingRewardsInfoByStakingToken(address)": "1412",
      "stakingTokens(uint256)": "2060",
      "uniswapFactory()": "infinite",
      "weth()": "infinite"
    }
  }
}