{
  "abi": [
    {
      "inputs": [
        {
          "internalType": "address",
          "name": "rewardsDistribution_",
          "type": "address"
        },
        {
          "internalType": "address",
          "name": "rewardsToken_",
          "type": "address"
        }
      ],
      "stateMutability": "nonpayable",
      "type": "constructor"
    },
    {
      "anonymous": false,
      "inputs": [
        {
          "indexed": false,
          "internalType": "uint256",
          "name": "reward",
          "type": "uint256"
        }
      ],
      "name": "RewardAdded",
      "type": "event"
    },
    {
      "anonymous": false,
      "inputs": [
        {
          "indexed": true,
          "internalType": "address",
          "name": "user",
          "type": "address"
        },
        {
          "indexed": false,
          "internalType": "uint256",
          "name": "reward",
          "type": "uint256"
        }
      ],
      "name": "RewardPaid",
      "type": "event"
    },
    {
      "anonymous": false,
      "inputs": [
        {
          "indexed": true,
          "internalType": "address",
          "name": "user",
          "type": "address"
        },
        {
          "indexed": false,
          "internalType": "uint256",
          "name": "amount",
          "type": "uint256"
        }
      ],
      "name": "Staked",
      "type": "event"
    },
    {
      "anonymous": false,
      "inputs": [
        {
          "indexed": true,
          "internalType": "address",
          "name": "user",
          "type": "address"
        },
        {
          "indexed": false,
          "internalType": "uint256",
          "name": "amount",
          "type": "uint256"
        }
      ],
      "name": "Withdrawn",
      "type": "event"
    },
    {
      "inputs": [
        {
          "internalType": "address",
          "name": "account",
          "type": "address"
        }
      ],
      "name": "balanceOf",
      "outputs": [
        {
          "internalType": "uint256",
          "name": "",
          "type": "uint256"
        }
      ],
      "stateMutability": "view",
      "type": "function"
    },
    {
      "inputs": [
        {
          "internalType": "address",
          "name": "account",
          "type": "address"
        }
      ],
      "name": "earned",
      "outputs": [
        {
          "internalType": "uint256",
          "name": "",
          "type": "uint256"
        }
      ],
      "stateMutability": "view",
      "type": "function"
    },
    {
      "inputs": [],
      "name": "exit",
      "outputs": [],
      "stateMutability": "nonpayable",
      "type": "function"
    },
    {
      "inputs": [],
      "name": "getReward",
      "outputs": [],
      "stateMutability": "nonpayable",
      "type": "function"
    },
    {
      "inputs": [],
      "name": "getRewardForDuration",
      "outputs": [
        {
          "internalType": "uint256",
          "name": "",
          "type": "uint256"
        }
      ],
      "stateMutability": "view",
      "type": "function"
    },
    {
      "inputs": [
        {
          "internalType": "address",
          "name": "stakingToken_",
          "type": "address"
        }
      ],
      "name": "initialize",
      "outputs": [],
      "stateMutability": "nonpayable",
      "type": "function"
    },
    {
      "inputs": [],
      "name": "lastTimeRewardApplicable",
      "outputs": [
        {
          "internalType": "uint256",
          "name": "",
          "type": "uint256"
        }
      ],
      "stateMutability": "view",
      "type": "function"
    },
    {
      "inputs": [],
      "name": "lastUpdateTime",
      "outputs": [
        {
          "internalType": "uint256",
          "name": "",
          "type": "uint256"
        }
      ],
      "stateMutability": "view",
      "type": "function"
    },
    {
      "inputs": [
        {
          "internalType": "uint256",
          "name": "reward",
          "type": "uint256"
        }
      ],
      "name": "notifyRewardAmount",
      "outputs": [],
      "stateMutability": "nonpayable",
      "type": "function"
    },
    {
      "inputs": [],
      "name": "periodFinish",
      "outputs": [
        {
          "internalType": "uint256",
          "name": "",
          "type": "uint256"
        }
      ],
      "stateMutability": "view",
      "type": "function"
    },
    {
      "inputs": [],
      "name": "rewardPerToken",
      "outputs": [
        {
          "internalType": "uint256",
          "name": "",
          "type": "uint256"
        }
      ],
      "stateMutability": "view",
      "type": "function"
    },
    {
      "inputs": [],
      "name": "rewardPerTokenStored",
      "outputs": [
        {
          "internalType": "uint256",
          "name": "",
          "type": "uint256"
        }
      ],
      "stateMutability": "view",
      "type": "function"
    },
    {
      "inputs": [],
      "name": "rewardRate",
      "outputs": [
        {
          "internalType": "uint256",
          "name": "",
          "type": "uint256"
        }
      ],
      "stateMutability": "view",
      "type": "function"
    },
    {
      "inputs": [
        {
          "internalType": "address",
          "name": "",
          "type": "address"
        }
      ],
      "name": "rewards",
      "outputs": [
        {
          "internalType": "uint256",
          "name": "",
          "type": "uint256"
        }
      ],
      "stateMutability": "view",
      "type": "function"
    },
    {
      "inputs": [],
      "name": "rewardsDistribution",
      "outputs": [
        {
          "internalType": "address",
          "name": "",
          "type": "address"
        }
      ],
      "stateMutability": "view",
      "type": "function"
    },
    {
      "inputs": [],
      "name": "rewardsDuration",
      "outputs": [
        {
          "internalType": "uint256",
          "name": "",
          "type": "uint256"
        }
      ],
      "stateMutability": "view",
      "type": "function"
    },
    {
      "inputs": [],
      "name": "rewardsToken",
      "outputs": [
        {
          "internalType": "contract IERC20",
          "name": "",
          "type": "address"
        }
      ],
      "stateMutability": "view",
      "type": "function"
    },
    {
      "inputs": [
        {
          "internalType": "uint256",
          "name": "amount",
          "type": "uint256"
        }
      ],
      "name": "stake",
      "outputs": [],
      "stateMutability": "nonpayable",
      "type": "function"
    },
    {
      "inputs": [],
      "name": "stakingToken",
      "outputs": [
        {
          "internalType": "contract IERC20",
          "name": "",
          "type": "address"
        }
      ],
      "stateMutability": "view",
      "type": "function"
    },
    {
      "inputs": [],
      "name": "totalSupply",
      "outputs": [
        {
          "internalType": "uint256",
          "name": "",
          "type": "uint256"
        }
      ],
      "stateMutability": "view",
      "type": "function"
    },
    {
      "inputs": [
        {
          "internalType": "address",
          "name": "",
          "type": "address"
        }
      ],
      "name": "userRewardPerTokenPaid",
      "outputs": [
        {
          "internalType": "uint256",
          "name": "",
          "type": "uint256"
        }
      ],
      "stateMutability": "view",
      "type": "function"
    },
    {
      "inputs": [
        {
          "internalType": "uint256",
          "name": "amount",
          "type": "uint256"
        }
      ],
      "name": "withdraw",
      "outputs": [],
      "stateMutability": "nonpayable",
      "type": "function"
    }
  ],
  "address": "0xa007b017DD2720117bcFe93326b673E4eD70aB85",
  "args": [
    "0x1f7512C99b10d5A8808737814cb6466437Fc6147",
    "0x02AfdbcB4498d0F2989f199d3D2f67ea2503308D"
  ],
  "solcInputHash": "0xa3feb7905933c0ea602c5096dbb7a5cd98f38d9ffb8083ad579ddc0892699f00",
  "bytecode": "0x60c06040526000600255600060035534801561001a57600080fd5b506040516113753803806113758339818101604052604081101561003d57600080fd5b5080516020909101516001600160601b0319606092831b81166080526001600055911b1660a05260805160601c60a05160601c6112d961009c600039806106c952806108df5280610c9b52508061057c528061095652506112d96000f3fe608060405234801561001057600080fd5b50600436106101415760003560e01c80637b0a47ee116100b8578063c8f33c911161007c578063c8f33c91146102cb578063cd3daf9d146102d3578063d1af0c7d146102db578063df136d65146102e3578063e9fad8ee146102eb578063ebe2b12b146102f357610141565b80637b0a47ee1461025257806380faa57d1461025a5780638b87634714610262578063a694fc3a14610288578063c4d66de8146102a557610141565b8063386a95251161010a578063386a9525146101d35780633c6b16ab146101db5780633d18b912146101f85780633fc6df6e1461020057806370a082311461022457806372f702f31461024a57610141565b80628cc262146101465780630700037d1461017e57806318160ddd146101a45780631c1f78eb146101ac5780632e1a7d4d146101b4575b600080fd5b61016c6004803603602081101561015c57600080fd5b50356001600160a01b03166102fb565b60408051918252519081900360200190f35b61016c6004803603602081101561019457600080fd5b50356001600160a01b0316610391565b61016c6103a3565b61016c6103aa565b6101d1600480360360208110156101ca57600080fd5b50356103c8565b005b61016c61056a565b6101d1600480360360208110156101f157600080fd5b5035610571565b6101d16107fb565b610208610954565b604080516001600160a01b039092168252519081900360200190f35b61016c6004803603602081101561023a57600080fd5b50356001600160a01b0316610978565b610208610993565b61016c6109a2565b61016c6109a8565b61016c6004803603602081101561027857600080fd5b50356001600160a01b03166109b6565b6101d16004803603602081101561029e57600080fd5b50356109c8565b6101d1600480360360208110156102bb57600080fd5b50356001600160a01b0316610b68565b61016c610c39565b61016c610c3f565b610208610c99565b61016c610cbd565b6101d1610cc3565b61016c610ce6565b6001600160a01b038116600090815260076020908152604080832054600690925282205461038b919061037f90670de0b6b3a7640000906103739061034e90610342610c3f565b9063ffffffff610cec16565b6001600160a01b0388166000908152600960205260409020549063ffffffff610d3516565b9063ffffffff610d8e16565b9063ffffffff610dd016565b92915050565b60076020526000908152604090205481565b6008545b90565b6003546000906103c390624f1a0063ffffffff610d3516565b905090565b60026000541415610420576040805162461bcd60e51b815260206004820152601f60248201527f5265656e7472616e637947756172643a207265656e7472616e742063616c6c00604482015290519081900360640190fd5b60026000553361042e610c3f565b6005556104396109a8565b6004556001600160a01b0381161561048057610454816102fb565b6001600160a01b0382166000908152600760209081526040808320939093556005546006909152919020555b600082116104c9576040805162461bcd60e51b8152602060048201526011602482015270043616e6e6f74207769746864726177203607c1b604482015290519081900360640190fd5b6008546104dc908363ffffffff610cec16565b600855336000908152600960205260409020546104ff908363ffffffff610cec16565b3360008181526009602052604090209190915560015461052b916001600160a01b039091169084610e2a565b60408051838152905133917f7084f5476618d8e60b11ef0d7d3f06914655adb8793e28ff7f018d4c76d505d5919081900360200190a250506001600055565b624f1a0081565b336001600160a01b037f000000000000000000000000000000000000000000000000000000000000000016146105d85760405162461bcd60e51b815260040180806020018281038252602a815260200180611250602a913960400191505060405180910390fd5b60006105e2610c3f565b6005556105ed6109a8565b6004556001600160a01b0381161561063457610608816102fb565b6001600160a01b0382166000908152600760209081526040808320939093556005546006909152919020555b60025442106106585761065082624f1a0063ffffffff610d8e16565b6003556106a6565b60025460009061066e904263ffffffff610cec16565b9050600061068760035483610d3590919063ffffffff16565b90506106a0624f1a00610373868463ffffffff610dd016565b60035550505b604080516370a0823160e01b815230600482015290516000916001600160a01b037f000000000000000000000000000000000000000000000000000000000000000016916370a0823191602480820192602092909190829003018186803b15801561071057600080fd5b505afa158015610724573d6000803e3d6000fd5b505050506040513d602081101561073a57600080fd5b5051905061075181624f1a0063ffffffff610d8e16565b60035411156107a7576040805162461bcd60e51b815260206004820152601860248201527f50726f76696465642072657761726420746f6f20686967680000000000000000604482015290519081900360640190fd5b4260048190556107c090624f1a0063ffffffff610dd016565b6002556040805184815290517fde88a922e0d3b88b24e9623efeb464919c6bf9f66857a65e2bfcf2ce87a9433d9181900360200190a1505050565b60026000541415610853576040805162461bcd60e51b815260206004820152601f60248201527f5265656e7472616e637947756172643a207265656e7472616e742063616c6c00604482015290519081900360640190fd5b600260005533610861610c3f565b60055561086c6109a8565b6004556001600160a01b038116156108b357610887816102fb565b6001600160a01b0382166000908152600760209081526040808320939093556005546006909152919020555b33600090815260076020526040902054801561094b5733600081815260076020526040812055610914907f00000000000000000000000000000000000000000000000000000000000000006001600160a01b0316908363ffffffff610e2a16565b60408051828152905133917fe2403640ba68fed3a2f88b7557551d1993f84b99bb10ff833f0cf8db0c5e0486919081900360200190a25b50506001600055565b7f000000000000000000000000000000000000000000000000000000000000000081565b6001600160a01b031660009081526009602052604090205490565b6001546001600160a01b031681565b60035481565b60006103c342600254610e81565b60066020526000908152604090205481565b60026000541415610a20576040805162461bcd60e51b815260206004820152601f60248201527f5265656e7472616e637947756172643a207265656e7472616e742063616c6c00604482015290519081900360640190fd5b600260005533610a2e610c3f565b600555610a396109a8565b6004556001600160a01b03811615610a8057610a54816102fb565b6001600160a01b0382166000908152600760209081526040808320939093556005546006909152919020555b60008211610ac6576040805162461bcd60e51b815260206004820152600e60248201526d043616e6e6f74207374616b6520360941b604482015290519081900360640190fd5b600854610ad9908363ffffffff610dd016565b60085533600090815260096020526040902054610afc908363ffffffff610dd016565b33600081815260096020526040902091909155600154610b29916001600160a01b03909116903085610e97565b60408051838152905133917f9e71bc8eea02a63969f509818f2dafb9254532904319f9dbda79b67bd34a5f3d919081900360200190a250506001600055565b6001546001600160a01b031615610bbc576040805162461bcd60e51b8152602060048201526013602482015272105b1c9958591e481a5b9a5d1a585b1a5e9959606a1b604482015290519081900360640190fd5b6001600160a01b038116610c17576040805162461bcd60e51b815260206004820152601e60248201527f43616e206e6f7420736574206e756c6c207374616b696e6720746f6b656e0000604482015290519081900360640190fd5b600180546001600160a01b0319166001600160a01b0392909216919091179055565b60045481565b600060085460001415610c5557506005546103a7565b6103c3610c8a600854610373670de0b6b3a7640000610c7e600354610c7e6004546103426109a8565b9063ffffffff610d3516565b6005549063ffffffff610dd016565b7f000000000000000000000000000000000000000000000000000000000000000081565b60055481565b33600090815260096020526040902054610cdc906103c8565b610ce46107fb565b565b60025481565b6000610d2e83836040518060400160405280601e81526020017f536166654d6174683a207375627472616374696f6e206f766572666c6f770000815250610ef7565b9392505050565b600082610d445750600061038b565b82820282848281610d5157fe5b0414610d2e5760405162461bcd60e51b815260040180806020018281038252602181526020018061122f6021913960400191505060405180910390fd5b6000610d2e83836040518060400160405280601a81526020017f536166654d6174683a206469766973696f6e206279207a65726f000000000000815250610f8e565b600082820183811015610d2e576040805162461bcd60e51b815260206004820152601b60248201527f536166654d6174683a206164646974696f6e206f766572666c6f770000000000604482015290519081900360640190fd5b604080516001600160a01b038416602482015260448082018490528251808303909101815260649091019091526020810180516001600160e01b031663a9059cbb60e01b179052610e7c908490610ff3565b505050565b6000818310610e905781610d2e565b5090919050565b604080516001600160a01b0380861660248301528416604482015260648082018490528251808303909101815260849091019091526020810180516001600160e01b03166323b872dd60e01b179052610ef1908590610ff3565b50505050565b60008184841115610f865760405162461bcd60e51b81526004018080602001828103825283818151815260200191508051906020019080838360005b83811015610f4b578181015183820152602001610f33565b50505050905090810190601f168015610f785780820380516001836020036101000a031916815260200191505b509250505060405180910390fd5b505050900390565b60008183610fdd5760405162461bcd60e51b8152602060048201818152835160248401528351909283926044909101919085019080838360008315610f4b578181015183820152602001610f33565b506000838581610fe957fe5b0495945050505050565b6060611048826040518060400160405280602081526020017f5361666545524332303a206c6f772d6c6576656c2063616c6c206661696c6564815250856001600160a01b03166110a49092919063ffffffff16565b805190915015610e7c5780806020019051602081101561106757600080fd5b5051610e7c5760405162461bcd60e51b815260040180806020018281038252602a81526020018061127a602a913960400191505060405180910390fd5b60606110b384846000856110bb565b949350505050565b60606110c685611228565b611117576040805162461bcd60e51b815260206004820152601d60248201527f416464726573733a2063616c6c20746f206e6f6e2d636f6e7472616374000000604482015290519081900360640190fd5b60006060866001600160a01b031685876040518082805190602001908083835b602083106111565780518252601f199092019160209182019101611137565b6001836020036101000a03801982511681845116808217855250505050505090500191505060006040518083038185875af1925050503d80600081146111b8576040519150601f19603f3d011682016040523d82523d6000602084013e6111bd565b606091505b509150915081156111d15791506110b39050565b8051156111e15780518082602001fd5b60405162461bcd60e51b8152602060048201818152865160248401528651879391928392604401919085019080838360008315610f4b578181015183820152602001610f33565b3b15159056fe536166654d6174683a206d756c7469706c69636174696f6e206f766572666c6f7743616c6c6572206973206e6f742052657761726473446973747269627574696f6e20636f6e74726163745361666545524332303a204552433230206f7065726174696f6e20646964206e6f742073756363656564a26469706673582212200b97aadf195a962c644608dfe49e2b3293eab7982bfa175297ad3c91c45006f364736f6c63430006080033",
  "devdoc": {
    "methods": {}
  },
  "userdoc": {
    "methods": {}
  },
  "storageLayout": {
    "storage": [
      {
        "astId": 9526,
        "contract": "contracts/distribution/StakingRewards.sol:StakingRewards",
        "label": "_status",
        "offset": 0,
        "slot": "0",
        "type": "t_uint256"
      },
      {
        "astId": 9863,
        "contract": "contracts/distribution/StakingRewards.sol:StakingRewards",
        "label": "stakingToken",
        "offset": 0,
        "slot": "1",
        "type": "t_contract(IERC20)8999"
      },
      {
        "astId": 9866,
        "contract": "contracts/distribution/StakingRewards.sol:StakingRewards",
        "label": "periodFinish",
        "offset": 0,
        "slot": "2",
        "type": "t_uint256"
      },
      {
        "astId": 9869,
        "contract": "contracts/distribution/StakingRewards.sol:StakingRewards",
        "label": "rewardRate",
        "offset": 0,
        "slot": "3",
        "type": "t_uint256"
      },
      {
        "astId": 9871,
        "contract": "contracts/distribution/StakingRewards.sol:StakingRewards",
        "label": "lastUpdateTime",
        "offset": 0,
        "slot": "4",
        "type": "t_uint256"
      },
      {
        "astId": 9873,
        "contract": "contracts/distribution/StakingRewards.sol:StakingRewards",
        "label": "rewardPerTokenStored",
        "offset": 0,
        "slot": "5",
        "type": "t_uint256"
      },
      {
        "astId": 9877,
        "contract": "contracts/distribution/StakingRewards.sol:StakingRewards",
        "label": "userRewardPerTokenPaid",
        "offset": 0,
        "slot": "6",
        "type": "t_mapping(t_address,t_uint256)"
      },
      {
        "astId": 9881,
        "contract": "contracts/distribution/StakingRewards.sol:StakingRewards",
        "label": "rewards",
        "offset": 0,
        "slot": "7",
        "type": "t_mapping(t_address,t_uint256)"
      },
      {
        "astId": 9883,
        "contract": "contracts/distribution/StakingRewards.sol:StakingRewards",
        "label": "_totalSupply",
        "offset": 0,
        "slot": "8",
        "type": "t_uint256"
      },
      {
        "astId": 9887,
        "contract": "contracts/distribution/StakingRewards.sol:StakingRewards",
        "label": "_balances",
        "offset": 0,
        "slot": "9",
        "type": "t_mapping(t_address,t_uint256)"
      }
    ],
    "types": {
      "t_address": {
        "encoding": "inplace",
        "label": "address",
        "numberOfBytes": "20"
      },
      "t_contract(IERC20)8999": {
        "encoding": "inplace",
        "label": "contract IERC20",
        "numberOfBytes": "20"
      },
      "t_mapping(t_address,t_uint256)": {
        "encoding": "mapping",
        "key": "t_address",
        "label": "mapping(address => uint256)",
        "numberOfBytes": "32",
        "value": "t_uint256"
      },
      "t_uint256": {
        "encoding": "inplace",
        "label": "uint256",
        "numberOfBytes": "32"
      }
    }
  },
  "gasEstimates": {
    "creation": {
      "codeDepositCost": "965000",
      "executionCost": "infinite",
      "totalCost": "infinite"
    },
    "external": {
      "balanceOf(address)": "1253",
      "earned(address)": "infinite",
      "exit()": "infinite",
      "getReward()": "infinite",
      "getRewardForDuration()": "infinite",
      "initialize(address)": "22057",
      "lastTimeRewardApplicable()": "1129",
      "lastUpdateTime()": "1020",
      "notifyRewardAmount(uint256)": "infinite",
      "periodFinish()": "1130",
      "rewardPerToken()": "infinite",
      "rewardPerTokenStored()": "1086",
      "rewardRate()": "1021",
      "rewards(address)": "1170",
      "rewardsDistribution()": "infinite",
      "rewardsDuration()": "221",
      "rewardsToken()": "infinite",
      "stake(uint256)": "infinite",
      "stakingToken()": "1170",
      "totalSupply()": "1067",
      "userRewardPerTokenPaid(address)": "1191",
      "withdraw(uint256)": "infinite"
    }
  }
}