{
  "address": "0xF53FF1A3962Ea1CCA3F3D90Cb5C22EF3484858b0",
  "abi": [
    {
      "inputs": [
        {
          "internalType": "address",
          "name": "rewardsToken_",
          "type": "address"
        },
        {
          "internalType": "uint256",
          "name": "stakingRewardsGenesis_",
          "type": "uint256"
        },
        {
          "internalType": "address",
          "name": "proxyManager_",
          "type": "address"
        },
        {
          "internalType": "address",
          "name": "poolFactory_",
          "type": "address"
        },
        {
          "internalType": "address",
          "name": "uniswapFactory_",
          "type": "address"
        },
        {
          "internalType": "address",
          "name": "weth_",
          "type": "address"
        }
      ],
      "stateMutability": "nonpayable",
      "type": "constructor"
    },
    {
      "anonymous": false,
      "inputs": [
        {
          "indexed": false,
          "internalType": "address",
          "name": "stakingToken",
          "type": "address"
        },
        {
          "indexed": false,
          "internalType": "address",
          "name": "stakingRewards",
          "type": "address"
        }
      ],
      "name": "IndexPoolStakingRewardsAdded",
      "type": "event"
    },
    {
      "anonymous": false,
      "inputs": [
        {
          "indexed": true,
          "internalType": "address",
          "name": "previousOwner",
          "type": "address"
        },
        {
          "indexed": true,
          "internalType": "address",
          "name": "newOwner",
          "type": "address"
        }
      ],
      "name": "OwnershipTransferred",
      "type": "event"
    },
    {
      "anonymous": false,
      "inputs": [
        {
          "indexed": false,
          "internalType": "address",
          "name": "indexPool",
          "type": "address"
        },
        {
          "indexed": false,
          "internalType": "address",
          "name": "stakingToken",
          "type": "address"
        },
        {
          "indexed": false,
          "internalType": "address",
          "name": "stakingRewards",
          "type": "address"
        }
      ],
      "name": "UniswapStakingRewardsAdded",
      "type": "event"
    },
    {
      "inputs": [],
      "name": "STAKING_REWARDS_IMPLEMENTATION_ID",
      "outputs": [
        {
          "internalType": "bytes32",
          "name": "",
          "type": "bytes32"
        }
      ],
      "stateMutability": "view",
      "type": "function"
    },
    {
      "inputs": [
        {
          "internalType": "address",
          "name": "stakingToken",
          "type": "address"
        }
      ],
      "name": "computeStakingRewardsAddress",
      "outputs": [
        {
          "internalType": "address",
          "name": "",
          "type": "address"
        }
      ],
      "stateMutability": "view",
      "type": "function"
    },
    {
      "inputs": [
        {
          "internalType": "address",
          "name": "indexPool",
          "type": "address"
        },
        {
          "internalType": "uint88",
          "name": "rewardAmount",
          "type": "uint88"
        }
      ],
      "name": "deployStakingRewardsForPool",
      "outputs": [
        {
          "internalType": "address",
          "name": "",
          "type": "address"
        }
      ],
      "stateMutability": "nonpayable",
      "type": "function"
    },
    {
      "inputs": [
        {
          "internalType": "address",
          "name": "indexPool",
          "type": "address"
        },
        {
          "internalType": "uint88",
          "name": "rewardAmount",
          "type": "uint88"
        }
      ],
      "name": "deployStakingRewardsForPoolUniswapPair",
      "outputs": [],
      "stateMutability": "nonpayable",
      "type": "function"
    },
    {
      "inputs": [
        {
          "internalType": "address",
          "name": "stakingToken",
          "type": "address"
        }
      ],
      "name": "getStakingRewards",
      "outputs": [
        {
          "internalType": "address",
          "name": "",
          "type": "address"
        }
      ],
      "stateMutability": "view",
      "type": "function"
    },
    {
      "inputs": [],
      "name": "getStakingTokens",
      "outputs": [
        {
          "internalType": "address[]",
          "name": "",
          "type": "address[]"
        }
      ],
      "stateMutability": "view",
      "type": "function"
    },
    {
      "inputs": [
        {
          "internalType": "address",
          "name": "stakingToken",
          "type": "address"
        }
      ],
      "name": "notifyRewardAmount",
      "outputs": [],
      "stateMutability": "nonpayable",
      "type": "function"
    },
    {
      "inputs": [],
      "name": "notifyRewardAmounts",
      "outputs": [],
      "stateMutability": "nonpayable",
      "type": "function"
    },
    {
      "inputs": [],
      "name": "owner",
      "outputs": [
        {
          "internalType": "address",
          "name": "",
          "type": "address"
        }
      ],
      "stateMutability": "view",
      "type": "function"
    },
    {
      "inputs": [],
      "name": "poolFactory",
      "outputs": [
        {
          "internalType": "contract IPoolFactory",
          "name": "",
          "type": "address"
        }
      ],
      "stateMutability": "view",
      "type": "function"
    },
    {
      "inputs": [],
      "name": "proxyManager",
      "outputs": [
        {
          "internalType": "contract IDelegateCallProxyManager",
          "name": "",
          "type": "address"
        }
      ],
      "stateMutability": "view",
      "type": "function"
    },
    {
      "inputs": [],
      "name": "renounceOwnership",
      "outputs": [],
      "stateMutability": "nonpayable",
      "type": "function"
    },
    {
      "inputs": [],
      "name": "rewardsToken",
      "outputs": [
        {
          "internalType": "address",
          "name": "",
          "type": "address"
        }
      ],
      "stateMutability": "view",
      "type": "function"
    },
    {
      "inputs": [],
      "name": "stakingRewardsGenesis",
      "outputs": [
        {
          "internalType": "uint256",
          "name": "",
          "type": "uint256"
        }
      ],
      "stateMutability": "view",
      "type": "function"
    },
    {
      "inputs": [
        {
          "internalType": "address",
          "name": "",
          "type": "address"
        }
      ],
      "name": "stakingRewardsInfoByStakingToken",
      "outputs": [
        {
          "internalType": "enum StakingRewardsFactory.StakingTokenType",
          "name": "tokenType",
          "type": "uint8"
        },
        {
          "internalType": "address",
          "name": "stakingRewards",
          "type": "address"
        },
        {
          "internalType": "uint88",
          "name": "rewardAmount",
          "type": "uint88"
        }
      ],
      "stateMutability": "view",
      "type": "function"
    },
    {
      "inputs": [
        {
          "internalType": "uint256",
          "name": "",
          "type": "uint256"
        }
      ],
      "name": "stakingTokens",
      "outputs": [
        {
          "internalType": "address",
          "name": "",
          "type": "address"
        }
      ],
      "stateMutability": "view",
      "type": "function"
    },
    {
      "inputs": [
        {
          "internalType": "address",
          "name": "newOwner",
          "type": "address"
        }
      ],
      "name": "transferOwnership",
      "outputs": [],
      "stateMutability": "nonpayable",
      "type": "function"
    },
    {
      "inputs": [],
      "name": "uniswapFactory",
      "outputs": [
        {
          "internalType": "address",
          "name": "",
          "type": "address"
        }
      ],
      "stateMutability": "view",
      "type": "function"
    },
    {
      "inputs": [],
      "name": "weth",
      "outputs": [
        {
          "internalType": "address",
          "name": "",
          "type": "address"
        }
      ],
      "stateMutability": "view",
      "type": "function"
    }
  ],
  "transactionHash": "0x1c72a74a3232bff889b582f80ff02bfaa896656000530265dcde6d2b90ee441f",
  "args": [
    "0x2342084BaCed2081093de5729de81FcB9DE77CA6",
    1605391877,
    "0x68Cf58DD7d90bBcfAc51D52bF5005c202B17974c",
    "0x901E484b5681AaefF132E79Fe51483Ab127107c1",
    "0x5C69bEe701ef814a2B6a3EDD4B1652CB9cc5aA6f",
    "0x72710B0b93c8F86aEf4ec8bd832868A15df50375"
  ],
  "solcInputHash": "0x43fcf3f647fd4ffb0094f85b511cb9ebe843a0124c6ec39453b1b9fa8626fe20",
  "bytecode": "0x61014060405234801561001157600080fd5b506040516119b23803806119b2833981810160405260c081101561003457600080fd5b508051602082015160408301516060840151608085015160a09095015193949293919290916000610063610135565b600080546001600160a01b0319166001600160a01b0383169081178255604051929350917f8be0079c531659141344cd1fd0a4f28419497f9722a3daafe3b4186f6b6457e0908290a3506001600160601b0319606087901b1660c052428510156100fe5760405162461bcd60e51b815260040180806020018281038252603481526020018061197e6034913960400191505060405180910390fd5b610120949094526001600160601b0319606093841b811660a05291831b8216608052821b811660e05291901b166101005250610139565b3390565b60805160601c60a05160601c60c05160601c60e05160601c6101005160601c610120516117c06101be600039806109b85280610c5352508061049b52806106365250806106145280610bfc525080610adb5280610d095250806103c1528061071e5280610c2f5280610f7e5250806104bf528061053b5280610e4952506117c06000f3fe608060405234801561001057600080fd5b50600436106101215760003560e01c80638bdb2afa116100ad578063ccf2c53211610071578063ccf2c532146102c1578063d1af0c7d146102c9578063da1d111b146102d1578063e70459db14610329578063f2fde38b1461035e57610121565b80638bdb2afa146102875780638da5cb5b1461028f57806396b4ca7014610297578063a0928c111461029f578063ae741d8d146102b957610121565b80634219dc40116100f45780634219dc40146101b357806360583f8c146101bb5780636cf8caf8146101f2578063715018a61461025957806381e162981461026157610121565b8063050848541461012657806321efe20014610168578063344e5e341461018e5780633fc8cef3146101ab575b600080fd5b61014c6004803603602081101561013c57600080fd5b50356001600160a01b0316610384565b604080516001600160a01b039092168252519081900360200190f35b61014c6004803603602081101561017e57600080fd5b50356001600160a01b03166103fd565b61014c600480360360208110156101a457600080fd5b5035610472565b61014c610499565b61014c6104bd565b6101f0600480360360408110156101d157600080fd5b5080356001600160a01b031690602001356001600160581b03166104e1565b005b6102186004803603602081101561020857600080fd5b50356001600160a01b03166108de565b6040518084600181111561022857fe5b8152602001836001600160a01b03168152602001826001600160581b03168152602001935050505060405180910390f35b6101f0610914565b6101f06004803603602081101561027757600080fd5b50356001600160a01b03166109b6565b61014c610bfa565b61014c610c1e565b61014c610c2d565b6102a7610c51565b60408051918252519081900360200190f35b6101f0610c75565b6102a7610cf5565b61014c610d07565b6102d9610d2b565b60408051602080825283518183015283519192839290830191858101910280838360005b838110156103155781810151838201526020016102fd565b505050509050019250505060405180910390f35b61014c6004803603604081101561033f57600080fd5b5080356001600160a01b031690602001356001600160581b0316610d8d565b6101f06004803603602081101561037457600080fd5b50356001600160a01b0316611137565b6000808260405160200180826001600160a01b031660601b81526014019150506040516020818303038152906040528051906020012090506103f67f0000000000000000000000000000000000000000000000000000000000000000306000805160206116918339815191528461122f565b9392505050565b6001600160a01b03808216600090815260026020526040812080549192909161010090041661045d5760405162461bcd60e51b81526004018080602001828103825260368152602001806114dc6036913960400191505060405180910390fd5b5461010090046001600160a01b031692915050565b6001818154811061047f57fe5b6000918252602090912001546001600160a01b0316905081565b7f000000000000000000000000000000000000000000000000000000000000000081565b7f000000000000000000000000000000000000000000000000000000000000000081565b6104e9611274565b6000546001600160a01b03908116911614610539576040805162461bcd60e51b81526020600482018190526024820152600080516020611637833981519152604482015290519081900360640190fd5b7f00000000000000000000000000000000000000000000000000000000000000006001600160a01b03166347080612836040518263ffffffff1660e01b815260040180826001600160a01b0316815260200191505060206040518083038186803b1580156105a657600080fd5b505afa1580156105ba573d6000803e3d6000fd5b505050506040513d60208110156105d057600080fd5b505161060d5760405162461bcd60e51b815260040180806020018281038252605181526020018061173a6051913960600191505060405180910390fd5b600061065a7f0000000000000000000000000000000000000000000000000000000000000000847f0000000000000000000000000000000000000000000000000000000000000000611278565b6001600160a01b038082166000908152600260205260409020805492935091610100900416156106bb5760405162461bcd60e51b815260040180806020018281038252604f815260200180611537604f913960600191505060405180910390fd5b604080516001600160601b0319606085901b166020808301919091528251808303601401815260348301808552815191830191909120631a5e5bc560e01b90915260008051602061169183398151915260388401526058830181905292516000927f00000000000000000000000000000000000000000000000000000000000000006001600160a01b031692631a5e5bc59260788084019382900301818787803b15801561076857600080fd5b505af115801561077c573d6000803e3d6000fd5b505050506040513d602081101561079257600080fd5b50516040805163189acdbd60e31b81526001600160a01b03878116600483015291519293509083169163c4d66de89160248082019260009290919082900301818387803b1580156107e257600080fd5b505af11580156107f6573d6000803e3d6000fd5b50508454610100600160a81b0319166101006001600160a01b03851602176001600160a81b0316600160a81b6001600160581b03891602178086556001925085915060ff1916828002179055506001805480820182556000919091527fb10e2d527612073b26eecdfd717e6a320cf44b4afac2b0732d9fcbe2b7fa0cf60180546001600160a01b038087166001600160a01b0319909216821790925560408051898416815260208101929092529183168183015290517fb3148d85a224ed5d008a6a0e1c86c48f4da48871f5c1dbbcce5288bc48b5f7229181900360600190a1505050505050565b60026020526000908152604090205460ff81169061010081046001600160a01b031690600160a81b90046001600160581b031683565b61091c611274565b6000546001600160a01b0390811691161461096c576040805162461bcd60e51b81526020600482018190526024820152600080516020611637833981519152604482015290519081900360640190fd5b600080546040516001600160a01b03909116907f8be0079c531659141344cd1fd0a4f28419497f9722a3daafe3b4186f6b6457e0908390a3600080546001600160a01b0319169055565b7f0000000000000000000000000000000000000000000000000000000000000000421015610a155760405162461bcd60e51b81526004018080602001828103825260348152602001806115866034913960400191505060405180910390fd5b6001600160a01b0380821660009081526002602052604090208054909161010090910416610a745760405162461bcd60e51b81526004018080602001828103825260378152602001806116006037913960400191505060405180910390fd5b8054600160a81b90046001600160581b031615610bf65780546001600160a81b0381168083556040805163a9059cbb60e01b81526001600160a01b0361010090930483166004820152600160a81b9093046001600160581b031660248401819052905190927f00000000000000000000000000000000000000000000000000000000000000009092169163a9059cbb9160448083019260209291908290030181600087803b158015610b2557600080fd5b505af1158015610b39573d6000803e3d6000fd5b505050506040513d6020811015610b4f57600080fd5b5051610b8c5760405162461bcd60e51b815260040180806020018281038252603a815260200180611657603a913960400191505060405180910390fd5b815460408051633c6b16ab60e01b81526004810184905290516101009092046001600160a01b031691633c6b16ab9160248082019260009290919082900301818387803b158015610bdc57600080fd5b505af1158015610bf0573d6000803e3d6000fd5b50505050505b5050565b7f000000000000000000000000000000000000000000000000000000000000000081565b6000546001600160a01b031690565b7f000000000000000000000000000000000000000000000000000000000000000081565b7f000000000000000000000000000000000000000000000000000000000000000081565b600154610cb35760405162461bcd60e51b81526004018080602001828103825260458152602001806116b16045913960600191505060405180910390fd5b60005b600154811015610cf257610cea60018281548110610cd057fe5b6000918252602090912001546001600160a01b03166109b6565b600101610cb6565b50565b60008051602061169183398151915281565b7f000000000000000000000000000000000000000000000000000000000000000081565b60606001805480602002602001604051908101604052809291908181526020018280548015610d8357602002820191906000526020600020905b81546001600160a01b03168152600190910190602001808311610d65575b5050505050905090565b6000610d97611274565b6000546001600160a01b03908116911614610de7576040805162461bcd60e51b81526020600482018190526024820152600080516020611637833981519152604482015290519081900360640190fd5b6001600160a01b038084166000908152600260205260409020805490916101009091041615610e475760405162461bcd60e51b81526004018080602001828103825260448152602001806116f66044913960600191505060405180910390fd5b7f00000000000000000000000000000000000000000000000000000000000000006001600160a01b03166347080612856040518263ffffffff1660e01b815260040180826001600160a01b0316815260200191505060206040518083038186803b158015610eb457600080fd5b505afa158015610ec8573d6000803e3d6000fd5b505050506040513d6020811015610ede57600080fd5b5051610f1b5760405162461bcd60e51b81526004018080602001828103825260468152602001806115ba6046913960600191505060405180910390fd5b604080516001600160601b0319606087901b166020808301919091528251808303601401815260348301808552815191830191909120631a5e5bc560e01b90915260008051602061169183398151915260388401526058830181905292516000927f00000000000000000000000000000000000000000000000000000000000000006001600160a01b031692631a5e5bc59260788084019382900301818787803b158015610fc857600080fd5b505af1158015610fdc573d6000803e3d6000fd5b505050506040513d6020811015610ff257600080fd5b50516040805163189acdbd60e31b81526001600160a01b03898116600483015291519293509083169163c4d66de89160248082019260009290919082900301818387803b15801561104257600080fd5b505af1158015611056573d6000803e3d6000fd5b50508454610100600160a81b0319166101006001600160a01b03851602176001600160a81b0316600160a81b6001600160581b03891602178086556000925085915060ff191660018302179055506001805480820182556000919091527fb10e2d527612073b26eecdfd717e6a320cf44b4afac2b0732d9fcbe2b7fa0cf60180546001600160a01b0319166001600160a01b0388811691821790925560408051918252918316602082015281517f0f45ccf38e8faac8aba2bc683d981e3ba1cb5da4ed415db60caf4e1bc3f8c894929181900390910190a195945050505050565b61113f611274565b6000546001600160a01b0390811691161461118f576040805162461bcd60e51b81526020600482018190526024820152600080516020611637833981519152604482015290519081900360640190fd5b6001600160a01b0381166111d45760405162461bcd60e51b81526004018080602001828103825260268152602001806114b66026913960400191505060405180910390fd5b600080546040516001600160a01b03808516939216917f8be0079c531659141344cd1fd0a4f28419497f9722a3daafe3b4186f6b6457e091a3600080546001600160a01b0319166001600160a01b0392909216919091179055565b60008061123d858585611296565b905061126a817f8fb4522edc5e0645a7ae5cfdbfe3b34d4a14de9e0279b74da795856b5ef4f1e6886112de565b9695505050505050565b3390565b60008060006112878585611334565b9150915061126a868383611412565b6040805160609490941b6001600160601b0319166020808601919091526034850193909352605480850192909252805180850390920182526074909301909252815191012090565b604080516001600160f81b031960208083019190915260609390931b6001600160601b03191660218201526035810194909452605580850193909352805180850390930183526075909301909252805191012090565b600080826001600160a01b0316846001600160a01b031614156113885760405162461bcd60e51b81526004018080602001828103825260258152602001806115126025913960400191505060405180910390fd5b826001600160a01b0316846001600160a01b0316106113a85782846113ab565b83835b90925090506001600160a01b03821661140b576040805162461bcd60e51b815260206004820152601e60248201527f556e697377617056324c6962726172793a205a45524f5f414444524553530000604482015290519081900360640190fd5b9250929050565b604080516001600160601b0319606094851b811660208084019190915293851b81166034830152825160288184030181526048830184528051908501206001600160f81b031960688401529590941b9093166069840152607d8301939093527f96e8ac4277198ff8b6f785478aa9a39f403cb768dd02cbee326c3e7da348845f609d808401919091528351808403909101815260bd90920190925280519101209056fe4f776e61626c653a206e6577206f776e657220697320746865207a65726f20616464726573735374616b696e6752657761726473466163746f72793a3a6765745374616b696e67526577617264733a204e6f74206465706c6f796564556e697377617056324c6962726172793a204944454e544943414c5f4144445245535345535374616b696e6752657761726473466163746f72793a3a6465706c6f795374616b696e6752657761726473466f72506f6f6c556e6973776170506169723a20416c7265616479206465706c6f7965645374616b696e6752657761726473466163746f72793a3a6e6f74696679526577617264416d6f756e743a204e6f742072656164795374616b696e6752657761726473466163746f72793a3a6465706c6f795374616b696e6752657761726473466f72506f6f6c3a204e6f7420616e20696e64657820706f6f6c2e5374616b696e6752657761726473466163746f72793a3a6e6f74696679526577617264416d6f756e743a204e6f74206465706c6f7965644f776e61626c653a2063616c6c6572206973206e6f7420746865206f776e65725374616b696e6752657761726473466163746f72793a3a6e6f74696679526577617264416d6f756e743a205472616e73666572206661696c65647f5ecfab5cfb6efd4fdd03b2837b063783f5386156bad4b03cf27b88c3e695ad5374616b696e6752657761726473466163746f72793a3a6e6f74696679526577617264416d6f756e74733a2063616c6c6564206265666f726520616e79206465706c6f79735374616b696e6752657761726473466163746f72793a3a6465706c6f795374616b696e6752657761726473466f72506f6f6c3a20416c7265616479206465706c6f7965645374616b696e6752657761726473466163746f72793a3a6465706c6f795374616b696e6752657761726473466f72506f6f6c556e6973776170506169723a204e6f7420616e20696e64657820706f6f6c2ea26469706673582212200c1d3280bfe27d0e8b61569a8fbae1b17107cda956d541e4000435a72dd1639c64736f6c634300060c00335374616b696e6752657761726473466163746f72793a3a636f6e7374727563746f723a2067656e6573697320746f6f20736f6f6e",
  "devdoc": {
    "kind": "dev",
    "methods": {
      "deployStakingRewardsForPool(address,uint88)": {
        "details": "Deploys a staking pool for the LP token of an index pool. Verifies that the staking token is the address of a pool deployed by the Indexed pool factory."
      },
      "deployStakingRewardsForPoolUniswapPair(address,uint88)": {
        "details": "Deploys staking rewards for the LP token of the Uniswap pair between an index pool token and WETH. Verifies that the LP token is the address of a pool deployed by the Indexed pool factory, then uses the address of the Uniswap pair between it and WETH as the staking token."
      },
      "owner()": {
        "details": "Returns the address of the current owner."
      },
      "renounceOwnership()": {
        "details": "Leaves the contract without owner. It will not be possible to call `onlyOwner` functions anymore. Can only be called by the current owner. NOTE: Renouncing ownership will leave the contract without an owner, thereby removing any functionality that is only available to the owner."
      },
      "transferOwnership(address)": {
        "details": "Transfers ownership of the contract to a new account (`newOwner`). Can only be called by the current owner."
      }
    },
    "stateVariables": {
      "STAKING_REWARDS_IMPLEMENTATION_ID": {
        "details": "Used to identify the implementation for staking rewards proxies."
      },
      "poolFactory": {
        "details": "Address of the pool factory - used to verify staking token eligibility."
      },
      "proxyManager": {
        "details": "The address of the proxy manager - used to deploy staking pools."
      },
      "rewardsToken": {
        "details": "The address of the token to distribute."
      },
      "stakingRewardsGenesis": {
        "details": "Timestamp at which staking begins."
      },
      "stakingRewardsInfoByStakingToken": {
        "details": "Rewards info by staking token."
      },
      "stakingTokens": {
        "details": "The staking tokens for which a rewards contract has been deployed."
      },
      "uniswapFactory": {
        "details": "The address of the Uniswap factory - used to compute the addresses of Uniswap pairs eligible for distribution."
      },
      "weth": {
        "details": "The address of the wrapped ether token - used to identify Uniswap pairs eligible for distribution."
      }
    },
    "version": 1
  },
  "userdoc": {
    "kind": "user",
    "methods": {},
    "version": 1
  },
  "storageLayout": {
    "storage": [
      {
        "astId": 348,
        "contract": "contracts/distribution/StakingRewardsFactory.sol:StakingRewardsFactory",
        "label": "_owner",
        "offset": 0,
        "slot": "0",
        "type": "t_address"
      },
      {
        "astId": 2258,
        "contract": "contracts/distribution/StakingRewardsFactory.sol:StakingRewardsFactory",
        "label": "stakingTokens",
        "offset": 0,
        "slot": "1",
        "type": "t_array(t_address)dyn_storage"
      },
      {
        "astId": 2263,
        "contract": "contracts/distribution/StakingRewardsFactory.sol:StakingRewardsFactory",
        "label": "stakingRewardsInfoByStakingToken",
        "offset": 0,
        "slot": "2",
        "type": "t_mapping(t_address,t_struct(StakingRewardsInfo)2253_storage)"
      }
    ],
    "types": {
      "t_address": {
        "encoding": "inplace",
        "label": "address",
        "numberOfBytes": "20"
      },
      "t_array(t_address)dyn_storage": {
        "base": "t_address",
        "encoding": "dynamic_array",
        "label": "address[]",
        "numberOfBytes": "32"
      },
      "t_enum(StakingTokenType)2246": {
        "encoding": "inplace",
        "label": "enum StakingRewardsFactory.StakingTokenType",
        "numberOfBytes": "1"
      },
      "t_mapping(t_address,t_struct(StakingRewardsInfo)2253_storage)": {
        "encoding": "mapping",
        "key": "t_address",
        "label": "mapping(address => struct StakingRewardsFactory.StakingRewardsInfo)",
        "numberOfBytes": "32",
        "value": "t_struct(StakingRewardsInfo)2253_storage"
      },
      "t_struct(StakingRewardsInfo)2253_storage": {
        "encoding": "inplace",
        "label": "struct StakingRewardsFactory.StakingRewardsInfo",
        "members": [
          {
            "astId": 2248,
            "contract": "contracts/distribution/StakingRewardsFactory.sol:StakingRewardsFactory",
            "label": "tokenType",
            "offset": 0,
            "slot": "0",
            "type": "t_enum(StakingTokenType)2246"
          },
          {
            "astId": 2250,
            "contract": "contracts/distribution/StakingRewardsFactory.sol:StakingRewardsFactory",
            "label": "stakingRewards",
            "offset": 1,
            "slot": "0",
            "type": "t_address"
          },
          {
            "astId": 2252,
            "contract": "contracts/distribution/StakingRewardsFactory.sol:StakingRewardsFactory",
            "label": "rewardAmount",
            "offset": 21,
            "slot": "0",
            "type": "t_uint88"
          }
        ],
        "numberOfBytes": "32"
      },
      "t_uint88": {
        "encoding": "inplace",
        "label": "uint88",
        "numberOfBytes": "11"
      }
    }
  },
  "gasEstimates": {
    "creation": {
      "codeDepositCost": "1216000",
      "executionCost": "infinite",
      "totalCost": "infinite"
    },
    "external": {
      "STAKING_REWARDS_IMPLEMENTATION_ID()": "infinite",
      "computeStakingRewardsAddress(address)": "infinite",
      "deployStakingRewardsForPool(address,uint88)": "infinite",
      "deployStakingRewardsForPoolUniswapPair(address,uint88)": "infinite",
      "getStakingRewards(address)": "infinite",
      "getStakingTokens()": "infinite",
      "notifyRewardAmount(address)": "infinite",
      "notifyRewardAmounts()": "infinite",
      "owner()": "1082",
      "poolFactory()": "infinite",
      "proxyManager()": "infinite",
      "renounceOwnership()": "infinite",
      "rewardsToken()": "infinite",
      "stakingRewardsGenesis()": "infinite",
      "stakingRewardsInfoByStakingToken(address)": "1379",
      "stakingTokens(uint256)": "2038",
      "transferOwnership(address)": "infinite",
      "uniswapFactory()": "infinite",
      "weth()": "infinite"
    }
  }
}