{
  "address": "0x8d12A344580Bc0bC4E684248067F5d9d3908C864",
  "abi": [
    {
      "inputs": [
        {
          "internalType": "address",
          "name": "ndx_",
          "type": "address"
        },
        {
          "internalType": "address",
          "name": "recipient_",
          "type": "address"
        },
        {
          "internalType": "uint256",
          "name": "vestingAmount_",
          "type": "uint256"
        },
        {
          "internalType": "uint256",
          "name": "vestingBegin_",
          "type": "uint256"
        },
        {
          "internalType": "uint256",
          "name": "vestingEnd_",
          "type": "uint256"
        }
      ],
      "stateMutability": "nonpayable",
      "type": "constructor"
    },
    {
      "inputs": [],
      "name": "claim",
      "outputs": [],
      "stateMutability": "nonpayable",
      "type": "function"
    },
    {
      "inputs": [
        {
          "internalType": "address",
          "name": "delegatee",
          "type": "address"
        }
      ],
      "name": "delegate",
      "outputs": [],
      "stateMutability": "nonpayable",
      "type": "function"
    },
    {
      "inputs": [],
      "name": "lastUpdate",
      "outputs": [
        {
          "internalType": "uint256",
          "name": "",
          "type": "uint256"
        }
      ],
      "stateMutability": "view",
      "type": "function"
    },
    {
      "inputs": [],
      "name": "name",
      "outputs": [
        {
          "internalType": "string",
          "name": "",
          "type": "string"
        }
      ],
      "stateMutability": "view",
      "type": "function"
    },
    {
      "inputs": [],
      "name": "ndx",
      "outputs": [
        {
          "internalType": "address",
          "name": "",
          "type": "address"
        }
      ],
      "stateMutability": "view",
      "type": "function"
    },
    {
      "inputs": [],
      "name": "recipient",
      "outputs": [
        {
          "internalType": "address",
          "name": "",
          "type": "address"
        }
      ],
      "stateMutability": "view",
      "type": "function"
    },
    {
      "inputs": [
        {
          "internalType": "address",
          "name": "recipient_",
          "type": "address"
        }
      ],
      "name": "setRecipient",
      "outputs": [],
      "stateMutability": "nonpayable",
      "type": "function"
    },
    {
      "inputs": [],
      "name": "vestingAmount",
      "outputs": [
        {
          "internalType": "uint256",
          "name": "",
          "type": "uint256"
        }
      ],
      "stateMutability": "view",
      "type": "function"
    },
    {
      "inputs": [],
      "name": "vestingBegin",
      "outputs": [
        {
          "internalType": "uint256",
          "name": "",
          "type": "uint256"
        }
      ],
      "stateMutability": "view",
      "type": "function"
    },
    {
      "inputs": [],
      "name": "vestingEnd",
      "outputs": [
        {
          "internalType": "uint256",
          "name": "",
          "type": "uint256"
        }
      ],
      "stateMutability": "view",
      "type": "function"
    }
  ],
  "transactionHash": "0xad7520d30ac9818fbfaf0b7410f7ea6616f4fc7cde5725a86d1dc80f7617d901",
  "args": [
    "0x86772b1409b61c639EaAc9Ba0AcfBb6E238e5F83",
    "0x236ECcAB8cdcfEDb099dE85c4060024bA3cE4d46",
    "2000000000000000000000000",
    1608595200,
    1640131200
  ],
  "solcInputHash": "0x3e4cd91c3694d822416faf66e95bbcc86363470eedbd1cb771ac30edb9c850be",
  "bytecode": "0x61010060405234801561001157600080fd5b506040516109a03803806109a0833981810160405260a081101561003457600080fd5b50805160208201516040830151606084015160809094015192939192909190428210156100925760405162461bcd60e51b815260040180806020018281038252603681526020018061096a6036913960400191505060405180910390fd5b8181116100d05760405162461bcd60e51b81526004018080602001828103825260348152602001806109366034913960400191505060405180910390fd5b606085901b6001600160601b031916608052600080546001600160a01b0319166001600160a01b0395861617815560a084905260c083905260e08290526001839055939094169391929091906107ce9061016890398061029f5280610383528061059652508061036252806105c05250806101d552806103ad5250806102e4528061041452806104d9528061057252506107ce6000f3fe608060405234801561001057600080fd5b506004361061009d5760003560e01c806366d003ac1161006657806366d003ac1461018f57806379521b2c146101b357806384a1931f146101bb578063c0463711146101c3578063e29bc68b146101cb5761009d565b8062728f76146100a257806306fdde03146100bc5780633bbed4a0146101395780634e71d92d146101615780635c19a95c14610169575b600080fd5b6100aa6101d3565b60408051918252519081900360200190f35b6100c46101f7565b6040805160208082528351818301528351919283929083019185019080838360005b838110156100fe5781810151838201526020016100e6565b50505050905090810190601f16801561012b5780820380516001836020036101000a031916815260200191505b509250505060405180910390f35b61015f6004803603602081101561014f57600080fd5b50356001600160a01b0316610230565b005b61015f61029b565b61015f6004803603602081101561017f57600080fd5b50356001600160a01b031661048e565b610197610561565b604080516001600160a01b039092168252519081900360200190f35b610197610570565b6100aa610594565b6100aa6105b8565b6100aa6105be565b7f000000000000000000000000000000000000000000000000000000000000000081565b6040518060400160405280601d81526020017f496e6465786564205465616d2056657374696e6720436f6e747261637400000081525081565b6000546001600160a01b031633146102795760405162461bcd60e51b815260040180806020018281038252602c81526020018061076d602c913960400191505060405180910390fd5b600080546001600160a01b0319166001600160a01b0392909216919091179055565b60007f0000000000000000000000000000000000000000000000000000000000000000421061035d57604080516370a0823160e01b815230600482015290516001600160a01b037f000000000000000000000000000000000000000000000000000000000000000016916370a08231916024808301926020929190829003018186803b15801561032a57600080fd5b505afa15801561033e573d6000803e3d6000fd5b505050506040513d602081101561035457600080fd5b505190506103e7565b6103e07f00000000000000000000000000000000000000000000000000000000000000007f0000000000000000000000000000000000000000000000000000000000000000036103da60015442037f00000000000000000000000000000000000000000000000000000000000000006105e290919063ffffffff16565b90610644565b4260015590505b600080546040805163a9059cbb60e01b81526001600160a01b0392831660048201526024810185905290517f00000000000000000000000000000000000000000000000000000000000000009092169263a9059cbb926044808401936020939083900390910190829087803b15801561045f57600080fd5b505af1158015610473573d6000803e3d6000fd5b505050506040513d602081101561048957600080fd5b505050565b6000546001600160a01b031633146104d75760405162461bcd60e51b81526004018080602001828103825260288152602001806107246028913960400191505060405180910390fd5b7f00000000000000000000000000000000000000000000000000000000000000006001600160a01b0316635c19a95c826040518263ffffffff1660e01b815260040180826001600160a01b03168152602001915050600060405180830381600087803b15801561054657600080fd5b505af115801561055a573d6000803e3d6000fd5b5050505050565b6000546001600160a01b031681565b7f000000000000000000000000000000000000000000000000000000000000000081565b7f000000000000000000000000000000000000000000000000000000000000000081565b60015481565b7f000000000000000000000000000000000000000000000000000000000000000081565b6000826105f15750600061063e565b828202828482816105fe57fe5b041461063b5760405162461bcd60e51b815260040180806020018281038252602181526020018061074c6021913960400191505060405180910390fd5b90505b92915050565b600061063b83836040518060400160405280601a81526020017f536166654d6174683a206469766973696f6e206279207a65726f0000000000008152506000818361070d5760405162461bcd60e51b81526004018080602001828103825283818151815260200191508051906020019080838360005b838110156106d25781810151838201526020016106ba565b50505050905090810190601f1680156106ff5780820380516001836020036101000a031916815260200191505b509250505060405180910390fd5b50600083858161071957fe5b049594505050505056fe44656c65676174696e675665737465723a3a64656c65676174653a20756e617574686f72697a6564536166654d6174683a206d756c7469706c69636174696f6e206f766572666c6f7744656c65676174696e675665737465723a3a736574526563697069656e743a20756e617574686f72697a6564a264697066735822122091ade23cccc1b35b68be2a098c0718091a45fde811c58fb3db15fbf1d055ee0364736f6c634300060c003344656c65676174696e675665737465723a3a636f6e7374727563746f723a2076657374696e6720656e6420746f6f206561726c7944656c65676174696e675665737465723a3a636f6e7374727563746f723a2076657374696e6720626567696e20746f6f206561726c79",
  "devdoc": {
    "kind": "dev",
    "methods": {},
    "stateVariables": {
      "name": {
        "details": "The name of this contract"
      }
    },
    "version": 1
  },
  "userdoc": {
    "kind": "user",
    "methods": {},
    "version": 1
  },
  "storageLayout": {
    "storage": [
      {
        "astId": 215,
        "contract": "temp-contracts/distribution/DelegatingVester.sol:DelegatingVester",
        "label": "recipient",
        "offset": 0,
        "slot": "0",
        "type": "t_address"
      },
      {
        "astId": 217,
        "contract": "temp-contracts/distribution/DelegatingVester.sol:DelegatingVester",
        "label": "lastUpdate",
        "offset": 0,
        "slot": "1",
        "type": "t_uint256"
      }
    ],
    "types": {
      "t_address": {
        "encoding": "inplace",
        "label": "address",
        "numberOfBytes": "20"
      },
      "t_uint256": {
        "encoding": "inplace",
        "label": "uint256",
        "numberOfBytes": "32"
      }
    }
  },
  "gasEstimates": {
    "creation": {
      "codeDepositCost": "399600",
      "executionCost": "infinite",
      "totalCost": "infinite"
    },
    "external": {
      "claim()": "infinite",
      "delegate(address)": "infinite",
      "lastUpdate()": "1064",
      "name()": "infinite",
      "ndx()": "infinite",
      "recipient()": "1037",
      "setRecipient(address)": "infinite",
      "vestingAmount()": "infinite",
      "vestingBegin()": "infinite",
      "vestingEnd()": "infinite"
    }
  }
}