{
  "address": "0x48887E27e3E42e769F34e1e43E857235035d333a",
  "abi": [
    {
      "inputs": [
        {
          "internalType": "address",
          "name": "rewardsToken_",
          "type": "address"
        },
        {
          "internalType": "uint256",
          "name": "stakingRewardsGenesis_",
          "type": "uint256"
        },
        {
          "internalType": "address",
          "name": "proxyManager_",
          "type": "address"
        },
        {
          "internalType": "address",
          "name": "poolFactory_",
          "type": "address"
        },
        {
          "internalType": "address",
          "name": "uniswapFactory_",
          "type": "address"
        },
        {
          "internalType": "address",
          "name": "weth_",
          "type": "address"
        }
      ],
      "stateMutability": "nonpayable",
      "type": "constructor"
    },
    {
      "anonymous": false,
      "inputs": [
        {
          "indexed": false,
          "internalType": "address",
          "name": "stakingToken",
          "type": "address"
        },
        {
          "indexed": false,
          "internalType": "address",
          "name": "stakingRewards",
          "type": "address"
        }
      ],
      "name": "IndexPoolStakingRewardsAdded",
      "type": "event"
    },
    {
      "anonymous": false,
      "inputs": [
        {
          "indexed": true,
          "internalType": "address",
          "name": "previousOwner",
          "type": "address"
        },
        {
          "indexed": true,
          "internalType": "address",
          "name": "newOwner",
          "type": "address"
        }
      ],
      "name": "OwnershipTransferred",
      "type": "event"
    },
    {
      "anonymous": false,
      "inputs": [
        {
          "indexed": false,
          "internalType": "address",
          "name": "indexPool",
          "type": "address"
        },
        {
          "indexed": false,
          "internalType": "address",
          "name": "stakingToken",
          "type": "address"
        },
        {
          "indexed": false,
          "internalType": "address",
          "name": "stakingRewards",
          "type": "address"
        }
      ],
      "name": "UniswapStakingRewardsAdded",
      "type": "event"
    },
    {
      "inputs": [],
      "name": "STAKING_REWARDS_IMPLEMENTATION_ID",
      "outputs": [
        {
          "internalType": "bytes32",
          "name": "",
          "type": "bytes32"
        }
      ],
      "stateMutability": "view",
      "type": "function"
    },
    {
      "inputs": [
        {
          "internalType": "address",
          "name": "stakingToken",
          "type": "address"
        }
      ],
      "name": "computeStakingRewardsAddress",
      "outputs": [
        {
          "internalType": "address",
          "name": "",
          "type": "address"
        }
      ],
      "stateMutability": "view",
      "type": "function"
    },
    {
      "inputs": [
        {
          "internalType": "address",
          "name": "indexPool",
          "type": "address"
        },
        {
          "internalType": "uint88",
          "name": "rewardAmount",
          "type": "uint88"
        },
        {
          "internalType": "uint256",
          "name": "rewardsDuration",
          "type": "uint256"
        }
      ],
      "name": "deployStakingRewardsForPool",
      "outputs": [
        {
          "internalType": "address",
          "name": "",
          "type": "address"
        }
      ],
      "stateMutability": "nonpayable",
      "type": "function"
    },
    {
      "inputs": [
        {
          "internalType": "address",
          "name": "indexPool",
          "type": "address"
        },
        {
          "internalType": "uint88",
          "name": "rewardAmount",
          "type": "uint88"
        },
        {
          "internalType": "uint256",
          "name": "rewardsDuration",
          "type": "uint256"
        }
      ],
      "name": "deployStakingRewardsForPoolUniswapPair",
      "outputs": [],
      "stateMutability": "nonpayable",
      "type": "function"
    },
    {
      "inputs": [
        {
          "internalType": "address",
          "name": "stakingToken",
          "type": "address"
        }
      ],
      "name": "getStakingRewards",
      "outputs": [
        {
          "internalType": "address",
          "name": "",
          "type": "address"
        }
      ],
      "stateMutability": "view",
      "type": "function"
    },
    {
      "inputs": [],
      "name": "getStakingTokens",
      "outputs": [
        {
          "internalType": "address[]",
          "name": "",
          "type": "address[]"
        }
      ],
      "stateMutability": "view",
      "type": "function"
    },
    {
      "inputs": [
        {
          "internalType": "address",
          "name": "stakingToken",
          "type": "address"
        },
        {
          "internalType": "uint88",
          "name": "rewardAmount",
          "type": "uint88"
        }
      ],
      "name": "increaseStakingRewards",
      "outputs": [],
      "stateMutability": "nonpayable",
      "type": "function"
    },
    {
      "inputs": [
        {
          "internalType": "address",
          "name": "stakingToken",
          "type": "address"
        }
      ],
      "name": "notifyRewardAmount",
      "outputs": [],
      "stateMutability": "nonpayable",
      "type": "function"
    },
    {
      "inputs": [],
      "name": "notifyRewardAmounts",
      "outputs": [],
      "stateMutability": "nonpayable",
      "type": "function"
    },
    {
      "inputs": [],
      "name": "owner",
      "outputs": [
        {
          "internalType": "address",
          "name": "",
          "type": "address"
        }
      ],
      "stateMutability": "view",
      "type": "function"
    },
    {
      "inputs": [],
      "name": "poolFactory",
      "outputs": [
        {
          "internalType": "address",
          "name": "",
          "type": "address"
        }
      ],
      "stateMutability": "view",
      "type": "function"
    },
    {
      "inputs": [],
      "name": "proxyManager",
      "outputs": [
        {
          "internalType": "address",
          "name": "",
          "type": "address"
        }
      ],
      "stateMutability": "view",
      "type": "function"
    },
    {
      "inputs": [
        {
          "internalType": "address",
          "name": "stakingToken",
          "type": "address"
        },
        {
          "internalType": "address",
          "name": "tokenAddress",
          "type": "address"
        }
      ],
      "name": "recoverERC20",
      "outputs": [],
      "stateMutability": "nonpayable",
      "type": "function"
    },
    {
      "inputs": [],
      "name": "renounceOwnership",
      "outputs": [],
      "stateMutability": "nonpayable",
      "type": "function"
    },
    {
      "inputs": [],
      "name": "rewardsToken",
      "outputs": [
        {
          "internalType": "address",
          "name": "",
          "type": "address"
        }
      ],
      "stateMutability": "view",
      "type": "function"
    },
    {
      "inputs": [
        {
          "internalType": "address",
          "name": "stakingToken",
          "type": "address"
        },
        {
          "internalType": "uint256",
          "name": "newDuration",
          "type": "uint256"
        }
      ],
      "name": "setRewardsDuration",
      "outputs": [],
      "stateMutability": "nonpayable",
      "type": "function"
    },
    {
      "inputs": [],
      "name": "stakingRewardsGenesis",
      "outputs": [
        {
          "internalType": "uint256",
          "name": "",
          "type": "uint256"
        }
      ],
      "stateMutability": "view",
      "type": "function"
    },
    {
      "inputs": [
        {
          "internalType": "address",
          "name": "",
          "type": "address"
        }
      ],
      "name": "stakingRewardsInfoByStakingToken",
      "outputs": [
        {
          "internalType": "enum StakingRewardsFactory.StakingTokenType",
          "name": "tokenType",
          "type": "uint8"
        },
        {
          "internalType": "address",
          "name": "stakingRewards",
          "type": "address"
        },
        {
          "internalType": "uint88",
          "name": "rewardAmount",
          "type": "uint88"
        }
      ],
      "stateMutability": "view",
      "type": "function"
    },
    {
      "inputs": [
        {
          "internalType": "uint256",
          "name": "",
          "type": "uint256"
        }
      ],
      "name": "stakingTokens",
      "outputs": [
        {
          "internalType": "address",
          "name": "",
          "type": "address"
        }
      ],
      "stateMutability": "view",
      "type": "function"
    },
    {
      "inputs": [
        {
          "internalType": "address",
          "name": "newOwner",
          "type": "address"
        }
      ],
      "name": "transferOwnership",
      "outputs": [],
      "stateMutability": "nonpayable",
      "type": "function"
    },
    {
      "inputs": [],
      "name": "uniswapFactory",
      "outputs": [
        {
          "internalType": "address",
          "name": "",
          "type": "address"
        }
      ],
      "stateMutability": "view",
      "type": "function"
    },
    {
      "inputs": [],
      "name": "weth",
      "outputs": [
        {
          "internalType": "address",
          "name": "",
          "type": "address"
        }
      ],
      "stateMutability": "view",
      "type": "function"
    }
  ],
  "transactionHash": "0x4918534bfdea116a46db706e29b5b3043c13242194123db387df42129edc4c14",
  "args": [
    "0x86772b1409b61c639EaAc9Ba0AcfBb6E238e5F83",
    1608595200,
    "0xD23DeDC599bD56767e42D48484d6Ca96ab01C115",
    "0x592f70cE43a310D15fF59BE1460F38Ab6DF3Fe65",
    "0x5C69bEe701ef814a2B6a3EDD4B1652CB9cc5aA6f",
    "0xC02aaA39b223FE8D0A0e5C4F27eAD9083C756Cc2"
  ],
  "solcInputHash": "0x4451a16c37d1f00b284fbb62b2ca1880fd9024860cc8045b98027805b7e06e76",
  "bytecode": "0x61014060405234801561001157600080fd5b50604051611fa9380380611fa9833981810160405260c081101561003457600080fd5b508051602082015160408301516060840151608085015160a09095015193949293919290916000610063610135565b600080546001600160a01b0319166001600160a01b0383169081178255604051929350917f8be0079c531659141344cd1fd0a4f28419497f9722a3daafe3b4186f6b6457e0908290a3506001600160601b0319606087901b1660c052428510156100fe5760405162461bcd60e51b8152600401808060200182810382526034815260200180611f756034913960400191505060405180910390fd5b610120949094526001600160601b0319606093841b811660a05291831b8216608052821b811660e05291901b166101005250610139565b3390565b60805160601c60a05160601c60c05160601c60e05160601c6101005160601c61012051611db26101c360003980610e1752806110c252508061070f52806109e85250806106ed528061106b525080610cc35280610ee9528061152a52508061047d52806107f7528061109e52806113555250806106145280610a0c52806112205250611db26000f3fe608060405234801561001057600080fd5b50600436106101425760003560e01c8063886f039a116100b8578063ae741d8d1161007c578063ae741d8d1461036f578063b26c47ac14610377578063ccf2c532146103b2578063d1af0c7d146103ba578063da1d111b146103c2578063f2fde38b1461041a57610142565b8063886f039a1461030f5780638bdb2afa1461033d5780638da5cb5b1461034557806396b4ca701461034d578063a0928c111461035557610142565b80633fc8cef31161010a5780633fc8cef3146102355780634219dc401461023d5780636cf8caf814610245578063715018a6146102ac5780637d949971146102b457806381e16298146102e957610142565b8063050848541461014757806321efe200146101895780632378bea6146101af57806331860e1b146101dd578063344e5e3414610218575b600080fd5b61016d6004803603602081101561015d57600080fd5b50356001600160a01b0316610440565b604080516001600160a01b039092168252519081900360200190f35b61016d6004803603602081101561019f57600080fd5b50356001600160a01b03166104b9565b6101db600480360360408110156101c557600080fd5b506001600160a01b0381351690602001356104db565b005b6101db600480360360608110156101f357600080fd5b506001600160a01b03813516906001600160581b0360208201351690604001356105ba565b61016d6004803603602081101561022e57600080fd5b50356109bf565b61016d6109e6565b61016d610a0a565b61026b6004803603602081101561025b57600080fd5b50356001600160a01b0316610a2e565b6040518084600181111561027b57fe5b8152602001836001600160a01b03168152602001826001600160581b03168152602001935050505060405180910390f35b6101db610a64565b6101db600480360360408110156102ca57600080fd5b5080356001600160a01b031690602001356001600160581b0316610b06565b6101db600480360360208110156102ff57600080fd5b50356001600160a01b0316610e15565b6101db6004803603604081101561032557600080fd5b506001600160a01b0381358116916020013516610fee565b61016d611069565b61016d61108d565b61016d61109c565b61035d6110c0565b60408051918252519081900360200190f35b6101db6110e4565b61016d6004803603606081101561038d57600080fd5b506001600160a01b03813516906001600160581b036020820135169060400135611164565b61035d611516565b61016d611528565b6103ca61154c565b60408051602080825283518183015283519192839290830191858101910280838360005b838110156104065781810151838201526020016103ee565b505050509050019250505060405180910390f35b6101db6004803603602081101561043057600080fd5b50356001600160a01b03166115ae565b6000808260405160200180826001600160a01b031660601b81526014019150506040516020818303038152906040528051906020012090506104b27f000000000000000000000000000000000000000000000000000000000000000030600080516020611b3f833981519152846116a6565b9392505050565b6000806104c5836116eb565b5461010090046001600160a01b03169392505050565b6104e3611751565b6000546001600160a01b03908116911614610533576040805162461bcd60e51b81526020600482018190526024820152600080516020611ae5833981519152604482015290519081900360640190fd5b600061053e836116eb565b90508060000160019054906101000a90046001600160a01b03166001600160a01b031663cc1a378f836040518263ffffffff1660e01b815260040180828152602001915050600060405180830381600087803b15801561059d57600080fd5b505af11580156105b1573d6000803e3d6000fd5b50505050505050565b6105c2611751565b6000546001600160a01b03908116911614610612576040805162461bcd60e51b81526020600482018190526024820152600080516020611ae5833981519152604482015290519081900360640190fd5b7f00000000000000000000000000000000000000000000000000000000000000006001600160a01b03166347080612846040518263ffffffff1660e01b815260040180826001600160a01b0316815260200191505060206040518083038186803b15801561067f57600080fd5b505afa158015610693573d6000803e3d6000fd5b505050506040513d60208110156106a957600080fd5b50516106e65760405162461bcd60e51b8152600401808060200182810382526051815260200180611d2c6051913960600191505060405180910390fd5b60006107337f0000000000000000000000000000000000000000000000000000000000000000857f0000000000000000000000000000000000000000000000000000000000000000611755565b6001600160a01b038082166000908152600260205260409020805492935091610100900416156107945760405162461bcd60e51b815260040180806020018281038252604f815260200180611a1c604f913960600191505060405180910390fd5b604080516001600160601b0319606085901b166020808301919091528251808303601401815260348301808552815191830191909120631a5e5bc560e01b909152600080516020611b3f83398151915260388401526058830181905292516000927f00000000000000000000000000000000000000000000000000000000000000006001600160a01b031692631a5e5bc59260788084019382900301818787803b15801561084157600080fd5b505af1158015610855573d6000803e3d6000fd5b505050506040513d602081101561086b57600080fd5b50516040805163cd6dc68760e01b81526001600160a01b0387811660048301526024820189905291519293509083169163cd6dc6879160448082019260009290919082900301818387803b1580156108c257600080fd5b505af11580156108d6573d6000803e3d6000fd5b50508454610100600160a81b0319166101006001600160a01b03851602176001600160a81b0316600160a81b6001600160581b038a1602178086556001925085915060ff1916828002179055506001805480820182556000919091527fb10e2d527612073b26eecdfd717e6a320cf44b4afac2b0732d9fcbe2b7fa0cf60180546001600160a01b038087166001600160a01b03199092168217909255604080518a8416815260208101929092529183168183015290517fb3148d85a224ed5d008a6a0e1c86c48f4da48871f5c1dbbcce5288bc48b5f7229181900360600190a150505050505050565b600181815481106109cc57fe5b6000918252602090912001546001600160a01b0316905081565b7f000000000000000000000000000000000000000000000000000000000000000081565b7f000000000000000000000000000000000000000000000000000000000000000081565b60026020526000908152604090205460ff81169061010081046001600160a01b031690600160a81b90046001600160581b031683565b610a6c611751565b6000546001600160a01b03908116911614610abc576040805162461bcd60e51b81526020600482018190526024820152600080516020611ae5833981519152604482015290519081900360640190fd5b600080546040516001600160a01b03909116907f8be0079c531659141344cd1fd0a4f28419497f9722a3daafe3b4186f6b6457e0908390a3600080546001600160a01b0319169055565b610b0e611751565b6000546001600160a01b03908116911614610b5e576040805162461bcd60e51b81526020600482018190526024820152600080516020611ae5833981519152604482015290519081900360640190fd5b6000816001600160581b031611610ba65760405162461bcd60e51b8152600401808060200182810382526045815260200180611ba46045913960600191505060405180910390fd5b6000610bb1836116eb565b8054909150600160a81b90046001600160581b031615610c025760405162461bcd60e51b8152600401808060200182810382526068815260200180611cc46068913960800191505060405180910390fd5b60008160000160019054906101000a90046001600160a01b03169050806001600160a01b031663ebe2b12b6040518163ffffffff1660e01b815260040160206040518083038186803b158015610c5757600080fd5b505afa158015610c6b573d6000803e3d6000fd5b505050506040513d6020811015610c8157600080fd5b5051421015610cc15760405162461bcd60e51b8152600401808060200182810382526067815260200180611c5d6067913960800191505060405180910390fd5b7f00000000000000000000000000000000000000000000000000000000000000006001600160a01b031663a9059cbb82856040518363ffffffff1660e01b815260040180836001600160a01b03168152602001826001600160581b0316815260200192505050602060405180830381600087803b158015610d4157600080fd5b505af1158015610d55573d6000803e3d6000fd5b505050506040513d6020811015610d6b57600080fd5b5051610da85760405162461bcd60e51b815260040180806020018281038252603e8152602001806119b9603e913960400191505060405180910390fd5b806001600160a01b0316633c6b16ab846040518263ffffffff1660e01b815260040180826001600160581b03168152602001915050600060405180830381600087803b158015610df757600080fd5b505af1158015610e0b573d6000803e3d6000fd5b5050505050505050565b7f0000000000000000000000000000000000000000000000000000000000000000421015610e745760405162461bcd60e51b8152600401808060200182810382526034815260200180611a6b6034913960400191505060405180910390fd5b6000610e7f826116eb565b8054909150600160a81b90046001600160581b031615610fea5780546001600160a81b0381168083556040805163a9059cbb60e01b81526001600160a01b0361010090930483166004820152600160a81b9093046001600160581b031660248401819052905190927f00000000000000000000000000000000000000000000000000000000000000009092169163a9059cbb9160448083019260209291908290030181600087803b158015610f3357600080fd5b505af1158015610f47573d6000803e3d6000fd5b505050506040513d6020811015610f5d57600080fd5b5051610f9a5760405162461bcd60e51b815260040180806020018281038252603a815260200180611b05603a913960400191505060405180910390fd5b815460408051633c6b16ab60e01b81526004810184905290516101009092046001600160a01b031691633c6b16ab9160248082019260009290919082900301818387803b15801561059d57600080fd5b5050565b6000610ff9836116eb565b805490915061010090046001600160a01b031663886f039a8361101a61108d565b6040518363ffffffff1660e01b815260040180836001600160a01b03168152602001826001600160a01b0316815260200192505050600060405180830381600087803b15801561059d57600080fd5b7f000000000000000000000000000000000000000000000000000000000000000081565b6000546001600160a01b031690565b7f000000000000000000000000000000000000000000000000000000000000000081565b7f000000000000000000000000000000000000000000000000000000000000000081565b6001546111225760405162461bcd60e51b8152600401808060200182810382526045815260200180611b5f6045913960600191505060405180910390fd5b60005b600154811015611161576111596001828154811061113f57fe5b6000918252602090912001546001600160a01b0316610e15565b600101611125565b50565b600061116e611751565b6000546001600160a01b039081169116146111be576040805162461bcd60e51b81526020600482018190526024820152600080516020611ae5833981519152604482015290519081900360640190fd5b6001600160a01b03808516600090815260026020526040902080549091610100909104161561121e5760405162461bcd60e51b8152600401808060200182810382526044815260200180611c196044913960600191505060405180910390fd5b7f00000000000000000000000000000000000000000000000000000000000000006001600160a01b03166347080612866040518263ffffffff1660e01b815260040180826001600160a01b0316815260200191505060206040518083038186803b15801561128b57600080fd5b505afa15801561129f573d6000803e3d6000fd5b505050506040513d60208110156112b557600080fd5b50516112f25760405162461bcd60e51b8152600401808060200182810382526046815260200180611a9f6046913960600191505060405180910390fd5b604080516001600160601b0319606088901b166020808301919091528251808303601401815260348301808552815191830191909120631a5e5bc560e01b909152600080516020611b3f83398151915260388401526058830181905292516000927f00000000000000000000000000000000000000000000000000000000000000006001600160a01b031692631a5e5bc59260788084019382900301818787803b15801561139f57600080fd5b505af11580156113b3573d6000803e3d6000fd5b505050506040513d60208110156113c957600080fd5b50516040805163cd6dc68760e01b81526001600160a01b038a811660048301526024820189905291519293509083169163cd6dc6879160448082019260009290919082900301818387803b15801561142057600080fd5b505af1158015611434573d6000803e3d6000fd5b50508454610100600160a81b0319166101006001600160a01b03851602176001600160a81b0316600160a81b6001600160581b038a1602178086556000925085915060ff191660018302179055506001805480820182556000919091527fb10e2d527612073b26eecdfd717e6a320cf44b4afac2b0732d9fcbe2b7fa0cf60180546001600160a01b0319166001600160a01b0389811691821790925560408051918252918316602082015281517f0f45ccf38e8faac8aba2bc683d981e3ba1cb5da4ed415db60caf4e1bc3f8c894929181900390910190a19695505050505050565b600080516020611b3f83398151915281565b7f000000000000000000000000000000000000000000000000000000000000000081565b606060018054806020026020016040519081016040528092919081815260200182805480156115a457602002820191906000526020600020905b81546001600160a01b03168152600190910190602001808311611586575b5050505050905090565b6115b6611751565b6000546001600160a01b03908116911614611606576040805162461bcd60e51b81526020600482018190526024820152600080516020611ae5833981519152604482015290519081900360640190fd5b6001600160a01b03811661164b5760405162461bcd60e51b81526004018080602001828103825260268152602001806119936026913960400191505060405180910390fd5b600080546040516001600160a01b03808516939216917f8be0079c531659141344cd1fd0a4f28419497f9722a3daafe3b4186f6b6457e091a3600080546001600160a01b0319166001600160a01b0392909216919091179055565b6000806116b4858585611773565b90506116e1817fa035ad05a1663db5bfd455b99cd7c6ac6bd49269738458eda140e0b78ed53f79886117bb565b9695505050505050565b6001600160a01b03808216600090815260026020526040812080549192909161010090041661174b5760405162461bcd60e51b8152600401808060200182810382526030815260200180611be96030913960400191505060405180910390fd5b92915050565b3390565b60008060006117648585611811565b915091506116e18683836118ef565b6040805160609490941b6001600160601b0319166020808601919091526034850193909352605480850192909252805180850390920182526074909301909252815191012090565b604080516001600160f81b031960208083019190915260609390931b6001600160601b03191660218201526035810194909452605580850193909352805180850390930183526075909301909252805191012090565b600080826001600160a01b0316846001600160a01b031614156118655760405162461bcd60e51b81526004018080602001828103825260258152602001806119f76025913960400191505060405180910390fd5b826001600160a01b0316846001600160a01b031610611885578284611888565b83835b90925090506001600160a01b0382166118e8576040805162461bcd60e51b815260206004820152601e60248201527f556e697377617056324c6962726172793a205a45524f5f414444524553530000604482015290519081900360640190fd5b9250929050565b604080516001600160601b0319606094851b811660208084019190915293851b81166034830152825160288184030181526048830184528051908501206001600160f81b031960688401529590941b9093166069840152607d8301939093527f96e8ac4277198ff8b6f785478aa9a39f403cb768dd02cbee326c3e7da348845f609d808401919091528351808403909101815260bd90920190925280519101209056fe4f776e61626c653a206e6577206f776e657220697320746865207a65726f20616464726573735374616b696e6752657761726473466163746f72793a3a696e6372656173655374616b696e67526577617264733a205472616e73666572206661696c6564556e697377617056324c6962726172793a204944454e544943414c5f4144445245535345535374616b696e6752657761726473466163746f72793a3a6465706c6f795374616b696e6752657761726473466f72506f6f6c556e6973776170506169723a20416c7265616479206465706c6f7965645374616b696e6752657761726473466163746f72793a3a6e6f74696679526577617264416d6f756e743a204e6f742072656164795374616b696e6752657761726473466163746f72793a3a6465706c6f795374616b696e6752657761726473466f72506f6f6c3a204e6f7420616e20696e64657820706f6f6c2e4f776e61626c653a2063616c6c6572206973206e6f7420746865206f776e65725374616b696e6752657761726473466163746f72793a3a6e6f74696679526577617264416d6f756e743a205472616e73666572206661696c65647f5ecfab5cfb6efd4fdd03b2837b063783f5386156bad4b03cf27b88c3e695ad5374616b696e6752657761726473466163746f72793a3a6e6f74696679526577617264416d6f756e74733a2063616c6c6564206265666f726520616e79206465706c6f79735374616b696e6752657761726473466163746f72793a3a696e6372656173655374616b696e67526577617264733a2043616e206e6f7420616464203020726577617264732e5374616b696e6752657761726473466163746f72793a3a5f676574526577617264733a204e6f74206465706c6f7965645374616b696e6752657761726473466163746f72793a3a6465706c6f795374616b696e6752657761726473466f72506f6f6c3a20416c7265616479206465706c6f7965645374616b696e6752657761726473466163746f72793a3a696e6372656173655374616b696e67526577617264733a2050726576696f7573207265776172647320706572696f64206d75737420626520636f6d706c65746520746f2061646420726577617264732e5374616b696e6752657761726473466163746f72793a3a696e6372656173655374616b696e67526577617264733a2043616e206e6f74206164642072657761726473207768696c6520706f6f6c207374696c6c206861732070656e64696e6720726577617264732e5374616b696e6752657761726473466163746f72793a3a6465706c6f795374616b696e6752657761726473466f72506f6f6c556e6973776170506169723a204e6f7420616e20696e64657820706f6f6c2ea264697066735822122028a5ffe10b227526d32c4fd0b2603641f370b0d5165eb6aaf1d2681e46e1749564736f6c634300060c00335374616b696e6752657761726473466163746f72793a3a636f6e7374727563746f723a2067656e6573697320746f6f20736f6f6e",
  "devdoc": {
    "kind": "dev",
    "methods": {
      "deployStakingRewardsForPool(address,uint88,uint256)": {
        "details": "Deploys a staking pool for the LP token of an index pool. Verifies that the staking token is the address of a pool deployed by the Indexed pool factory."
      },
      "deployStakingRewardsForPoolUniswapPair(address,uint88,uint256)": {
        "details": "Deploys staking rewards for the LP token of the Uniswap pair between an index pool token and WETH. Verifies that the LP token is the address of a pool deployed by the Indexed pool factory, then uses the address of the Uniswap pair between it and WETH as the staking token."
      },
      "increaseStakingRewards(address,uint88)": {
        "details": "Increases the staking rewards on the staking pool for `stakingToken` and notify the pool of the new rewards. Only allowed when the current rewards are zero and the staking pool has finished its last rewards period."
      },
      "notifyRewardAmount(address)": {
        "details": "Notifies the staking pool for the token `stakingToken` of its pending rewards."
      },
      "notifyRewardAmounts()": {
        "details": "Notifies all tokens of their pending rewards."
      },
      "owner()": {
        "details": "Returns the address of the current owner."
      },
      "recoverERC20(address,address)": {
        "details": "Recovers the balance of `tokenAddress` on the staking pool for the token `stakingToken`. The token to recover must not be the staking token or the rewards token for that pool. The balance in `tokenAddress` owned by the pool will be sent to the owner of the rewards factory.",
        "params": {
          "stakingToken": "Address of the staking token whose staking pool the tokens will be recovered from.",
          "tokenAddress": "Address of the token to recover from the staking pool."
        }
      },
      "renounceOwnership()": {
        "details": "Leaves the contract without owner. It will not be possible to call `onlyOwner` functions anymore. Can only be called by the current owner. NOTE: Renouncing ownership will leave the contract without an owner, thereby removing any functionality that is only available to the owner."
      },
      "setRewardsDuration(address,uint256)": {
        "details": "Updates the rewards duration on the staking pool for the token `stakingToken`."
      },
      "transferOwnership(address)": {
        "details": "Transfers ownership of the contract to a new account (`newOwner`). Can only be called by the current owner."
      }
    },
    "stateVariables": {
      "STAKING_REWARDS_IMPLEMENTATION_ID": {
        "details": "Used to identify the implementation for staking rewards proxies."
      },
      "poolFactory": {
        "details": "Address of the pool factory - used to verify staking token eligibility."
      },
      "proxyManager": {
        "details": "The address of the proxy manager - used to deploy staking pools."
      },
      "rewardsToken": {
        "details": "The address of the token to distribute."
      },
      "stakingRewardsGenesis": {
        "details": "Timestamp at which staking begins."
      },
      "stakingRewardsInfoByStakingToken": {
        "details": "Rewards info by staking token."
      },
      "stakingTokens": {
        "details": "The staking tokens for which a rewards contract has been deployed."
      },
      "uniswapFactory": {
        "details": "The address of the Uniswap factory - used to compute the addresses of Uniswap pairs eligible for distribution."
      },
      "weth": {
        "details": "The address of the wrapped ether token - used to identify Uniswap pairs eligible for distribution."
      }
    },
    "version": 1
  },
  "userdoc": {
    "kind": "user",
    "methods": {},
    "version": 1
  },
  "storageLayout": {
    "storage": [
      {
        "astId": 348,
        "contract": "temp-contracts/distribution/StakingRewardsFactory.sol:StakingRewardsFactory",
        "label": "_owner",
        "offset": 0,
        "slot": "0",
        "type": "t_address"
      },
      {
        "astId": 906,
        "contract": "temp-contracts/distribution/StakingRewardsFactory.sol:StakingRewardsFactory",
        "label": "stakingTokens",
        "offset": 0,
        "slot": "1",
        "type": "t_array(t_address)dyn_storage"
      },
      {
        "astId": 911,
        "contract": "temp-contracts/distribution/StakingRewardsFactory.sol:StakingRewardsFactory",
        "label": "stakingRewardsInfoByStakingToken",
        "offset": 0,
        "slot": "2",
        "type": "t_mapping(t_address,t_struct(StakingRewardsInfo)901_storage)"
      }
    ],
    "types": {
      "t_address": {
        "encoding": "inplace",
        "label": "address",
        "numberOfBytes": "20"
      },
      "t_array(t_address)dyn_storage": {
        "base": "t_address",
        "encoding": "dynamic_array",
        "label": "address[]",
        "numberOfBytes": "32"
      },
      "t_enum(StakingTokenType)894": {
        "encoding": "inplace",
        "label": "enum StakingRewardsFactory.StakingTokenType",
        "numberOfBytes": "1"
      },
      "t_mapping(t_address,t_struct(StakingRewardsInfo)901_storage)": {
        "encoding": "mapping",
        "key": "t_address",
        "label": "mapping(address => struct StakingRewardsFactory.StakingRewardsInfo)",
        "numberOfBytes": "32",
        "value": "t_struct(StakingRewardsInfo)901_storage"
      },
      "t_struct(StakingRewardsInfo)901_storage": {
        "encoding": "inplace",
        "label": "struct StakingRewardsFactory.StakingRewardsInfo",
        "members": [
          {
            "astId": 896,
            "contract": "temp-contracts/distribution/StakingRewardsFactory.sol:StakingRewardsFactory",
            "label": "tokenType",
            "offset": 0,
            "slot": "0",
            "type": "t_enum(StakingTokenType)894"
          },
          {
            "astId": 898,
            "contract": "temp-contracts/distribution/StakingRewardsFactory.sol:StakingRewardsFactory",
            "label": "stakingRewards",
            "offset": 1,
            "slot": "0",
            "type": "t_address"
          },
          {
            "astId": 900,
            "contract": "temp-contracts/distribution/StakingRewardsFactory.sol:StakingRewardsFactory",
            "label": "rewardAmount",
            "offset": 21,
            "slot": "0",
            "type": "t_uint88"
          }
        ],
        "numberOfBytes": "32"
      },
      "t_uint88": {
        "encoding": "inplace",
        "label": "uint88",
        "numberOfBytes": "11"
      }
    }
  },
  "gasEstimates": {
    "creation": {
      "codeDepositCost": "1520400",
      "executionCost": "infinite",
      "totalCost": "infinite"
    },
    "external": {
      "STAKING_REWARDS_IMPLEMENTATION_ID()": "infinite",
      "computeStakingRewardsAddress(address)": "infinite",
      "deployStakingRewardsForPool(address,uint88,uint256)": "infinite",
      "deployStakingRewardsForPoolUniswapPair(address,uint88,uint256)": "infinite",
      "getStakingRewards(address)": "infinite",
      "getStakingTokens()": "infinite",
      "increaseStakingRewards(address,uint88)": "infinite",
      "notifyRewardAmount(address)": "infinite",
      "notifyRewardAmounts()": "infinite",
      "owner()": "1104",
      "poolFactory()": "infinite",
      "proxyManager()": "infinite",
      "recoverERC20(address,address)": "infinite",
      "renounceOwnership()": "infinite",
      "rewardsToken()": "infinite",
      "setRewardsDuration(address,uint256)": "infinite",
      "stakingRewardsGenesis()": "infinite",
      "stakingRewardsInfoByStakingToken(address)": "1379",
      "stakingTokens(uint256)": "2082",
      "transferOwnership(address)": "infinite",
      "uniswapFactory()": "infinite",
      "weth()": "infinite"
    },
    "internal": {
      "_getRewards(address)": "infinite"
    }
  }
}