{
  "address": "0x9B46249Be2895422AcEeFd10005aC04452bdd51d",
  "abi": [
    {
      "inputs": [
        {
          "internalType": "address",
          "name": "rewardsDistribution_",
          "type": "address"
        },
        {
          "internalType": "address",
          "name": "rewardsToken_",
          "type": "address"
        }
      ],
      "stateMutability": "nonpayable",
      "type": "constructor"
    },
    {
      "anonymous": false,
      "inputs": [
        {
          "indexed": false,
          "internalType": "address",
          "name": "token",
          "type": "address"
        },
        {
          "indexed": false,
          "internalType": "uint256",
          "name": "amount",
          "type": "uint256"
        }
      ],
      "name": "Recovered",
      "type": "event"
    },
    {
      "anonymous": false,
      "inputs": [
        {
          "indexed": false,
          "internalType": "uint256",
          "name": "reward",
          "type": "uint256"
        }
      ],
      "name": "RewardAdded",
      "type": "event"
    },
    {
      "anonymous": false,
      "inputs": [
        {
          "indexed": true,
          "internalType": "address",
          "name": "user",
          "type": "address"
        },
        {
          "indexed": false,
          "internalType": "uint256",
          "name": "reward",
          "type": "uint256"
        }
      ],
      "name": "RewardPaid",
      "type": "event"
    },
    {
      "anonymous": false,
      "inputs": [
        {
          "indexed": false,
          "internalType": "uint256",
          "name": "newDuration",
          "type": "uint256"
        }
      ],
      "name": "RewardsDurationUpdated",
      "type": "event"
    },
    {
      "anonymous": false,
      "inputs": [
        {
          "indexed": true,
          "internalType": "address",
          "name": "user",
          "type": "address"
        },
        {
          "indexed": false,
          "internalType": "uint256",
          "name": "amount",
          "type": "uint256"
        }
      ],
      "name": "Staked",
      "type": "event"
    },
    {
      "anonymous": false,
      "inputs": [
        {
          "indexed": true,
          "internalType": "address",
          "name": "user",
          "type": "address"
        },
        {
          "indexed": false,
          "internalType": "uint256",
          "name": "amount",
          "type": "uint256"
        }
      ],
      "name": "Withdrawn",
      "type": "event"
    },
    {
      "inputs": [
        {
          "internalType": "address",
          "name": "account",
          "type": "address"
        }
      ],
      "name": "balanceOf",
      "outputs": [
        {
          "internalType": "uint256",
          "name": "",
          "type": "uint256"
        }
      ],
      "stateMutability": "view",
      "type": "function"
    },
    {
      "inputs": [
        {
          "internalType": "address",
          "name": "account",
          "type": "address"
        }
      ],
      "name": "earned",
      "outputs": [
        {
          "internalType": "uint256",
          "name": "",
          "type": "uint256"
        }
      ],
      "stateMutability": "view",
      "type": "function"
    },
    {
      "inputs": [],
      "name": "exit",
      "outputs": [],
      "stateMutability": "nonpayable",
      "type": "function"
    },
    {
      "inputs": [],
      "name": "getReward",
      "outputs": [],
      "stateMutability": "nonpayable",
      "type": "function"
    },
    {
      "inputs": [],
      "name": "getRewardForDuration",
      "outputs": [
        {
          "internalType": "uint256",
          "name": "",
          "type": "uint256"
        }
      ],
      "stateMutability": "view",
      "type": "function"
    },
    {
      "inputs": [
        {
          "internalType": "address",
          "name": "stakingToken_",
          "type": "address"
        },
        {
          "internalType": "uint256",
          "name": "rewardsDuration_",
          "type": "uint256"
        }
      ],
      "name": "initialize",
      "outputs": [],
      "stateMutability": "nonpayable",
      "type": "function"
    },
    {
      "inputs": [],
      "name": "lastTimeRewardApplicable",
      "outputs": [
        {
          "internalType": "uint256",
          "name": "",
          "type": "uint256"
        }
      ],
      "stateMutability": "view",
      "type": "function"
    },
    {
      "inputs": [],
      "name": "lastUpdateTime",
      "outputs": [
        {
          "internalType": "uint256",
          "name": "",
          "type": "uint256"
        }
      ],
      "stateMutability": "view",
      "type": "function"
    },
    {
      "inputs": [
        {
          "internalType": "uint256",
          "name": "reward",
          "type": "uint256"
        }
      ],
      "name": "notifyRewardAmount",
      "outputs": [],
      "stateMutability": "nonpayable",
      "type": "function"
    },
    {
      "inputs": [],
      "name": "periodFinish",
      "outputs": [
        {
          "internalType": "uint256",
          "name": "",
          "type": "uint256"
        }
      ],
      "stateMutability": "view",
      "type": "function"
    },
    {
      "inputs": [
        {
          "internalType": "address",
          "name": "tokenAddress",
          "type": "address"
        },
        {
          "internalType": "address",
          "name": "recipient",
          "type": "address"
        }
      ],
      "name": "recoverERC20",
      "outputs": [],
      "stateMutability": "nonpayable",
      "type": "function"
    },
    {
      "inputs": [],
      "name": "rewardPerToken",
      "outputs": [
        {
          "internalType": "uint256",
          "name": "",
          "type": "uint256"
        }
      ],
      "stateMutability": "view",
      "type": "function"
    },
    {
      "inputs": [],
      "name": "rewardPerTokenStored",
      "outputs": [
        {
          "internalType": "uint256",
          "name": "",
          "type": "uint256"
        }
      ],
      "stateMutability": "view",
      "type": "function"
    },
    {
      "inputs": [],
      "name": "rewardRate",
      "outputs": [
        {
          "internalType": "uint256",
          "name": "",
          "type": "uint256"
        }
      ],
      "stateMutability": "view",
      "type": "function"
    },
    {
      "inputs": [
        {
          "internalType": "address",
          "name": "",
          "type": "address"
        }
      ],
      "name": "rewards",
      "outputs": [
        {
          "internalType": "uint256",
          "name": "",
          "type": "uint256"
        }
      ],
      "stateMutability": "view",
      "type": "function"
    },
    {
      "inputs": [],
      "name": "rewardsDistribution",
      "outputs": [
        {
          "internalType": "address",
          "name": "",
          "type": "address"
        }
      ],
      "stateMutability": "view",
      "type": "function"
    },
    {
      "inputs": [],
      "name": "rewardsDuration",
      "outputs": [
        {
          "internalType": "uint256",
          "name": "",
          "type": "uint256"
        }
      ],
      "stateMutability": "view",
      "type": "function"
    },
    {
      "inputs": [],
      "name": "rewardsToken",
      "outputs": [
        {
          "internalType": "contract IERC20",
          "name": "",
          "type": "address"
        }
      ],
      "stateMutability": "view",
      "type": "function"
    },
    {
      "inputs": [
        {
          "internalType": "uint256",
          "name": "_rewardsDuration",
          "type": "uint256"
        }
      ],
      "name": "setRewardsDuration",
      "outputs": [],
      "stateMutability": "nonpayable",
      "type": "function"
    },
    {
      "inputs": [
        {
          "internalType": "uint256",
          "name": "amount",
          "type": "uint256"
        }
      ],
      "name": "stake",
      "outputs": [],
      "stateMutability": "nonpayable",
      "type": "function"
    },
    {
      "inputs": [],
      "name": "stakingToken",
      "outputs": [
        {
          "internalType": "contract IERC20",
          "name": "",
          "type": "address"
        }
      ],
      "stateMutability": "view",
      "type": "function"
    },
    {
      "inputs": [],
      "name": "totalSupply",
      "outputs": [
        {
          "internalType": "uint256",
          "name": "",
          "type": "uint256"
        }
      ],
      "stateMutability": "view",
      "type": "function"
    },
    {
      "inputs": [
        {
          "internalType": "address",
          "name": "",
          "type": "address"
        }
      ],
      "name": "userRewardPerTokenPaid",
      "outputs": [
        {
          "internalType": "uint256",
          "name": "",
          "type": "uint256"
        }
      ],
      "stateMutability": "view",
      "type": "function"
    },
    {
      "inputs": [
        {
          "internalType": "uint256",
          "name": "amount",
          "type": "uint256"
        }
      ],
      "name": "withdraw",
      "outputs": [],
      "stateMutability": "nonpayable",
      "type": "function"
    }
  ],
  "transactionHash": "0x0f2c270c053e5896bd75582823c554d5b279e0701b76a7d05d0374c96ab1f171",
  "args": [
    "0x48887E27e3E42e769F34e1e43E857235035d333a",
    "0x86772b1409b61c639EaAc9Ba0AcfBb6E238e5F83"
  ],
  "solcInputHash": "0x54589b82dda0ebe9625a8ebf36c5d9f74656907a8f620f444f4b840c5519b4cf",
  "bytecode": "0x60c0604052624f1a006001556000600355600060045534801561002157600080fd5b506040516117923803806117928339818101604052604081101561004457600080fd5b5080516020909101516001600160601b0319606092831b81166080526001600055911b1660a05260805160601c60a05160601c6116e06100b2600039806106dc528061090c5280610a5f5280610fda5250806105be528061097d52806109e85280610d6052506116e06000f3fe608060405234801561001057600080fd5b50600436106101575760003560e01c806380faa57d116100c3578063cd3daf9d1161007c578063cd3daf9d1461030e578063cd6dc68714610316578063d1af0c7d14610342578063df136d651461034a578063e9fad8ee14610352578063ebe2b12b1461035a57610157565b806380faa57d14610270578063886f039a146102785780638b876347146102a6578063a694fc3a146102cc578063c8f33c91146102e9578063cc1a378f146102f157610157565b80633c6b16ab116101155780633c6b16ab146101f15780633d18b9121461020e5780633fc6df6e1461021657806370a082311461023a57806372f702f3146102605780637b0a47ee1461026857610157565b80628cc2621461015c5780630700037d1461019457806318160ddd146101ba5780631c1f78eb146101c25780632e1a7d4d146101ca578063386a9525146101e9575b600080fd5b6101826004803603602081101561017257600080fd5b50356001600160a01b0316610362565b60408051918252519081900360200190f35b610182600480360360208110156101aa57600080fd5b50356001600160a01b03166103e0565b6101826103f2565b6101826103f9565b6101e7600480360360208110156101e057600080fd5b5035610417565b005b6101826105ad565b6101e76004803603602081101561020757600080fd5b50356105b3565b6101e7610828565b61021e61097b565b604080516001600160a01b039092168252519081900360200190f35b6101826004803603602081101561025057600080fd5b50356001600160a01b031661099f565b61021e6109ba565b6101826109c9565b6101826109cf565b6101e76004803603604081101561028e57600080fd5b506001600160a01b03813581169160200135166109dd565b610182600480360360208110156102bc57600080fd5b50356001600160a01b0316610ba9565b6101e7600480360360208110156102e257600080fd5b5035610bbb565b610182610d4f565b6101e76004803603602081101561030757600080fd5b5035610d55565b610182610e76565b6101e76004803603604081101561032c57600080fd5b506001600160a01b038135169060200135610ec4565b61021e610fd8565b610182610ffc565b6101e7611002565b610182611025565b6001600160a01b03811660009081526008602090815260408083205460079092528220546103da91906103d490670de0b6b3a7640000906103ce906103af906103a9610e76565b9061102b565b6001600160a01b0388166000908152600a602052604090205490611074565b906110cd565b9061110f565b92915050565b60086020526000908152604090205481565b6009545b90565b600061041260015460045461107490919063ffffffff16565b905090565b6002600054141561046f576040805162461bcd60e51b815260206004820152601f60248201527f5265656e7472616e637947756172643a207265656e7472616e742063616c6c00604482015290519081900360640190fd5b60026000553361047d610e76565b6006556104886109cf565b6005556001600160a01b038116156104cf576104a381610362565b6001600160a01b0382166000908152600860209081526040808320939093556006546007909152919020555b60008211610518576040805162461bcd60e51b8152602060048201526011602482015270043616e6e6f74207769746864726177203607c1b604482015290519081900360640190fd5b600954610525908361102b565b600955336000908152600a6020526040902054610542908361102b565b336000818152600a602052604090209190915560025461056e916001600160a01b039091169084611169565b60408051838152905133917f7084f5476618d8e60b11ef0d7d3f06914655adb8793e28ff7f018d4c76d505d5919081900360200190a250506001600055565b60015481565b336001600160a01b037f0000000000000000000000000000000000000000000000000000000000000000161461061a5760405162461bcd60e51b815260040180806020018281038252602a815260200180611636602a913960400191505060405180910390fd5b6000610624610e76565b60065561062f6109cf565b6005556001600160a01b038116156106765761064a81610362565b6001600160a01b0382166000908152600860209081526040808320939093556006546007909152919020555b60035442106106955760015461068d9083906110cd565b6004556106d8565b6003546000906106a5904261102b565b905060006106be6004548361107490919063ffffffff16565b6001549091506106d2906103ce868461110f565b60045550505b60007f00000000000000000000000000000000000000000000000000000000000000006001600160a01b03166370a08231306040518263ffffffff1660e01b815260040180826001600160a01b0316815260200191505060206040518083038186803b15801561074757600080fd5b505afa15801561075b573d6000803e3d6000fd5b505050506040513d602081101561077157600080fd5b50516001549091506107849082906110cd565b60045411156107da576040805162461bcd60e51b815260206004820152601860248201527f50726f76696465642072657761726420746f6f20686967680000000000000000604482015290519081900360640190fd5b4260058190556001546107ed919061110f565b6003556040805184815290517fde88a922e0d3b88b24e9623efeb464919c6bf9f66857a65e2bfcf2ce87a9433d9181900360200190a1505050565b60026000541415610880576040805162461bcd60e51b815260206004820152601f60248201527f5265656e7472616e637947756172643a207265656e7472616e742063616c6c00604482015290519081900360640190fd5b60026000553361088e610e76565b6006556108996109cf565b6005556001600160a01b038116156108e0576108b481610362565b6001600160a01b0382166000908152600860209081526040808320939093556006546007909152919020555b336000908152600860205260409020548015610972573360008181526008602052604081205561093b907f00000000000000000000000000000000000000000000000000000000000000006001600160a01b03169083611169565b60408051828152905133917fe2403640ba68fed3a2f88b7557551d1993f84b99bb10ff833f0cf8db0c5e0486919081900360200190a25b50506001600055565b7f000000000000000000000000000000000000000000000000000000000000000081565b6001600160a01b03166000908152600a602052604090205490565b6002546001600160a01b031681565b60045481565b6000610412426003546111c0565b336001600160a01b037f00000000000000000000000000000000000000000000000000000000000000001614610a445760405162461bcd60e51b815260040180806020018281038252602a815260200180611636602a913960400191505060405180910390fd5b6002546001600160a01b03838116911614801590610a9457507f00000000000000000000000000000000000000000000000000000000000000006001600160a01b0316826001600160a01b031614155b610acf5760405162461bcd60e51b815260040180806020018281038252602d815260200180611609602d913960400191505060405180910390fd5b6000826001600160a01b03166370a08231306040518263ffffffff1660e01b815260040180826001600160a01b0316815260200191505060206040518083038186803b158015610b1e57600080fd5b505afa158015610b32573d6000803e3d6000fd5b505050506040513d6020811015610b4857600080fd5b50519050610b606001600160a01b0384168383611169565b604080516001600160a01b03851681526020810183905281517f8c1256b8896378cd5044f80c202f9772b9d77dc85c8a6eb51967210b09bfaa28929181900390910190a1505050565b60076020526000908152604090205481565b60026000541415610c13576040805162461bcd60e51b815260206004820152601f60248201527f5265656e7472616e637947756172643a207265656e7472616e742063616c6c00604482015290519081900360640190fd5b600260005533610c21610e76565b600655610c2c6109cf565b6005556001600160a01b03811615610c7357610c4781610362565b6001600160a01b0382166000908152600860209081526040808320939093556006546007909152919020555b60008211610cb9576040805162461bcd60e51b815260206004820152600e60248201526d043616e6e6f74207374616b6520360941b604482015290519081900360640190fd5b600954610cc6908361110f565b600955336000908152600a6020526040902054610ce3908361110f565b336000818152600a6020526040902091909155600254610d10916001600160a01b039091169030856111d6565b60408051838152905133917f9e71bc8eea02a63969f509818f2dafb9254532904319f9dbda79b67bd34a5f3d919081900360200190a250506001600055565b60055481565b336001600160a01b037f00000000000000000000000000000000000000000000000000000000000000001614610dbc5760405162461bcd60e51b815260040180806020018281038252602a815260200180611636602a913960400191505060405180910390fd5b6003544211610dfc5760405162461bcd60e51b815260040180806020018281038252605881526020018061156e6058913960600191505060405180910390fd5b60008111610e3b5760405162461bcd60e51b81526004018080602001828103825260228152602001806115e76022913960400191505060405180910390fd5b60018190556040805182815290517ffb46ca5a5e06d4540d6387b930a7c978bce0db5f449ec6b3f5d07c6e1d44f2d39181900360200190a150565b600060095460001415610e8c57506006546103f6565b610412610ebb6009546103ce670de0b6b3a7640000610eb5600454610eb56005546103a96109cf565b90611074565b6006549061110f565b6002546001600160a01b031615610f18576040805162461bcd60e51b8152602060048201526013602482015272105b1c9958591e481a5b9a5d1a585b1a5e9959606a1b604482015290519081900360640190fd5b6001600160a01b038216610f73576040805162461bcd60e51b815260206004820152601e60248201527f43616e206e6f7420736574206e756c6c207374616b696e6720746f6b656e0000604482015290519081900360640190fd5b60008111610fb25760405162461bcd60e51b81526004018080602001828103825260218152602001806116606021913960400191505060405180910390fd5b600280546001600160a01b0319166001600160a01b039390931692909217909155600155565b7f000000000000000000000000000000000000000000000000000000000000000081565b60065481565b336000908152600a602052604090205461101b90610417565b611023610828565b565b60035481565b600061106d83836040518060400160405280601e81526020017f536166654d6174683a207375627472616374696f6e206f766572666c6f770000815250611236565b9392505050565b600082611083575060006103da565b8282028284828161109057fe5b041461106d5760405162461bcd60e51b81526004018080602001828103825260218152602001806115c66021913960400191505060405180910390fd5b600061106d83836040518060400160405280601a81526020017f536166654d6174683a206469766973696f6e206279207a65726f0000000000008152506112cd565b60008282018381101561106d576040805162461bcd60e51b815260206004820152601b60248201527f536166654d6174683a206164646974696f6e206f766572666c6f770000000000604482015290519081900360640190fd5b604080516001600160a01b038416602482015260448082018490528251808303909101815260649091019091526020810180516001600160e01b031663a9059cbb60e01b1790526111bb908490611332565b505050565b60008183106111cf578161106d565b5090919050565b604080516001600160a01b0380861660248301528416604482015260648082018490528251808303909101815260849091019091526020810180516001600160e01b03166323b872dd60e01b179052611230908590611332565b50505050565b600081848411156112c55760405162461bcd60e51b81526004018080602001828103825283818151815260200191508051906020019080838360005b8381101561128a578181015183820152602001611272565b50505050905090810190601f1680156112b75780820380516001836020036101000a031916815260200191505b509250505060405180910390fd5b505050900390565b6000818361131c5760405162461bcd60e51b815260206004820181815283516024840152835190928392604490910191908501908083836000831561128a578181015183820152602001611272565b50600083858161132857fe5b0495945050505050565b6060611387826040518060400160405280602081526020017f5361666545524332303a206c6f772d6c6576656c2063616c6c206661696c6564815250856001600160a01b03166113e39092919063ffffffff16565b8051909150156111bb578080602001905160208110156113a657600080fd5b50516111bb5760405162461bcd60e51b815260040180806020018281038252602a815260200180611681602a913960400191505060405180910390fd5b60606113f284846000856113fa565b949350505050565b606061140585611567565b611456576040805162461bcd60e51b815260206004820152601d60248201527f416464726573733a2063616c6c20746f206e6f6e2d636f6e7472616374000000604482015290519081900360640190fd5b60006060866001600160a01b031685876040518082805190602001908083835b602083106114955780518252601f199092019160209182019101611476565b6001836020036101000a03801982511681845116808217855250505050505090500191505060006040518083038185875af1925050503d80600081146114f7576040519150601f19603f3d011682016040523d82523d6000602084013e6114fc565b606091505b509150915081156115105791506113f29050565b8051156115205780518082602001fd5b60405162461bcd60e51b815260206004820181815286516024840152865187939192839260440191908501908083836000831561128a578181015183820152602001611272565b3b15159056fe50726576696f7573207265776172647320706572696f64206d75737420626520636f6d706c657465206265666f7265206368616e67696e6720746865206475726174696f6e20666f7220746865206e657720706572696f64536166654d6174683a206d756c7469706c69636174696f6e206f766572666c6f7743616e206e6f7420736574206e756c6c2072657761726473206475726174696f6e2e43616e6e6f7420776974686472617720746865207374616b696e67206f72207265776172647320746f6b656e7343616c6c6572206973206e6f742052657761726473446973747269627574696f6e20636f6e747261637443616e206e6f7420736574206e756c6c2072657761726473206475726174696f6e5361666545524332303a204552433230206f7065726174696f6e20646964206e6f742073756363656564a2646970667358221220f36b2043e071d68491b5ba0fcace01e806bbda16abdbe88f69a30f93489ff51e64736f6c634300060c0033",
  "devdoc": {
    "kind": "dev",
    "methods": {},
    "version": 1
  },
  "userdoc": {
    "kind": "user",
    "methods": {},
    "version": 1
  },
  "storageLayout": {
    "storage": [
      {
        "astId": 765,
        "contract": "temp-contracts/distribution/StakingRewards.sol:StakingRewards",
        "label": "_status",
        "offset": 0,
        "slot": "0",
        "type": "t_uint256"
      },
      {
        "astId": 850,
        "contract": "temp-contracts/distribution/StakingRewards.sol:StakingRewards",
        "label": "rewardsDuration",
        "offset": 0,
        "slot": "1",
        "type": "t_uint256"
      },
      {
        "astId": 926,
        "contract": "temp-contracts/distribution/StakingRewards.sol:StakingRewards",
        "label": "stakingToken",
        "offset": 0,
        "slot": "2",
        "type": "t_contract(IERC20)346"
      },
      {
        "astId": 930,
        "contract": "temp-contracts/distribution/StakingRewards.sol:StakingRewards",
        "label": "periodFinish",
        "offset": 0,
        "slot": "3",
        "type": "t_uint256"
      },
      {
        "astId": 934,
        "contract": "temp-contracts/distribution/StakingRewards.sol:StakingRewards",
        "label": "rewardRate",
        "offset": 0,
        "slot": "4",
        "type": "t_uint256"
      },
      {
        "astId": 937,
        "contract": "temp-contracts/distribution/StakingRewards.sol:StakingRewards",
        "label": "lastUpdateTime",
        "offset": 0,
        "slot": "5",
        "type": "t_uint256"
      },
      {
        "astId": 940,
        "contract": "temp-contracts/distribution/StakingRewards.sol:StakingRewards",
        "label": "rewardPerTokenStored",
        "offset": 0,
        "slot": "6",
        "type": "t_uint256"
      },
      {
        "astId": 944,
        "contract": "temp-contracts/distribution/StakingRewards.sol:StakingRewards",
        "label": "userRewardPerTokenPaid",
        "offset": 0,
        "slot": "7",
        "type": "t_mapping(t_address,t_uint256)"
      },
      {
        "astId": 948,
        "contract": "temp-contracts/distribution/StakingRewards.sol:StakingRewards",
        "label": "rewards",
        "offset": 0,
        "slot": "8",
        "type": "t_mapping(t_address,t_uint256)"
      },
      {
        "astId": 950,
        "contract": "temp-contracts/distribution/StakingRewards.sol:StakingRewards",
        "label": "_totalSupply",
        "offset": 0,
        "slot": "9",
        "type": "t_uint256"
      },
      {
        "astId": 954,
        "contract": "temp-contracts/distribution/StakingRewards.sol:StakingRewards",
        "label": "_balances",
        "offset": 0,
        "slot": "10",
        "type": "t_mapping(t_address,t_uint256)"
      }
    ],
    "types": {
      "t_address": {
        "encoding": "inplace",
        "label": "address",
        "numberOfBytes": "20"
      },
      "t_contract(IERC20)346": {
        "encoding": "inplace",
        "label": "contract IERC20",
        "numberOfBytes": "20"
      },
      "t_mapping(t_address,t_uint256)": {
        "encoding": "mapping",
        "key": "t_address",
        "label": "mapping(address => uint256)",
        "numberOfBytes": "32",
        "value": "t_uint256"
      },
      "t_uint256": {
        "encoding": "inplace",
        "label": "uint256",
        "numberOfBytes": "32"
      }
    }
  },
  "gasEstimates": {
    "creation": {
      "codeDepositCost": "1171200",
      "executionCost": "infinite",
      "totalCost": "infinite"
    },
    "external": {
      "balanceOf(address)": "1231",
      "earned(address)": "infinite",
      "exit()": "infinite",
      "getReward()": "infinite",
      "getRewardForDuration()": "infinite",
      "initialize(address,uint256)": "infinite",
      "lastTimeRewardApplicable()": "1107",
      "lastUpdateTime()": "1109",
      "notifyRewardAmount(uint256)": "infinite",
      "periodFinish()": "1130",
      "recoverERC20(address,address)": "infinite",
      "rewardPerToken()": "infinite",
      "rewardPerTokenStored()": "1086",
      "rewardRate()": "1131",
      "rewards(address)": "1170",
      "rewardsDistribution()": "infinite",
      "rewardsDuration()": "1132",
      "rewardsToken()": "infinite",
      "setRewardsDuration(uint256)": "infinite",
      "stake(uint256)": "infinite",
      "stakingToken()": "1148",
      "totalSupply()": "1067",
      "userRewardPerTokenPaid(address)": "1191",
      "withdraw(uint256)": "infinite"
    }
  }
}