{
  "address": "0xE504AFA01c7d5154778C0d93D6fb9BdBb6Bf2A52",
  "abi": [
    {
      "inputs": [
        {
          "internalType": "address",
          "name": "recipient_",
          "type": "address"
        },
        {
          "internalType": "address",
          "name": "token_",
          "type": "address"
        },
        {
          "internalType": "uint256",
          "name": "unlockDate_",
          "type": "uint256"
        }
      ],
      "stateMutability": "nonpayable",
      "type": "constructor"
    },
    {
      "inputs": [],
      "name": "claim",
      "outputs": [],
      "stateMutability": "nonpayable",
      "type": "function"
    },
    {
      "inputs": [],
      "name": "recipient",
      "outputs": [
        {
          "internalType": "address",
          "name": "",
          "type": "address"
        }
      ],
      "stateMutability": "view",
      "type": "function"
    },
    {
      "inputs": [],
      "name": "token",
      "outputs": [
        {
          "internalType": "address",
          "name": "",
          "type": "address"
        }
      ],
      "stateMutability": "view",
      "type": "function"
    },
    {
      "inputs": [],
      "name": "unlockDate",
      "outputs": [
        {
          "internalType": "uint256",
          "name": "",
          "type": "uint256"
        }
      ],
      "stateMutability": "view",
      "type": "function"
    }
  ],
  "transactionHash": "0xd748259c6749fda8752096197fd557233032986cb1eff0f4d492c483c62804bd",
  "args": [
    "0x78a3eF33cF033381FEB43ba4212f2Af5A5A0a2EA",
    "0x86772b1409b61c639EaAc9Ba0AcfBb6E238e5F83",
    1611273600
  ],
  "solcInputHash": "0x487f9a7355c11c40f4dac37d427cc15fa935f4fb1b4a1496d52fd7b60763832a",
  "bytecode": "0x60e060405234801561001057600080fd5b5060405161051c38038061051c8339818101604052606081101561003357600080fd5b50805160208201516040909201519091906001600160a01b0383166100895760405162461bcd60e51b81526004018080602001828103825260358152602001806104886035913960400191505060405180910390fd5b6001600160a01b0382166100ce5760405162461bcd60e51b81526004018080602001828103825260318152602001806104bd6031913960400191505060405180910390fd5b42811161010c5760405162461bcd60e51b815260040180806020018281038252602e8152602001806104ee602e913960400191505060405180910390fd5b6001600160601b0319606093841b81166080529190921b1660a05260c05260805160601c60a05160601c60c05161031961016f6000398060a3528061029d52508061011a52806101fd52806102c15250806101c9528061027952506103196000f3fe608060405234801561001057600080fd5b506004361061004c5760003560e01c80634e71d92d1461005157806366d003ac1461005b57806369ac57211461007f578063fc0c546a14610099575b600080fd5b6100596100a1565b005b610063610277565b604080516001600160a01b039092168252519081900360200190f35b61008761029b565b60408051918252519081900360200190f35b6100636102bf565b7f0000000000000000000000000000000000000000000000000000000000000000421015610116576040805162461bcd60e51b815260206004820152601e60248201527f54726561737572794c6f636b3a3a636c61696d3a206e6f742072656164790000604482015290519081900360640190fd5b60007f00000000000000000000000000000000000000000000000000000000000000006001600160a01b03166370a08231306040518263ffffffff1660e01b815260040180826001600160a01b0316815260200191505060206040518083038186803b15801561018557600080fd5b505afa158015610199573d6000803e3d6000fd5b505050506040513d60208110156101af57600080fd5b50516040805163a9059cbb60e01b81526001600160a01b037f0000000000000000000000000000000000000000000000000000000000000000811660048301526024820184905291519293507f00000000000000000000000000000000000000000000000000000000000000009091169163a9059cbb916044808201926020929091908290030181600087803b15801561024857600080fd5b505af115801561025c573d6000803e3d6000fd5b505050506040513d602081101561027257600080fd5b505050565b7f000000000000000000000000000000000000000000000000000000000000000081565b7f000000000000000000000000000000000000000000000000000000000000000081565b7f00000000000000000000000000000000000000000000000000000000000000008156fea2646970667358221220a3a1302ff38ec4b1bd2d338a3a3d258f59b02020747dceea1593addbdcb59dfc64736f6c634300060c003354726561737572794c6f636b3a3a636f6e7374727563746f723a2063616e206e6f7420736574206e756c6c20726563697069656e7454726561737572794c6f636b3a3a636f6e7374727563746f723a2063616e206e6f7420736574206e756c6c20746f6b656e54726561737572794c6f636b3a3a636f6e7374727563746f723a20756e6c6f636b4461746520746f6f20736f6f6e",
  "devdoc": {
    "kind": "dev",
    "methods": {},
    "version": 1
  },
  "userdoc": {
    "kind": "user",
    "methods": {},
    "version": 1
  },
  "storageLayout": {
    "storage": [],
    "types": null
  },
  "gasEstimates": {
    "creation": {
      "codeDepositCost": "158600",
      "executionCost": "infinite",
      "totalCost": "infinite"
    },
    "external": {
      "claim()": "infinite",
      "recipient()": "infinite",
      "token()": "infinite",
      "unlockDate()": "infinite"
    }
  }
}