{
  "address": "0xdaafbE65784f93ea0747173a77abB4206f98443C",
  "abi": [
    {
      "inputs": [
        {
          "internalType": "address",
          "name": "ndx_",
          "type": "address"
        },
        {
          "internalType": "address",
          "name": "recipient_",
          "type": "address"
        },
        {
          "internalType": "uint256",
          "name": "vestingAmount_",
          "type": "uint256"
        },
        {
          "internalType": "uint256",
          "name": "vestingBegin_",
          "type": "uint256"
        },
        {
          "internalType": "uint256",
          "name": "vestingCliff_",
          "type": "uint256"
        },
        {
          "internalType": "uint256",
          "name": "vestingEnd_",
          "type": "uint256"
        }
      ],
      "stateMutability": "nonpayable",
      "type": "constructor"
    },
    {
      "inputs": [],
      "name": "claim",
      "outputs": [],
      "stateMutability": "nonpayable",
      "type": "function"
    },
    {
      "inputs": [],
      "name": "lastUpdate",
      "outputs": [
        {
          "internalType": "uint256",
          "name": "",
          "type": "uint256"
        }
      ],
      "stateMutability": "view",
      "type": "function"
    },
    {
      "inputs": [],
      "name": "ndx",
      "outputs": [
        {
          "internalType": "address",
          "name": "",
          "type": "address"
        }
      ],
      "stateMutability": "view",
      "type": "function"
    },
    {
      "inputs": [],
      "name": "recipient",
      "outputs": [
        {
          "internalType": "address",
          "name": "",
          "type": "address"
        }
      ],
      "stateMutability": "view",
      "type": "function"
    },
    {
      "inputs": [
        {
          "internalType": "address",
          "name": "recipient_",
          "type": "address"
        }
      ],
      "name": "setRecipient",
      "outputs": [],
      "stateMutability": "nonpayable",
      "type": "function"
    },
    {
      "inputs": [],
      "name": "vestingAmount",
      "outputs": [
        {
          "internalType": "uint256",
          "name": "",
          "type": "uint256"
        }
      ],
      "stateMutability": "view",
      "type": "function"
    },
    {
      "inputs": [],
      "name": "vestingBegin",
      "outputs": [
        {
          "internalType": "uint256",
          "name": "",
          "type": "uint256"
        }
      ],
      "stateMutability": "view",
      "type": "function"
    },
    {
      "inputs": [],
      "name": "vestingCliff",
      "outputs": [
        {
          "internalType": "uint256",
          "name": "",
          "type": "uint256"
        }
      ],
      "stateMutability": "view",
      "type": "function"
    },
    {
      "inputs": [],
      "name": "vestingEnd",
      "outputs": [
        {
          "internalType": "uint256",
          "name": "",
          "type": "uint256"
        }
      ],
      "stateMutability": "view",
      "type": "function"
    }
  ],
  "transactionHash": "0x6c12719c2f5c80785385a1408dd47ea3c0d117e83f77494fa3b98af94ad94968",
  "args": [
    "0x86772b1409b61c639EaAc9Ba0AcfBb6E238e5F83",
    "0x78a3eF33cF033381FEB43ba4212f2Af5A5A0a2EA",
    "3000000000000000000000000",
    1609459200,
    1614556800,
    1640995200
  ],
  "solcInputHash": "0x756b88cc4caeae404150613ea2fbefeccd6e4f199934fdc75487da568ac38e7d",
  "bytecode": "0x608060405234801561001057600080fd5b50604051610738380380610738833981810160405260c081101561003357600080fd5b508051602082015160408301516060840151608085015160a0909501519394929391929091428310156100975760405162461bcd60e51b81526004018080602001828103825260348152602001806106a86034913960400191505060405180910390fd5b828210156100d65760405162461bcd60e51b815260040180806020018281038252602f8152602001806106dc602f913960400191505060405180910390fd5b8181116101145760405162461bcd60e51b815260040180806020018281038252602d81526020018061070b602d913960400191505060405180910390fd5b600080546001600160a01b039788166001600160a01b0319918216179091556001805496909716951694909417909455600291909155600381905560049290925560055560065561053e8061016a6000396000f3fe608060405234801561001057600080fd5b50600436106100925760003560e01c806379521b2c1161006657806379521b2c1461010557806384a1931f1461010d578063c046371114610115578063e29bc68b1461011d578063f3640e741461012557610092565b8062728f76146100975780633bbed4a0146100b15780634e71d92d146100d957806366d003ac146100e1575b600080fd5b61009f61012d565b60408051918252519081900360200190f35b6100d7600480360360208110156100c757600080fd5b50356001600160a01b0316610133565b005b6100d761019e565b6100e9610323565b604080516001600160a01b039092168252519081900360200190f35b6100e9610332565b61009f610341565b61009f610347565b61009f61034d565b61009f610353565b60025481565b6001546001600160a01b0316331461017c5760405162461bcd60e51b815260040180806020018281038252602a81526020018061049b602a913960400191505060405180910390fd5b600180546001600160a01b0319166001600160a01b0392909216919091179055565b6004544210156101df5760405162461bcd60e51b81526004018080602001828103825260238152602001806104e66023913960400191505060405180910390fd5b6000600554421061026857600054604080516370a0823160e01b815230600482015290516001600160a01b03909216916370a0823191602480820192602092909190829003018186803b15801561023557600080fd5b505afa158015610249573d6000803e3d6000fd5b505050506040513d602081101561025f57600080fd5b50519050610298565b6102916003546005540361028b600654420360025461035990919063ffffffff16565b906103bb565b4260065590505b600080546001546040805163a9059cbb60e01b81526001600160a01b039283166004820152602481018690529051919092169263a9059cbb92604480820193602093909283900390910190829087803b1580156102f457600080fd5b505af1158015610308573d6000803e3d6000fd5b505050506040513d602081101561031e57600080fd5b505050565b6001546001600160a01b031681565b6000546001600160a01b031681565b60055481565b60065481565b60035481565b60045481565b600082610368575060006103b5565b8282028284828161037557fe5b04146103b25760405162461bcd60e51b81526004018080602001828103825260218152602001806104c56021913960400191505060405180910390fd5b90505b92915050565b60006103b283836040518060400160405280601a81526020017f536166654d6174683a206469766973696f6e206279207a65726f000000000000815250600081836104845760405162461bcd60e51b81526004018080602001828103825283818151815260200191508051906020019080838360005b83811015610449578181015183820152602001610431565b50505050905090810190601f1680156104765780820380516001836020036101000a031916815260200191505b509250505060405180910390fd5b50600083858161049057fe5b049594505050505056fe54726561737572795665737465723a3a736574526563697069656e743a20756e617574686f72697a6564536166654d6174683a206d756c7469706c69636174696f6e206f766572666c6f7754726561737572795665737465723a3a636c61696d3a206e6f742074696d6520796574a2646970667358221220dd8a8b82521b75f4e68f7715595e2ddc25b9b5bd80a0855e7cbb7a1bc510767f64736f6c634300060c003354726561737572795665737465723a3a636f6e7374727563746f723a2076657374696e6720626567696e20746f6f206561726c7954726561737572795665737465723a3a636f6e7374727563746f723a20636c69666620697320746f6f206561726c7954726561737572795665737465723a3a636f6e7374727563746f723a20656e6420697320746f6f206561726c79",
  "devdoc": {
    "kind": "dev",
    "methods": {},
    "version": 1
  },
  "userdoc": {
    "kind": "user",
    "methods": {},
    "version": 1
  },
  "storageLayout": {
    "storage": [
      {
        "astId": 203,
        "contract": "temp-contracts/distribution/TreasuryVester.sol:TreasuryVester",
        "label": "ndx",
        "offset": 0,
        "slot": "0",
        "type": "t_address"
      },
      {
        "astId": 205,
        "contract": "temp-contracts/distribution/TreasuryVester.sol:TreasuryVester",
        "label": "recipient",
        "offset": 0,
        "slot": "1",
        "type": "t_address"
      },
      {
        "astId": 207,
        "contract": "temp-contracts/distribution/TreasuryVester.sol:TreasuryVester",
        "label": "vestingAmount",
        "offset": 0,
        "slot": "2",
        "type": "t_uint256"
      },
      {
        "astId": 209,
        "contract": "temp-contracts/distribution/TreasuryVester.sol:TreasuryVester",
        "label": "vestingBegin",
        "offset": 0,
        "slot": "3",
        "type": "t_uint256"
      },
      {
        "astId": 211,
        "contract": "temp-contracts/distribution/TreasuryVester.sol:TreasuryVester",
        "label": "vestingCliff",
        "offset": 0,
        "slot": "4",
        "type": "t_uint256"
      },
      {
        "astId": 213,
        "contract": "temp-contracts/distribution/TreasuryVester.sol:TreasuryVester",
        "label": "vestingEnd",
        "offset": 0,
        "slot": "5",
        "type": "t_uint256"
      },
      {
        "astId": 215,
        "contract": "temp-contracts/distribution/TreasuryVester.sol:TreasuryVester",
        "label": "lastUpdate",
        "offset": 0,
        "slot": "6",
        "type": "t_uint256"
      }
    ],
    "types": {
      "t_address": {
        "encoding": "inplace",
        "label": "address",
        "numberOfBytes": "20"
      },
      "t_uint256": {
        "encoding": "inplace",
        "label": "uint256",
        "numberOfBytes": "32"
      }
    }
  },
  "gasEstimates": {
    "creation": {
      "codeDepositCost": "268400",
      "executionCost": "infinite",
      "totalCost": "infinite"
    },
    "external": {
      "claim()": "infinite",
      "lastUpdate()": "1042",
      "ndx()": "1037",
      "recipient()": "1104",
      "setRecipient(address)": "infinite",
      "vestingAmount()": "999",
      "vestingBegin()": "1064",
      "vestingCliff()": "1086",
      "vestingEnd()": "1020"
    }
  }
}